:020000040800F2
:10000000F8A00020450100083B1200083B11000841
:1000100039120008DD010008792100080000000005
:10002000000000000000000000000000E51E0008C5
:10003000F9010008000000002D1E0008E71E00085E
:100040005F0100085F0100085F0100085F01000810
:100050005F0100085F0100085F0100085F01000800
:100060005F0100085F0100085F0100085F010008F0
:100070005F0100085F0100085F0100085F010008E0
:100080005F0100085F0100085F0100085F010008D0
:100090005F0100085F0100085F0100085F010008C0
:1000A0005F0100085F0100085F0100085F010008B0
:1000B0005F0100085F0100085F0100085F010008A0
:1000C0005F0100085F0100085F0100085F01000890
:1000D0005F0100085F0100085F0100085F01000880
:1000E0005F0100085F0100085F0100085F01000870
:1000F0005F0100085F0100085F0100085F01000860
:100100005F0100085F0100085F0100085F0100084F
:100110005F0100085F0100085F0100085F0100083F
:100120005F0100085F0100085F0100085F0100082F
:10013000DFF80CD000F040F8004800478D2300089D
:10014000F8A000200648804706480047FEE7FEE783
:10015000FEE7FEE7FEE7FEE7FEE7FEE7FEE7FEE777
:100160005D1F000831010008D2B201E000F8012B48
:10017000491EFBD270470022F6E710B513460A4627
:1001800004461946FFF7F0FF204610BD30B50B4678
:10019000014600202022012409E021FA02F59D42B7
:1001A00005D303FA02F5491B04FA02F52844151E8B
:1001B000A2F10102F1DC30BD064C074D06E0E0681B
:1001C00040F0010394E8070098471034AC42F6D39E
:1001D000FFF7B2FFA4690008C4690008FEE7000049
:1001E00001B54FF47A7301226946024800F012FE0D
:1001F00008BD00005C00002070472DE9F041FA279F
:10020000002110263B467A22084600F0EDF8002433
:100210002146002000F0D2F8242000F09BF80025B1
:10022000FF2000F0B1F86D1CADB2B542F8D3641CEC
:10023000A4B2BC42ECD3BDE8F04100F0F9B8000034
:100240002DE9F04781464FF0FA0800211027434678
:100250007A22084600F0C8F800242146002000F069
:10026000ADF8242000F076F8002504FB07F600BF67
:1002700009EB0500305C00F087F86D1CADB2BD42A3
:10028000F6D3641CA4B24445E7D3BDE8F04700F0C0
:10029000CFB8000070B52E4C054601220221204641
:1002A00000F015FAC82000F007F9002202212046CC
:1002B00000F00DFAC82000F0FFF8012202212046CC
:1002C00000F005FAC82000F0F7F8012000F042F82D
:1002D000F92000F059F8002000F056F8002000F056
:1002E00053F80C2000F036F8D72000F04DF8D62057
:1002F00000F04AF89D2000F047F82C2000F02AF882
:10030000A82000F041F83A2000F024F81A2000F06C
:100310003BF83B2000F01EF8082000F035F83C20A8
:1003200000F018F8632000F02FF8112000F012F808
:10033000032000F029F8322000F00CF80024285D9A
:1003400000F022F8641C1E2CF9DB002070BD0000B8
:100350000008014070B50B4C0546002204212046E0
:1003600000F0B5F900221021204600F0B0F928462F
:10037000FFF736FF2046BDE870400122102100F053
:10038000A6B900000008014070B50B4C05460122DB
:100390000421204600F09BF900221021204600F0A5
:1003A00096F92846FFF71CFF2046BDE87040012261
:1003B000102100F08CB900000008014070B505461E
:1003C0000C464E20FFF7C6FFC5F3C700FFF7DCFF62
:1003D0004F20FFF7BFFFE0B2FFF7D6FFC4F30720BF
:1003E000BDE87040FFF7D0BF2DE9F04107461C463D
:1003F00016460D464420FFF7ADFFC7F3C700FFF7D1
:10040000C3FFC6F3C700FFF7BFFF4520FFF7A2FFFA
:10041000E8B2FFF7B9FFC5F30720FFF7B5FFE0B279
:10042000FFF7B2FFC4F30720BDE8F041FFF7ACBF10
:1004300010B52220FFF78EFFC420FFF7A5FF202074
:10044000FFF788FFFF20FFF785FFBDE8104000F0B1
:1004500001B8000010B509A001F090FE0D4C02E0BB
:10046000642000F029F80821204600F02BF901282B
:10047000F6D0BDE8104008A001F080BE446562756A
:10048000673A20652D506170657220627573790D31
:100490000A0000000008014044656275673A206563
:1004A0002D506170657220627573792072656C657C
:1004B0006173650D0A00000070B5044600F00CF988
:1004C0000546601C02D004480078044400F004F99A
:1004D000401BA042FAD370BD280000202DE9F84F40
:1004E000DFF8B8A100220AF1040B144601274FF0EF
:1004F0000F090BF1040E00BF0B6807FA04F52B403F
:10050000AB4274D1DFF898C14E68A6EB0C08664583
:100510002BD00DDC032E34D005DC36B3012E19D0E0
:10052000022E2FD11BE0112E16D0122E2AD119E047
:10053000B8F5881F19D006DCB8F5803F15D0B8F59E
:10054000801F1FD111E0B8F5001F0ED0B8F5041FB1
:1005500018D10AE0CA6815E0CA68121D12E0CA681C
:1005600008320FE0CA680C320CE08A682AB1012A0E
:100570004FF0080203D0456104E0042202E0056167
:1005800000E00022FF2B01D8064601E000F104063E
:100590004FEA840501D9A5F12005D6F800C009FA73
:1005A00005F82CEA080C02FA05F54CEA050CC6F829
:1005B00000C04D68ED006AD53A4DAE6946F00106BF
:1005C000AE61AD6924F0030605F001050095364DD6
:1005D00006EB050CDCF80850A6074FEA167809FA76
:1005E00008F6B543314EB04202D100261AE04EE083
:1005F0002F4EB04201D1012614E02E4EB04201D15F
:1006000002260FE02C4EB04201D103260AE02B4E09
:10061000B04201D1042605E0294EB04201D10526A1
:1006200000E0062606FA08F62E43CCF808604D686E
:10063000DAF80060ED03554601D51E4300E09E4305
:100640002E604D68AD0305D5DBF800601E43CBF886
:10065000006004E0DBF800509D43CBF800504D688B
:10066000DEF80060ED02754601D51E4300E09E43B2
:100670002E604D68AD0205D5084D0C352E681E4321
:100680002E6004E0054E0C3635689D433560641CD1
:10069000102CFFF431AFBDE8F88F000000040140DA
:1006A000000011100010024000000140000801404D
:1006B000000C0140001001400014014000180140EE
:1006C000001C01408068084000D0012070470AB13A
:1006D000016170470904FBE701488068704700002A
:1006E0002800002002488168027811448160704728
:1006F00028000020074810B5016841F01001016092
:10070000032000F089F8002000F006F800F024F83B
:10071000002010BD0020024070B50D4D04464FF47E
:100720007A712878B1FBF0F00A490968B1FBF0F062
:1007300000F031FC48B9102C07D200222146501E8F
:1007400000F04AF800206C6070BD012070BD000010
:1007500028000020340000201D4808B5816941F0C0
:1007600001018161806900F001000090032000F028
:1007700053F8002211466FF00B0000F02DF8002214
:1007800011466FF00A0000F027F8002211466FF0C2
:10079000090000F021F800221146501F00F01CF85B
:1007A00000221146101F00F017F800221146901E7B
:1007B00000F012F800221146501E00F00DF8054816
:1007C000416821F0E06141F00071416008BD000026
:1007D0000010024000000140F0B40E4B1B680C46B4
:1007E000C3F30223C3F10705042D00D90425191D05
:1007F000072901D2002300E0DB1E012606FA05F1DD
:10080000491E214099409E40761E16403143F0BC5F
:1008100000F014BD0CED00E0064900F00702086886
:100820004FF6FF03184040EA0220034A10430860D5
:10083000704700000CED00E00000FA052DE9F047DC
:10084000DFF83C8105460E46D8F8000000F00700AE
:10085000B0420CD2D8F8001021F007013143C8F89B
:100860000010D8F8000000F00700B04263D12878EB
:10087000444C800705D56068A96820F0F000084363
:1008800060602878C00745D06868012816D02168C4
:10089000022816D0890700294DDA616821F003018A
:1008A00001436160FFF718FF6968074641F288302D
:1008B00001290FD00229814619D027E02168890338
:1008C000E9E78901E7E700BFFFF706FFC11B4945DC
:1008D00001D918E081466068C0F381000128F3D196
:1008E00018E000BFFFF7F8FEC11B49450BD8606850
:1008F000C0F381000228F5D10CE000BFFFF7ECFE49
:10090000C11B494502D90320BDE8F087606810F09B
:100910000C0FF3D1D8F80010404601F00701B142A6
:100920000BD9016821F0070131430160006800F034
:100930000700B04201D00120E6E72878400705D53E
:100940006068E96820F4E060084360602878000788
:1009500006D56068296920F4605040EAC1006060F3
:1009600000F03CF86168084AC1F30311515CC840CB
:10097000064908600020FFF7CFFE0020C4E7000012
:1009800000200240001002400469000834000020EA
:100990000148006870470000340000200448054901
:1009A00000684968044AC1F30221515CC84070479D
:1009B0003400002000100240146900080448054972
:1009C00000684968044AC1F3C221515CC8407047BD
:1009D00034000020001002401469000812A185B004
:1009E0000FC98DE80F0014A0144A006804905168E4
:1009F000134801F00C03042B10D0082B0ED1C1F3C7
:100A00008343C9031DF803000AD5516804AAC1F342
:100A10004041515C0A4A5043B0FBF1F005B07047C9
:100A200008494843FAE700000203040506070809DD
:100A30000A0B0C0D0E0F10100102000000100240F6
:100A400000127A0000093D002DE9F84F04460078B5
:100A5000B94DC00748D06868C0F38100012807D0AD
:100A60006868C0F38100022809D16868C00306D510
:100A70002868800338D5606800286FD034E060684B
:100A8000B0F5803F0BD010B1B0F5A02F11D0286881
:100A900020F480302860286820F4802002E0286854
:100AA00040F480302860606888B1FFF715FE064684
:100AB00009E0286840F480202860F0E7FFF70CFE8A
:100AC000801B642875D828688003F7D50CE0FFF7F1
:100AD00003FE064605E000BFFFF7FEFD801B64280D
:100AE000F0D828688003F7D42078944E80074FF020
:100AF00001094FF000083BD5686810F00C0F07D0D3
:100B00006868C0F38100022809D16868C00306D470
:100B10002868800714D5206901281FD110E02069BA
:100B2000B0B1C6F80090FFF7D7FD074605E000BF5B
:100B3000FFF7D2FDC01B0228C4D828688007F7D56C
:100B40002868616920F0F80040EAC10028600FE0E1
:100B5000C6F80080FFF7C0FD074606E0E9E000BFE9
:100B6000FFF7BAFDC01B022823D828688007F7D4F6
:100B7000207800072CD57248A169D9B1C0F800903F
:100B8000FFF7AAFD074604E0FFF7A6FDC01B0228F9
:100B90000FD8686A8007F7D56A484FF4FA510068A1
:100BA000B0FBF1F0009000BF0098411E0091FAD216
:100BB0000EE080E0C0F80080FFF78EFD074604E0FD
:100BC000FFF78AFDC01B022875D8686A8007F7D432
:100BD0002078400760D5E8690027C00008D4E8699C
:100BE00040F08050E861E869012700F080500090F3
:100BF00055480168C90513D40168834641F48071E2
:100C00000160FFF769FD824606E000BFFFF764FD63
:100C1000A0EB0A0064284ED8DBF80000C005F5D52B
:100C2000E06801280AD008B1052813D0286A20F00E
:100C300001002862286A20F0040002E0286A40F0DF
:100C400001002862E06841F2883B98B1FFF744FD5B
:100C500082460BE0286A40F004002862EEE700BFFD
:100C6000FFF73AFDA0EB0A0159455AD8286A8007D8
:100C7000F6D50CE0FFF730FD824605E0FFF72CFDCE
:100C8000A0EB0A0159454CD8286A8007F6D41FB159
:100C9000E86920F08050E861E06988B36968C1F3D1
:100CA0008101022945D00228C6F8608004D0FFF7F0
:100CB00013FD044638E034E0FFF70EFD074604E07C
:100CC000FFF70AFDC01B02282BD828688001F7D443
:100CD000206AB0F5803F05D16868A16820F4003033
:100CE00008436860D4E908010843696821F4741175
:100CF00008436860C6F86090FFF7EEFC044606E023
:100D000015E000BFFFF7E8FC001B022809D828689F
:100D10008001F7D50BE000BFFFF7DEFC001B0228C7
:100D200002D90320BDE8F88F28688001F4D40020A0
:100D3000F8E70120F6E70000001002400000424200
:100D400080044242340000200070004070B504006E
:100D500005D00025A56294F8510010B104E00120EF
:100D600070BD204600F034F8022084F8510020685D
:100D7000016821F040010160D4E901010843D4E990
:100D800003121143084361690843218B01F4007188
:100D90000843E1690843216A0843A16A08432168BE
:100DA0000860A069042101EA1040616A08432168D3
:100DB00048602168E06A08612068C16921F4006127
:100DC000C1616565012084F85100002070BD0000FC
:100DD00000B500680C4985B0884212D10B48816982
:100DE00041F4805181618069694600F4805004902B
:100DF000A020009002200190032003900448FFF7F8
:100E00006DFB05B000BD0000003001400010024045
:100E1000000801402DE9F84F044690F850000026E4
:100E2000994617460D4601280DD04FF0010B84F866
:100E300050B0FFF751FC804694F85100B2460128AB
:100E400004D0022694E00220BDE8F88F002D7BD06C
:100E5000002F79D0032084F85100C4F854A02563F2
:100E6000A786E786C4F838A0A4F83CA0A4F83EA062
:100E7000C4F844A0C4F840A0A068B0F5004F04D165
:100E80002068016841F480410160206801684906DA
:100E900003D4016841F040010160E068B0F5006FE3
:100EA000606804D030B3E08E012823D03EE010B15A
:100EB000E08E01281AD135F8021B206805E0206871
:100EC0008168890706D535F8021BC160E08E401E97
:100ED000E0860BE0B9F1000F34D0B9F1FF3F05D047
:100EE000FFF7FAFBA0EB080149452BD2E08E002862
:100EF000E5D11EE0216815F8010B087306E02068B3
:100F00008168890706D515F8011B0173E08E401E24
:100F1000E0860BE0B9F1000F14D0B9F1FF3F05D026
:100F2000FFF7DAFBA0EB080149450BD2E08E002861
:100F3000E5D14B46012202212046CDF8008000F089
:100F400086FF10B1032613E011E0424649462046D1
:100F500000F06DFF18B101262020606508E0A06850
:100F600018B92068C16880680090606D00B10126E2
:100F700084F851B084F850A0304665E74FF0E02186
:100F80000428086903D020F004000861704740F08D
:100F90000400FAE7704710B5401EB0F1807F01D31E
:100FA000012010BD4FF0E02460610F21601700F0B8
:100FB00045F90020A06107202061002010BD10B578
:100FC000FFF7E8FF10BD70B5040004D094F83900B5
:100FD000002510B106E0012070BD84F8385020468D
:100FE00000F022F8242084F839002068C16821F438
:100FF0000051C160204600F0D5FF2068016921F44E
:10100000904101612068416921F02A014161206815
:10101000C16841F40051C160E563202084F83900C3
:1010200084F83A00002070BD10B50068114986B000
:1010300088421DD11048816941F4804181618069F5
:101040000E4C00F4804004904FF400700090022099
:1010500001900320039069462046FFF73FFA0021E4
:101060002015CDE90001029169462046FFF736FAC6
:1010700006B010BD003801400010024000080140D9
:101080002DE9F843044690F839001F4616460D46F0
:10109000202850D1A5B19EB194F8380001284AD03B
:1010A000012084F838004FF00008C4F83C8021206B
:1010B00084F83900FFF710FBA6848146E68426E019
:1010C0000120BDE8F883E08C401EE084A0684B4618
:1010D000B0F5805F4FF000024FF08001204600978E
:1010E00003D001F017F8E8B90DE001F013F8C8B922
:1010F00028882168C0F308004860206908B16D1C89
:1011000005E0AD1C03E0216815F8010B4860E08C98
:101110000028D8D14B46002240212046009700F0FD
:10112000F9FF08B10320CCE7202084F8390084F8C7
:1011300038800020C5E70220C3E7FEE7124810B55B
:10114000816986B041F00401816180690F4C00F033
:1011500004000490002216212046FFF7B8FA16205A
:101160000090012001900220039069462046FFF77D
:10117000B5F900210820CDE9000102916946204619
:10118000FFF7ACF906B010BD0010024000080140A6
:10119000114810B50F4901604FF482714160002180
:1011A0008160C1604FF400720161C0E9051228221C
:1011B000C0E90721416281620A21C162FFF7C6FDD1
:1011C000002805D0BDE81040272104A000F0D5BFBD
:1011D00010BD0000003001405C0000202E2E2F5377
:1011E00072632F7370692E63000000000D4810B504
:1011F0000B4901604FF4E1314160002181600C2214
:10120000C160C0E904128161C161FFF7DCFE002802
:1012100005D0BDE81040242103A000F0AEBF10BDF2
:1012200000380140B40000202E2E2F5372632F751A
:10123000736172742E630000FEE770470907090EA0
:10124000002806DA00F00F0000F1E02080F8141DFD
:10125000704700F1E02080F80014704730B500219D
:101260000A4AC3B20DE0002006E000BF01FB0404FF
:101270001568401C80B22B55548A8442F6D8491C0C
:1012800089B2908A8842EED830BD00004400002028
:101290002DE9F0471F4616460D468046DDF82090A2
:1012A0000CE0444606E04A462946204600F056FD3A
:1012B000641CA4B2B442F6D36D1CADB2BD42F0D3EF
:1012C000BDE8F08770B50022094B0DE0002106E073
:1012D00002FB04141E68055D491C355589B25C8A01
:1012E0008C42F5D8521C92B2998A9142EED870BDC8
:1012F000440000202DE9F05F81462A481E46DDF8B3
:1013000028B0838888464B4502D3C188414504D222
:10131000BDE8F05F24A000F031BFB088410700D0E5
:10132000012101EBD000203AF18850434843316855
:101330004FF0800A0F1800252FE0002424E000BFA2
:10134000BBF1FF0F3A7804F007012AFA01F002EA34
:10135000000201D00AB908E082B108EB050081B2B1
:1013600009EB040080B20B9A06E008EB050081B29D
:1013700009EB040080B25A4600F0F0FCE04340075D
:1013800000D17F1C641CA4B2B088A042D8D83079A8
:10139000400700D07F1C6D1CADB2F088A842CCD8AD
:1013A000BDE8F09F4400002044656275673A205014
:1013B00061696E745F447261774368617220496E3F
:1013C0007075742065786365656473207468652042
:1013D0006E6F726D616C20646973706C61792072DC
:1013E000616E67650D0A00002DE9FF4F8046834856
:1013F00085B00F4684881299444502D3C088B8420C
:1014000005D809B07E48BDE8F04F00F0B7BE032014
:101410000024A0EB420015B20FFA80FA01297AD01D
:10142000E9E0264661E000BF4FF0010908EB040047
:1014300007EB060B02901FFA8BF1CDF8009080B2FB
:101440004B46089A00F0CEF9A8EB040004901FFA6E
:101450008BF1CDF8009080B20123089A00F0C2F918
:101460003819CDE9009081B2A8EB060B1FFA8BF07A
:101470000123089A00F0B6F9381B039081B2CDF829
:1014800000901FFA8BF00123089A00F0ABF9049842
:10149000A7EB060B1FFA8BF1CDF8009080B2012369
:1014A000089A00F09FF902981FFA8BF1CDF800908E
:1014B00080B20123089A00F095F9039808EB060B17
:1014C00081B2CDF800901FFA8BF00123089A00F04A
:1014D00089F90198CDF8009081B21FFA8BF00123B1
:1014E000089A00F07FF9761C36B2AE429CDDBAF164
:1014F000000F06DA0AEB8400801D0FFA80FA08E07C
:1015000009E0611B0AEB81000A306D1E0FFA80FAB8
:101510002DB2641C24B2AC4283DD09B0BDE8F08F6B
:1015200008EB0400012607EB050902901FFA89F178
:10153000009680B2139B089A00F054F9A8EB0400BF
:1015400003901FFA89F1009680B2139B089A00F06D
:1015500049F93819CDE9006081B2A8EB05091FFAF5
:1015600089F0139B089A00F03DF9A7EB040B1FFAD2
:101570008BF11FFA89F00096139B089A00F032F95C
:101580000398A7EB05091FFA89F1009680B2139B17
:10159000089A00F027F902981FFA89F1009680B2A4
:1015A000139B089A00F01EF908EB05091FFA8BF14E
:1015B0001FFA89F00096139B089A00F013F901981E
:1015C000009681B21FFA89F0139B089A00F00AF97D
:1015D000BAF1000F05DA0AEB8400801D0FFA80FAD9
:1015E00007E0611B0AEB81000A306D1E0FFA80FADA
:1015F0002DB2641C24B2AC4292DD8EE74400002080
:10160000606900082DE9FE4F1D46304B16469A884A
:10161000824206D3DB888B4203D3B24201D3AB4272
:1016200004D2BDE8FE4F2AA000F0A8BD83468A463A
:10163000321A00D5821B91466A1A002A00DD4A1B25
:1016400090464FF0FF32B34501D2012000E0104632
:101650000290AA4500D2012209EB0804002701925A
:101660007F1C0D98FFB2012805D10320B7FBF0F1D4
:1016700000FB1170F0B101200090514658460E9BBE
:101680000C9A00F0AFF800BFB8EB440F06DCB3458E
:101690001AD00298444458441FFA80FBB9EB440F17
:1016A000DEDBAA4510D001994C440AEB01001FFA79
:1016B00080FAD5E701200090FF22514658460E9B44
:1016C00000F090F80027DFE7BDE8FE8F440000201F
:1016D00044656275673A205061696E745F44726157
:1016E000774C696E6520496E707574206578636506
:1016F00065647320746865206E6F726D616C206420
:101700006973706C61792072616E67650D0A000003
:101710002DE9FF4FADF5037D8846DDE990BA81469E
:1017200000244FF4807715462646394642A8FEF736
:1017300022FD394602A8FEF71EFD194842AA8388F9
:101740004B4503D3C38802A8434512D215A000F02D
:1017500015FD0DF5077DBDE8F08F00BF95FBF1F39A
:1017600001FB135395FBF1F530330355641C24B290
:1017700000E00A21002DF1D11146002C08DD0319EB
:1017800013F8013C8B55761C641E36B224B2F4E784
:10179000CDE900BA41464846869B00F0CBF9D8E730
:1017A0004400002044656275673A205061696E7498
:1017B0005F4469734E756D20496E7075742065784D
:1017C000636565647320746865206E6F726D616C0B
:1017D00020646973706C61792072616E67650D0AAF
:1017E000000000002DE9F05F814626481C4688462F
:1017F00083880A9993464B4502D3C288424504D256
:10180000BDE8F05F20A000F0B9BC012901D000269E
:1018100034E00025681E00EB440718E009EB0500E2
:101820000026A0EB040A0EE0BAF1000F0DD408EB7D
:101830000600001B09D481B21FFA8AF05A4600F054
:101840008DFA761C36B2B742EEDC6D1C2DB2AF427B
:10185000E4DCBDE8F09F002509EB06077F1E09E0E8
:1018600008EB0500401E81B2B8B25A4600F076FA85
:101870006D1C2DB2A542F3DB761C36B2A642EADB24
:10188000E7E700004400002044656275673A205095
:1018900061696E745F44726177506F696E7420493C
:1018A0006E7075742065786365656473207468650F
:1018B000206E6F726D616C20646973706C61792049
:1018C00072616E67650D0A002DE9FE4F824627485A
:1018D00091460C46DDE90D2581880C9E1F46514539
:1018E00006D3C088A04203D3494501D3B84204D2ED
:1018F000BDE8FE4F1EA000F041BC002080465AB952
:101900000EE00096CDE9018523464A461946504629
:10191000FFF778FE641CA4B2BC42F2D3BDE8FE8F90
:101920000096CDE9018523464A4619465046FFF701
:1019300069FE0096CDE9018552463B462146104698
:10194000FFF760FE0096CDE901854A4623463946F9
:101950001046FFF757FE0096CDE901853B465246FB
:1019600019464846FFF74EFED8E700004400002025
:1019700044656275673A20496E70757420657863B6
:101980006565647320746865206E6F726D616C208C
:10199000646973706C61792072616E67650D0A000D
:1019A0002DE9F05F1D46904606468A46DDF828B0D0
:1019B000B6E07F294FF0000054D8AA884CE05323AA
:1019C0002C68434314F813308B4244D153214843CD
:1019D000022101EB400004EB0009002737E000245E
:1019E0002CE000BF4FEAE47004EB507020F00700D9
:1019F000A4EB0002BBF1FF0F99F800104FF080003C
:101A000020FA02F001EA000101D009B907E071B142
:101A10000AEB070081B2301980B20B9A05E00AEB9D
:101A2000070081B2301980B25A4600F097F9404859
:101A30002040072801D109F10109641C2889A0422E
:101A4000D0DC287A400701D009F101097F1C6889A0
:101A5000B842C4DC02E0401C8242B0DC08F101085C
:101A6000E8885CE00127AB8854E053222C684243AD
:101A700014F812C08C454CD107EB4202A45C98F8D4
:101A80000120944245D1532250430222296802EB9F
:101A9000400001EB0009002737E000242CE000BFE4
:101AA0004FEAE47004EB507020F00700A4EB000252
:101AB000BBF1FF0F99F800104FF0800020FA02F000
:101AC00001EA000101D009B907E071B10AEB070092
:101AD00081B2301980B20B9A05E00AEB070081B29F
:101AE000301980B25A4600F039F9114820400728D1
:101AF00001D109F10109641C2889A042D0DC287AAF
:101B0000400701D009F101097F1C6889B842C4DC93
:101B100002E0401C8342A8DC288908F10208064440
:101B200098F8001000297FF444AFBDE8F09F000052
:101B3000070000802DE9FC5F80461B4889460D4662
:101B400081884446DDF834B01E461746A14203D3CF
:101B5000C1888246A94222D2BDE8FC5F134800F04A
:101B60000DBBB088BAF804300119994203D9F18845
:101B7000444629448DB2F188BAF8060029448142CE
:101B800001D944464D460C99CDE9001B3346294600
:101B90002046FFF7AFFBB0887F1C204484B23A7820
:101BA000002ADED1BDE8FC9F440000201C6900082B
:101BB0002DE9FF4F85B046A117468046DDE9126545
:101BC00007C902AB4FF00A0983E807003979089882
:101BD000B1FBF9F19A4684881AF80120CDE9006535
:101BE0004046089B0699FFF785FB397908EB040B03
:101BF000B1FBF9F209FB12111FFA8BF01AF8012060
:101C0000CDE90065089B0699FFF774FBCDE90065F7
:101C10000BEB940000EB540080B23A22089B06992B
:101C2000FFF768FB797908EB4400B1FBF9F100EBB1
:101C300054001AF80120CDE9006580B2089B06998E
:101C4000FFF758FB797904EB440BB1FBF9F209FB80
:101C500012110BEB08001AF80120CDE9006500EB2A
:101C6000540080B2089B0699FFF744FB08EB840000
:101C7000CDE9006500EB5400A0EB940080B23A225D
:101C8000089B0699FFF736FBB979089BB1FBF9F180
:101C90001AF8012004EB8401CDE9006501EB08008E
:101CA00080B20699FFF726FBBA7908EB4B00B2FB2E
:101CB000F9F109FB112180B21AF80120CDE9006584
:101CC000089B0699FFF716FB09B0BDE8F08F0000EE
:101CD0003031323334353637383900002DE9F041B0
:101CE000114C0E460699206026816281A1811F4613
:101CF00015464FF0000870074FEAD60100D0491C86
:101D00006182A5822A4609A000F038FAE781A4F88A
:101D100010802FB1B42F03D0A580E680BDE8F081FC
:101D2000A680E580FAE7000044000020576964744B
:101D30006842797465203D2025642C2048656967D8
:101D4000687442797465203D2025640D0A00000006
:101D5000014908607047000044000020F0B4284C9E
:101D6000A388834234D3E3888B4231D32346E78967
:101D70001E895D89CFB15A2F1AD0B42F1CD0B7F568
:101D8000877F38D10B46281A401E80B2218AD9B1EC
:101D9000012916D0022904D003292CD1F11A491E99
:101DA0008BB2281A401E80B20EE003460846EDE7CB
:101DB000711A491E8BB2E9E7301A401E83B2681AC5
:101DC000E2E7F11A491E8BB29E4201D3854203D24B
:101DD000F0BC0CA000F0D2B9618A414301EBD305FD
:101DE00021688020002A4C5D03F0070220FA02F0EF
:101DF00003D020434855F0BC704784434C55FAE764
:101E00004400002044656275673A20457863656543
:101E100064696E6720646973706C617920626F75A4
:101E20006E6461726965730D0A000000704738B511
:101E30000B46009204460022802100F008F800289A
:101E400004D0606D40F020006065032038BD2DE9AE
:101E5000F0411D4617460E460446DDF8188035E071
:101E6000681C33D02DB1FEF737FCA0EB0800A84268
:101E70002CD32068416821F0E00141606068B0F532
:101E8000827F0BD1A068B0F5004F02D0B0F5806F13
:101E900004D12068016821F040010160A06AB0F51A
:101EA000005F0AD1206801684DF6FF7211400160A1
:101EB0002068016841F400510160012084F851005C
:101EC000002084F850000320BDE8F081206880687D
:101ED00036EA000004D00020B842C1D10020F3E768
:101EE0000120F9E7704710B5FEF7FCFBBDE8104094
:101EF000FFF765B830B58FB001210804CDE90010B7
:101F00000024029402250491CDE907504FF4E0101B
:101F100009906846FEF798FD00B1FEE70F20CDE975
:101F20000A054FF48060CDE90C4002210AA80E9406
:101F3000FEF784FC00B1FEE7FEF72AFD4FF47A714C
:101F4000B0FBF1F0FFF727F80420FFF717F80022A5
:101F50001146501EFEF740FC0FB030BD0D48016821
:101F600041F00101016041680B4A11404160016884
:101F70000A4A11400160016821F480210160416832
:101F800021F4FE0141604FF41F0181600449C00348
:101F900008607047001002400000FFF8FFFFF6FEE7
:101FA00008ED00E02DE9F041044600680169E268AF
:101FB00021F44051114301612169A068084361691E
:101FC00008432168CA6841F20C639A430243CA601D
:101FD00020684169A26921F44071114341614C4973
:101FE00020686425322688423CD1FEF7E7FC00EBEE
:101FF000C00101EB001061688900B0FBF1F7FEF74A
:10200000DDFC00EBC00101EB00106168B046890007
:10201000B0FBF1F0B0FBF5F06FF01801484307EBAF
:10202000800106EB0110B0FBF5F000F0F006FEF7C2
:10203000C5FC00EBC00101EB001061688900B0FB3A
:10204000F1F0B0FBF5F006EB0016FEF7B7FC00EB85
:10205000C00101EB001061688900B0FBF1F7FEF7E9
:10206000ADFC3BE0FEF79AFC00EBC00101EB001079
:1020700061688900B0FBF1F7FEF790FC00EBC0014E
:1020800001EB00106168B0468900B0FBF1F0B0FBD5
:10209000F5F06FF01801484307EB800106EB0110E3
:1020A000B0FBF5F000F0F006FEF778FC00EBC001A5
:1020B00001EB001061688900B0FBF1F0B0FBF5F0B6
:1020C00006EB0016FEF76AFC00EBC00101EB001006
:1020D00061688900B0FBF1F7FEF760FC00EBC0011E
:1020E00001EB001061688900B0FBF1F0B0FBF5F086
:1020F0006FF01801484307EB800108EB0110B0FBBB
:10210000F5F0216800F00F0030448860BDE8F081F0
:10211000003801402DE9F041984617460E46044626
:10212000069D1DE0681C1BD02DB1FEF7D5FAA0EB73
:102130000800A84214D92068C16821F4D071C16098
:102140002068416921F001014161202084F83900B3
:1021500084F83A00002084F838000320BDE8F081BC
:102160002068006836EA000004D00020B842D9D0C8
:102170000020F3E70120F9E7FEE7FEE70FB4054B87
:1021800010B503A9044A029800F018F810BC5DF8D5
:1021900014FB0000752300083800002002E008C886
:1021A000121F08C1002AFAD170477047002001E0D1
:1021B00001C1121F002AFBD1704700002DE9FF4F1B
:1021C0008BB09A460F460546002606E025280BD020
:1021D00052460D9990476D1C761C28780028F5D141
:1021E0000FB03046BDE8F08F0024A04601226049C0
:1021F00000E0044315F8013F203B02FA03F00842D7
:10220000F7D128782E2817D115F8010F44F00404CF
:102210002A280ED06FF02F022878A0F1300109296A
:102220000AD808EB880102EB410100EB01086D1CA4
:10223000F2E757F8048B6D1C287869283ED006DC3D
:102240000028CDD063280BD0642804D136E0732851
:1022500010D075284BD052460D999047761C85E0DA
:1022600017F8040B8DF8000000208DF80100E946F6
:10227000012003E057F8049B4FF0FF3061074FF057
:10228000000401D40AE0641C44450DDA8442FADB00
:1022900019F804100029F6D106E0641C8442FCDB26
:1022A00019F804100029F8D1264404E019F8010BAC
:1022B00052460D999047641EF8D257E001CF4FF077
:1022C0000A0B002802DA40422D2102E0210504D544
:1022D0002B218DF82410012103E0E10705D02021F6
:1022E000F7E70DF1200908910CE00021F9E701CF93
:1022F0004FF00A0BF9E75946FDF748FF01F13002AC
:1023000009F8012D0028F6D1ADEB090000F1200BF2
:10231000600701D44FF00108D84502DDA8EB0B009F
:1023200000E000208046002406E009A85246005D37
:102330000D999047641C761C08988442F5DB04E0F4
:10234000302052460D999047761CB8F10001A8F153
:102350000108F5DC05E019F8010B52460D9990478C
:10236000761CBBF10001ABF1010BF4DC6D1C34E712
:102370000928010013B54FF6FF7301226946024890
:10238000FEF77EFE00981CBDB40000202DE9F04150
:1023900086B0FEF7AFF9FFF7ADFDFEF7CFFEFEF713
:1023A00025FFFEF7F5FE92A0FFF7E8FE9648FDF741
:1023B00071FF10B195A0FFF7E1FEFDF71EFF4FF48E
:1023C000FA773846FEF778F8F80000F06FF95FEA20
:1023D00000087DD093A0FFF7D1FEFF265A23FA22F2
:1023E0007A2140460096FFF779FC4046FFF7B0FCA3
:1023F000FF20FEF733FF90A0FFF7C0FE4046FFF737
:10240000A7FCFF20FEF72AFF9148FEF75BFF40463E
:10241000FDF716FFB800FEF74FF84046FFF798FCAF
:10242000FF20FEF71BFF0124234600220A2105207E
:102430000094FFF7D7F90223002219210520009408
:10244000FFF7D0F903230022282105200094FFF78D
:10245000C9F904230022372105200094FFF7C2F9AF
:1024600000250095CDE901543C2346220A21142081
:10247000FFF7C8F80095CDE901543C2314220A2146
:102480004620FFF7BFF80095CDE901543C234622D2
:102490000A211420FFF718FACDE900543C238722C3
:1024A0000A2155200294FFF70FFACDE900542D229E
:1024B00037230F2110460294FFF7A4F8CDE900540A
:1024C00023234622194619200294FFF79BF800E0C7
:1024D0004FE0CDE900540023142223212D20FEF7E4
:1024E00083FF0094FF23142223216E200194FEF722
:1024F0007BFFCDE90056574B57A20F218C20FFF7E9
:1025000019FBCDE90056534B564A28218C20FFF782
:10251000FFF8CDE90056544B54A23C218C20FFF724
:102520003FFACDE90065534B53A241210520FFF747
:1025300037FA4046FDF784FE5248FDF7ABFE10B176
:1025400032A0FFF71BFE4046FFF702FC0C208DF87F
:10255000100022208DF8110038204B4C8DF812000D
:102560009DF81200401CC0B28DF812003C2808D023
:1025700021E046A0FFF702FE06B04FF0FF30BDE8B5
:10258000F0819DF81100401CC0B28DF811008DF84B
:1025900012503C280FD19DF81000401CC0B28DF89D
:1025A00010008DF81150182805D18DF810508DF8B5
:1025B00011508DF812500096E0885A215A3083B29B
:1025C000A088C0EBC0008C3082B28C20FEF760FE89
:1025D000CDE900652C4B03AA5A218C20FFF7E8FABD
:1025E0004046FDF72DFE3846FDF766FFB8E70000D0
:1025F000322E3133696E636820652D5061706572CB
:102600002064656D6F0D0A00B8360008652D5061B5
:1026100070657220696E6974206661696C65640D0D
:102620000A0000005061696E745F4E6577496D6104
:1026300067650D0A0000000073686F7720696D619F
:10264000676520666F722061727261790D0A000001
:10265000182700080C0000207761766573686172A6
:102660006500000015CD5B0700000020C4E3BAC37D
:10267000616263001C000020CEA2D1A9B5E7D7D3C8
:1026800000000000D6360008140000204661696C86
:10269000656420746F206170706C7920666F7220A1
:1026A0006D656D6F72792E2E2E0D0A00F0B50B3010
:1026B000154D20F007010024144A0FE003688B42F7
:1026C0000BD38B4205D95E1A43184768C3E90067EC
:1026D00000E04368136002C004E0021D1068002897
:1026E000ECD12046002802D1286808B10020F0BDB6
:1026F000064A07481060074A121A22F00702C0E98A
:10270000002401202860D7E7400000203C00002082
:10271000FC000020F89000200000000000000000F5
:1027200000000000000000000000000000000000A9
:102730000000000000000000000000000000000099
:102740000000000000000000000000000000000089
:102750000000000038000000000000000000000041
:10276000000F0000780000000000000000000000E2
:10277000001F8000F80000000000000000000000C2
:1027800000FFC003F800000000000001000000008E
:1027900001FFE01FF800000000000000C000000082
:1027A00003FF701FF0000000000000007E0000002A
:1027B00003FF783800000000000000003F00000028
:1027C00003FFF8F000000000000000000FC0000050
:1027D00003F0F8C1F80000000000000003F0000062
:1027E00003F3F38FFE0000000000000001F800007A
:1027F00003FFF3BFFFC0000000030000003E000025
:1028000003FFFA7FFFF00000000F0000003FE00030
:1028100000E7FBFFFFF0000000070000003FF000B2
:1028200000E7FBFFFFE0000000030000001FFC00CA
:1028300000FFFBFFFFE0000000030000000FFE00B0
:10284000007FFBCFFFE00000000300000003FE005C
:10285000003FF9CFFFE00000000300000001FF800F
:10286000000FF1FFFFE00000000300000000FFC0C8
:1028700000003DEFFFE000000003000000007FE0EB
:102880000003FFF7FFC000000003000000003FE06E
:10289000003FFFFFFF8000000003000000001FE07A
:1028A000007EFFFFFF0000000003000000000FE0BB
:1028B000003EFFF1FF0000000003000000000FE0F9
:1028C000003FFFBFFC00000000030000000007F015
:1028D000003E7F3FF838000000030000000007F0D2
:1028E000007E7FC0007C000000030000000007F0B5
:1028F000007E3FC001FE000000030000000007F062
:10290000007F1FDFFFFF000000030000000003F056
:10291000007F87EFFFFF800000030000000003F04E
:10292000007FE3F1FFFF000000030000000003F060
:102930000187FC78FE00000000030000000003F0A7
:102940000301F8FF0000000000030000000003F096
:102950000E0001FF8000000000030000000003F0F3
:102960000C0003FF8000000000030000000003F0E3
:102970001C000F980000000000030000000003F09E
:1029800038007F9C0000000000030000000003F0FE
:1029900030003FDC000000000003000007FE07E0FD
:1029A00030001FFE00000000000300000FFF87F052
:1029B00070001FFC00000000000300001FFFC7F0B4
:1029C00000000FFE00000000000300003FFFE7E0F2
:1029D00000000FF000000000000300007FFFF3E0A4
:1029E0007FFFEFE00000000000030000FF9FFBCF2F
:1029F000FFFFC6180000000000030003FFCFF9DF4F
:102A0000FFFFC008000000000003000EFFDFFDFF15
:102A1000FFFE000000000000000301F0FFFFFDFFCB
:102A2000FE00000000000000000303F8FFFFFDFFB0
:102A3000FC00000000000000000307FCFFDFFDFFBA
:102A4000F80000000000000000030FFEC7DFFDFFDC
:102A5000800000000000000000033E7FF7DFFFFE63
:102A6000300000000000000000033E7FF7DFCFF0E1
:102A7000380006000000000000037E7FFFFF9FE09B
:102A800038001FC00000000000037F1FFFFE3E0053
:102A90003C003BE00000000000037F8FFFFE7C0055
:102AA0003C003BE00000000000037F87FE3FF80091
:102AB0003C007FF00000000000037FA1F81FFC0035
:102AC0001C007CF00000000000033FFFF00FFC0042
:102AD0000C007E7C0000000000033FFFF00FFE00B2
:102AE0000C007F3C0000000000031FFFF00FFF0000
:102AF0000C003F800000000000030FFFF00E7F80FD
:102B00000C003FC000000000000307FFF80E3FC0AC
:102B10000C001FF000000000000303FFF81E1FE080
:102B20000C000FF0000000000003003FFE3F87E0B4
:102B30003C000FBE0000000000030047FFFFF060F4
:102B40003C000FBF0000000000030031FFFFF8E071
:102B500038000FBF8000000000030611FFFDFFE0FA
:102B600038000F1F8000000000030E13FFF9FFE084
:102B700030000E078000000000033CD7FDFDFFE0A1
:102B800030001CC780000000000339EFFBFFFFE0AE
:102B900030003DFF80000000000373EFFBFFFFE00B
:102BA00060003DFF80000000000367EFFBFFFFC0F7
:102BB000C0003FFF8000000000038FF7E3FFFF80AD
:102BC000E0001BFF8000000000039FF3E1FFE00135
:102BD000C0003BFFC000000000033FF1F9FFC0034D
:102BE00080007FFFE000000000037FF1FDFF800711
:102BF00000001FFFF80000000003FFF1FFFF800F3F
:102C000000003FFFFC0000000003FFE0FFFF000E9C
:102C100000003FFF9C0000000003FF800FFF000644
:102C2000000003F67C0000000003FF001F7C00F89A
:102C3000000009F03C0000000003FE003F3801FCEA
:102C400000001CF81C0000000003FC00FF9003FEC5
:102C500000003DFF9C0000000003F800FFC00FFFD4
:102C6000000073FFCC0000000003F000FFE00FFF46
:102C7000000061FFFC6000000003F001FFF01FFF97
:102C80000000C0FFFFF000000007E001FFBFFFFFF2
:102C90008000E0007FF000000003C001FF3FFFFF65
:102CA0008000C0003FF8000000018001FE7FFFFFB0
:102CB000800080001FFC000000070000FE7FFFFF77
:102CC000800080000CFC000000030000F07FFFFF8C
:102CD00000008000047C0000000300007E3FFFFC39
:102CE0000001800003FC0000000300007E3FFFFEA7
:102CF0000001800001F00000000300003FDFBFFF83
:102D00008001800000000000000300003FCFBFFFF3
:102D1000C001000000000000000300007FCFFFFFA3
:102D2000E00100000000000000030000FFCFCFFF23
:102D3000C0018000000000000003001EFFEFC7FF7D
:102D4000C001000000000000000301FCFFE7F07F6D
:102D50008003000000000000000707C0FFF3F8FF39
:102D6000000F00000000000000030F807FF3F9FE59
:102D7000000E00000000000000011F003FF3FBFEFA
:102D8000000C0000000000000001380003F9FBF314
:102D9000E0180000000000000001F0003CF9FBEF2B
:102DA000F0300000000000000001C0007DF9FBCF02
:102DB000F07000001800000000018000FFF8FBCF59
:102DC000FCC00003F800000000018000FFFCFBFFD6
:102DD000FC000007F800000000018000FFDEFBFFA0
:102DE0007C00003FFC00000000010000FFDEF3FF5C
:102DF0003C00007FFE00000000010000FFC2F3FF66
:102E00001C0000FFFE00000000010000FBE3FFFFCC
:102E10003C0000FFFF00000000010000F9EFFFFE92
:102E20003C0000FFFF00000000010000FCFFFFF974
:102E3000FC0000DC7F00000000010001FE7FFFE3DA
:102E4000FE0000FFBF00000000010001FE3FFFC7C1
:102E5000FE0000FF9F00000000010003FF3FFFCFC6
:102E6000FF0000FFBF000000000100FFFFCFFFFFD9
:102E7000FF8000FFFE00000000010FE07FFF87FFE2
:102E8000FF8000FFC000000000011F803FFF03FF24
:102E9000CE0000FF000000000001F0000FFE01FC6A
:102EA0001E0000F0000000000001E07FC7FC01FCF4
:102EB0003E0000C1FFE000000001C1FFF7F801FF84
:102EC000FC00018DFFF00000000187FFFBFC01FF0B
:102ED000F8000F1EFFF8000000013F8003FC01FF17
:102EE000F0000E7E7FFE00000001F80007FE01FFEB
:102EF000E2001E7F3FFC00000001E0FF9FDF03FFB8
:102F0000C6601CFF8FFE000000018FC0FF3FC7EFAF
:102F1000E3783E1FCFFF00000001DF80FE7FEFE778
:102F2000F1BC7F0FCFFFC0000001FC00FDFFFFE3FD
:102F3000F19E3FC3E7FF00000001F801F1F9FFF146
:102F4000FDCF9FE1FFFF000000018001F3F1FFF9D9
:102F5000FDC19FF8FFE0000000010001FFE3FDFE5E
:102F6000FFC03FF00003800000010000FFE3FDFF11
:102F70007FC07FC00007800000010000FFE7FCFF6A
:102F80000780FFCFFFFF000000010000FFEFCE7FB2
:102F900007007E7FFFFE000000011FFEFFFFCE7FC7
:102FA0003E003E7FFFFC00000001FFFFFFF1CE3F2F
:102FB0003E003FFC07F800000001FFFF3FE18E3FAD
:102FC0003E001FFC07F000000001E0000E038E3FF2
:102FD0003E000FFFF80000000001FFFF87FF8E3F5B
:102FE0001E0004FE3E0000000001FFFFC7FF8F3FF0
:102FF000BE0000FE1E0000000001FFFFC7FF8F9F04
:10300000FE0000FC3F800000000187FF8FFF8F9FC4
:10301000FE000079FFC00000000100063FFF8FDFC7
:10302000FE00007FFFC00000000100007FFF8F8FC7
:10303000FC00001FFFE0000000018000FFFF8F1F69
:103040000000000FFFF000000001C001FFFF8E3FF5
:1030500081000001FFE000000001E001FFFF8E7F22
:10306000C3800000FF8000000001F800FFF38E7FA6
:10307000E7C000007F0000000001FF80FFE78FFF36
:10308000C4E0000000000000000187E1FFDF8FFFC7
:10309000CE1C0000000000000001F1F8FFFF8FFFD0
:1030A000CFCF0000000000000001FE1CFFBE43E087
:1030B0001FF38000000000000001FF067F3E63C197
:1030C0003FF1E000000000000001FF833E3CF3817F
:1030D0001FF8F000000000000001FFE18039FF0050
:1030E00007FE7800000000000001FFFE601FFE1CCC
:1030F00003FF1C000000000000010FFF3C1FFE60EA
:1031000001FF8E0000000000000101FF9E0FFFC0C4
:10311000003FC300000000000001007FC38FFD805E
:10312000003FE380000000000001003FE1C7FC0019
:10313000003FF1C0000000000001001FF1E3F800B3
:103140000007F060000000000001800FF1E1F000D6
:103150000003F8300000000000018001F83000009A
:103160000001FC3C0000000000018000F818000095
:103170000000FC0E0000000000018000FC0C0000BC
:103180000000FE0F00000000000180007C0C000029
:1031900000007E0780000000000180007C06000027
:1031A00000003F0380000000000180007E06000058
:1031B00000001F8180000000000180001E0300004D
:1031C00000000F80C0000000000180000E01000020
:1031D0000000078060000000000180000F018000F7
:1031E000000003C030000000000180000781C00023
:1031F000000001C038000000000180000781C0000D
:10320000000000C0180000000001800007C0E000BE
:1032100000000040080000000001800003C0F00032
:1032200000000000040000000001800003C07000E6
:1032300000000000060000000001800001C07000D6
:10324000F8000000020000000001800003C0300010
:10325000FFF00000070000000001800003C0300103
:10326000FFF80000038000000001800001C0300171
:10327000FFFC0000038000000001800001C0180175
:10328000FFFE0000038000000001800001C0080074
:10329000FFFF000001C000000001800001C0080025
:1032A00067FF000001C000000001800001C00800AD
:1032B000FFFF000000C00000000180000180080343
:1032C000FFBF8000004000000001800000000807F0
:1032D000FF3F800000400000000180000000080364
:1032E000FFBFC00000400000000180000000080394
:1032F000FF3FC00000400000000180000000080304
:10330000F01FC00000400000000180000000080322
:10331000FFCFF00000400000000180000000080125
:10332000FFE7FC0000C00000000180000000080171
:10333000FFF3FFF001C00000000180000000080161
:10334000FFF8FFF801800000000180000000080085
:103350007FFC7FFF03800000000180000000080068
:103360001FFF007F83800000000180000000080034
:103370003FFF801FC78000000001800000000800A0
:103380003FFFFFFFC30000000001800000000800B5
:103390003FFFFFFFC40000000001800000000800A4
:1033A0003FFFFFFFC4000000000180000000180084
:1033B0001FFFFFFFC4000000000180000000380074
:1033C0000FFFFFFFC0000000000180000000780038
:1033D00003FFFFFFC0000000000180000000F800B4
:1033E000007FFFFFFC000000000180000001F800EA
:1033F000003FFFFFFC0000000001800000003800DB
:10340000003FFFF9FC0000000001800000001800F0
:10341000003FFFF3FC0000000001800000000800F6
:10342000003FFFE7FC0000000001800000000800F2
:10343000003CFC1FF80000000001800000008C0030
:10344000007E007F980000000001800000798C0061
:1034500007FF0FFF9C0000000001800000FCC60079
:103460000FFF7FFF780000000001800001F8460098
:103470000FFF7FFE780000000001800003FC0700C2
:103480000FFF7FFE780000000000800007FE07C0ED
:103490000FFF7FFE600000000000800007F9E7E0FA
:1034A00007FF7FF8C00000000000800003E3F3F096
:1034B00003FFFFF1C0000000000080007FC3F3386D
:1034C00001FFFFF18000000000008000FFDFF31C1F
:1034D000007FFFE38000000000008000FF9FF38E6C
:1034E000003FFFE78000000000008000FE33FBCFBC
:1034F000001FFFCF0000000000008001FE3FF1CF61
:10350000000FFFCF00000000000080000C7FCDE323
:10351000800FFFDF000000000000800101FC8E7FB3
:10352000800FFF9F000000000000800FF9FC1E3F8D
:10353000800FF3BF000000000000800FFDFC3E3F45
:10354000800FE1BF000000000000800FFCFC3F3F47
:10355000800FC13F000000000000801FE5F83B9F86
:10356000800FC23F800000000000801FCFF033DFDB
:10357000C0039C0F80000000000080000E0039D9BD
:10358000C0003863C00000000000800FFE000FEE96
:10359000F000FFF3F00000000000801FFE0007EEC7
:1035A0007801FFFFF00000000000001FFE0007EEA2
:1035B0003C01FFFFF00000000000001FFE0007EFCD
:1035C0003C01FFFFF00000000000001F7C0000EF46
:1035D000FC01FFFFF00000000000001E1C00006F57
:1035E000FC01FFFFC00000000000000000000033ED
:1035F000FE00FFFFC000000000000000000000030C
:10360000FE00FFFF80000000000000000000000737
:10361000FE003FFF800000000000000000000007E7
:10362000FE001FFF800000000000000000000003FB
:10363000FC0003FF8000000000000000000000010B
:10364000FE0003FF800000000000000000000000FA
:103650007E0003FF8000000000000000000000006A
:10366000000003FF00000000000000000000000058
:10367000000001FE0000000000000000000000004B
:1036800000000078000000000000000000000000C2
:1036900000000030000000000000000000000000FA
:1036A000000000000000000000000000000000001A
:1036B00000000000000000002255AA55AA55AA11DA
:1036C00000000000000000001E1E1E1E1E1E1E1E0A
:1036D00001000000000018000000000000000000D1
:1036E0000000000000000F010000000000000000CA
:1036F00000000000C4E300000000000000001DC046
:103700001D803BFF3B073F777E76F870FBFEFBFE9C
:103710003F773F773E73387038703BE00000000021
:103720000000000000000000000000000000000099
:103730000000000000000000000000000000000089
:103740000000000000000000000000000000000079
:103750000000000000000000000000000000000069
:103760000000000000000000000000000000000059
:103770000000000000000000000000000000000049
:103780000000000000000000000000000000000039
:1037900000000000000000000000BAC300000000AC
:1037A00000000000300073FF700FFE1E7E3C6E387C
:1037B000EE30EFFFFC307C3038303E307E30E03091
:1037C000C1F0000000000000000000000000000048
:1037D00000000000000000000000000000000000E9
:1037E00000000000000000000000000000000000D9
:1037F00000000000000000000000000000000000C9
:1038000000000000000000000000000000000000B8
:1038100000000000000000000000000000000000A8
:103820000000000000000000000000000000000098
:103830000000000000000000000000000000000088
:10384000CAF70000000000000000300E300E3FEE0E
:1038500030EEFCFF76CE77FE7BFEFFFEF3DEF3CE8E
:1038600037EE3E6E3C0E303E0000000000000000CF
:103870000000000000000000000000000000000048
:103880000000000000000000000000000000000038
:103890000000000000000000000000000000000028
:1038A0000000000000000000000000000000000018
:1038B0000000000000000000000000000000000008
:1038C00000000000000000000000000000000000F8
:1038D00000000000000000000000000000000000E8
:1038E000000000000000DDAE00000000000000004D
:1038F0000670FFFF3E7038007FFFE000FFFC3B8C4E
:1039000039CCFFFF739C71DC7FFF001C01F80000C5
:1039100000000000000000000000000000000000A7
:103920000000000000000000000000000000000097
:103930000000000000000000000000000000000087
:103940000000000000000000000000000000000077
:103950000000000000000000000000000000000067
:103960000000000000000000000000000000000057
:103970000000000000000000000000000000000047
:10398000000000000000000000000000C5C90000A9
:10399000000000000000E01FFFF03E000E1FCFFB04
:1039A000FFF83FFF0FFF7FD87FDC6FCEEDFFFDF705
:1039B000F9C000000000000000000000000000004E
:1039C00000000000000000000000000000000000F7
:1039D00000000000000000000000000000000000E7
:1039E00000000000000000000000000000000000D7
:1039F00000000000000000000000000000000000C7
:103A000000000000000000000000000000000000B6
:103A100000000000000000000000000000000000A6
:103A20000000000000000000000000000000000096
:103A30000000610000000000000000000000000025
:103A4000000000003E00670007800F807F80E38059
:103A5000E780E7807F800000000000000000000099
:103A60000000000000000000000000000000000056
:103A70000000000000000000000000000000000046
:103A80000000000000000000000000000000000036
:103A90000000000000000000000000000000000026
:103AA0000000000000000000000000000000000016
:103AB0000000000000000000000000000000000006
:103AC00000000000000000000000000000000000F6
:103AD0000000000000000000620000000000000084
:103AE000000070007000700070007F007B8071C06B
:103AF00071C071C071C071C07B807F000000000088
:103B000000000000000000000000000000000000B5
:103B100000000000000000000000000000000000A5
:103B20000000000000000000000000000000000095
:103B30000000000000000000000000000000000085
:103B40000000000000000000000000000000000075
:103B50000000000000000000000000000000000065
:103B60000000000000000000000000000000000055
:103B700000000000000000000000000000006300E2
:103B80000000000000000000000000000000000035
:103B90003F007300F000E000E000E000F000730080
:103BA0003F000000000000000000000000000000D6
:103BB0000000000000000000000000000000000005
:103BC00000000000000000000000000000000000F5
:103BD00000000000000000000000000000000000E5
:103BE00000000000000000000000000000000000D5
:103BF00000000000000000000000000000000000C5
:103C000000000000000000000000000000000000B4
:103C100000000000000000000000000000000000A4
:103C20000000000041000000000000000000000053
:103C30000E001F001F001F003B803B8071807FC073
:103C400071C0E0E0E0E0E0E0000000000000000003
:103C50000000000000000000000000000000000064
:103C60000000000000000000000000000000000054
:103C70000000000000000000000000000000000044
:103C80000000000000000000000000000000000034
:103C90000000000000000000000000000000000024
:103CA0000000000000000000000000000000000014
:103CB0000000000000000000000000000000000004
:103CC00000000000000000000000000000000000F4
:103CD00000000000000000000000000000000000E4
:103CE0000000000000000000000000000C000C00BC
:103CF0000C000C000C000C000C000C0000000C0070
:103D000000000000000000000000000000001DC0D6
:103D10001DC008800880088000000000000000002E
:103D20000000000000000000000000000D800D8079
:103D30000D800D803FC01B003FC01B001B001B00FF
:103D40001B00000000000000000004001F80318004
:103D5000318038001E000F000380318031803F0029
:103D6000040004000000000000000000180024000F
:103D7000240018C007801E003180024002400180EC
:103D800000000000000000000000000000000F0024
:103D90001800180018000C001D80370033001D802B
:103DA000000000000000000000000000000007000C
:103DB00007000200020002000000000000000000F6
:103DC00000000000000000000000000003000300ED
:103DD00006000E000C000C000C000C000E0006008B
:103DE000030003000000000000000000180018009D
:103DF0000C000600060006000600060006000C0087
:103E00001C00180000000000000000000600060072
:103E10003FC03FC00F001F8019800000000000005D
:103E20000000000000000000000000000000000092
:103E30000400040004003F800400040004000000AB
:103E40000000000000000000000000000000000072
:103E50000000000000000000000000000600040058
:103E60000C00080008000000000000000000000036
:103E70000000000000003F80000000000000000083
:103E80000000000000000000000000000000000032
:103E90000000000000000000000000000C000C000A
:103EA0000000000000000000000000C000C0018011
:103EB00001800300030006000C000C00180018002D
:103EC0003000300000000000000000000E001B0069
:103ED0003180318031803180318031801B000E0093
:103EE00000000000000000000000000006003E008E
:103EF00006000600060006000600060006003FC099
:103F00000000000000000000000000000F00198009
:103F100031803180030006000C00180030003F8023
:103F20000000000000000000000000003F00618071
:103F3000018003001F0003800180018061803F0039
:103F40000000000000000000000000000700070063
:103F50000F000B001B00130033003F8003000F8095
:103F60000000000000000000000000001F8018009A
:103F7000180018001F0011800180018021801F009F
:103F800000000000000000000000000007801C008E
:103F900018003000370039803180318019800F00DF
:103FA0000000000000000000000000007F0043004F
:103FB000030006000600060006000C000C000C00C2
:103FC0000000000000000000000000001F00318021
:103FD000318031801F0031803180318031801F007D
:103FE0000000000000000000000000001E00330080
:103FF0003180318033801D800180030007003C0048
:1040000000000000000000000000000000000000B0
:1040100000000C000C000000000000000C000C0070
:104020000000000000000000000000000000000090
:104030000000030003000000000000000600040070
:10404000080008000000000000000000000000C0A0
:10405000030004001800600018000400030000C002
:104060000000000000000000000000000000000050
:10407000000000007FC000007FC0000000000000C2
:1040800000000000000000000000000000006000D0
:1040900018000400030000C00300040018006000C2
:1040A00000000000000000000000000000001F00F1
:1040B00031803180018007000C000C0000000C00F2
:1040C0000000000000000000000000000E001100D1
:1040D00021002100270029002900270020001100CD
:1040E0000E000000000000000000000000003F0083
:1040F0000F000900198019801F8030C030C079E09E
:1041000000000000000000000000000000007F0030
:104110003180318031803F003180318031807F00BB
:1041200000000000000000000000000000001F4030
:1041300030C06040600060006000604030801F0060
:1041400000000000000000000000000000007F00F0
:10415000318030C030C030C030C030C031807F00CE
:1041600000000000000000000000000000007F8050
:104170003080308032003E003200308030807F80DE
:1041800000000000000000000000000000007FC0F0
:104190003040304032003E003200300030007C00C1
:1041A00000000000000000000000000000001E8071
:1041B000318060806000600067C0618031801F00D6
:1041C00000000000000000000000000000007BC0B4
:1041D0003180318031803F803180318031807BC0BF
:1041E00000000000000000000000000000003FC0D0
:1041F00006000600060006000600060006003FC096
:1042000000000000000000000000000000001FC0CF
:1042100003000300030003006300630063003E002B
:1042200000000000000000000000000000007BC053
:104230003180330036003C003E003300318079C0CD
:1042400000000000000000000000000000007E00F0
:1042500018001800180018001840184018407FC0B7
:104260000000000000000000000000000000E0E08E
:1042700060C071C07BC06AC06EC064C060C0FBE03B
:10428000000000000000000000000000000073C0FB
:10429000318039803D80358037803380318079802E
:1042A00000000000000000000000000000001F00EF
:1042B000318060C060C060C060C060C031801F00DD
:1042C00000000000000000000000000000007F006F
:1042D00031803180318031803F00300030007E00FD
:1042E00000000000000000000000000000001F00AF
:1042F000318060C060C060C060C060C031801F009D
:104300000CC01F80000000000000000000007F00C3
:104310003180318031803E003300318031807CE05B
:1043200000000000000000000000000000001F80EE
:104330003180318038001F000380318031803F00A0
:1043400000000000000000000000000000007F806E
:104350004C804C804C800C000C000C000C003F008A
:1043600000000000000000000000000000007BC012
:1043700031803180318031803180318031801F0047
:1043800000000000000000000000000000007BC0F2
:10439000318031801B001B001B000A000E000E0044
:1043A0000000000000000000000000000000FBE032
:1043B00060C064C06EC06EC02A803B803B8031808C
:1043C00000000000000000000000000000007BC0B2
:1043D00031801B000E000E000E001B0031807BC0E0
:1043E000000000000000000000000000000079E074
:1043F00030C019800F0006000600060006001F806E
:1044000000000000000000000000000000003F80ED
:1044100021802300060004000C00188030803F80BB
:1044200000000000000000000000000007800600FF
:10443000060006000600060006000600060006004C
:104440000600078000000000000030003000180067
:1044500018000C000C00060003000300018001801E
:1044600000C000C000000000000000001E000600A8
:10447000060006000600060006000600060006000C
:1044800006001E0000000000000004000A000A00F0
:1044900011002080208000000000000000000000CB
:1044A000000000000000000000000000000000000C
:1044B00000000000000000000000000000000000FC
:1044C0000000000000000000FFE0080004000200FF
:1044D00000000000000000000000000000000000DC
:1044E00000000000000000000000000000000000CC
:1044F00000001F00018001801F80318033801DC0BB
:10450000000000000000000000000000700030000B
:1045100030003700398030C030C030C0398077007B
:10452000000000000000000000000000000000008B
:1045300000001E80318060806000608031801F003C
:104540000000000000000000000000000380018067
:1045500001801D80338061806180618033801DC057
:10456000000000000000000000000000000000004B
:1045700000001F00318060C07FC0600030C01F801D
:1045800000000000000000000000000007E00C0038
:104590000C003F800C000C000C000C000C003F8055
:1045A000000000000000000000000000000000000B
:1045B00000001DC0338061806180618033801D8078
:1045C000018001801F00000000000000700030002A
:1045D00030003700398031803180318031807BC0BC
:1045E00000000000000000000000000006000600BF
:1045F00000001E00060006000600060006003FC080
:10460000000000000000000000000000060006009E
:1046100000003F0003000300030003000300030049
:10462000030003003E0000000000000070003000A6
:104630003000378036003C003C003600330077C045
:104640000000000000000000000000001E00060046
:1046500006000600060006000600060006003FC031
:10466000000000000000000000000000000000004A
:1046700000007F8036C036C036C036C036C076E017
:10468000000000000000000000000000000000002A
:1046900000007700398031803180318031807BC0EB
:1046A000000000000000000000000000000000000A
:1046B00000001F00318060C060C060C031801F00FA
:1046C00000000000000000000000000000000000EA
:1046D00000007700398030C030C030C039803700EA
:1046E000300030007C0000000000000000000000EE
:1046F00000001DC0338061806180618033801D8037
:104700000180018007C000000000000000000000E0
:1047100000007B801CC018001800180018007F00E3
:104720000000000000000000000000000000000089
:1047300000001F8031803C001F00038031803F005B
:104740000000000000000000000000001800180039
:1047500018007F00180018001800180018800F00BB
:104760000000000000000000000000000000000049
:1047700000007380318031803180318033801DC0F2
:104780000000000000000000000000000000000029
:1047900000007BC0318031801B001B000E000E002A
:1047A0000000000000000000000000000000000009
:1047B0000000F1E060C064C06EC03B803B8031808F
:1047C00000000000000000000000000000000000E9
:1047D00000007BC01B000E000E000E001B007BC003
:1047E00000000000000000000000000000000000C9
:1047F000000079E030C0198019800B000F0006001E
:1048000006000C003E000000000000000000000058
:1048100000003F80218003000E00180030803F80A0
:1048200000000000000000000000000006000C0076
:104830000C000C000C000C0018000C000C000C000C
:104840000C0006000000000000000000060006004A
:104850000600060006000600060006000600060028
:104860000600060000000000000000000C0006002A
:10487000060006000600060003000600060006000B
:1048800006000C0000000000000000000000000016
:104890000000000018002480030000000000000059
:1048A0000000000000000000000000000000000008
:1048B00000000000000000000000000000000000F8
:1048C00000000000000000000000000000000000E8
:1048D00000000000070007000700070007000700AE
:1048E00007000200020000000000070007000000AF
:1048F00000000000000000000000000000001CE0BC
:104900001CE01CE0084008400840000000000000D7
:104910000000000000000000000000000000000097
:1049200000000CC00CC00CC00CC00CC03FF03FF02D
:104930000CC00CC03FF03FF00CC00CC00CC00CC051
:104940000CC000000000000000000300030007E0AE
:104950000FE0186018001F000FC000E0186018601A
:104960001FC01F80030003000300000000000000C0
:10497000000000001C002200220022001C6001E058
:104980000F803C0031C002200220022001C0000044
:104990000000000000000000000000000000000017
:1049A00003E00FE00C000C0006000F301FF019E0D0
:1049B00018C01FF007B00000000000000000000059
:1049C000000000000000038003800380010001005C
:1049D00001000000000000000000000000000000D6
:1049E00000000000000000000000000000C000C047
:1049F0000180018001800300030003000300030025
:104A0000030001800180018000C000C000000000A0
:104A1000000000000C000C00060006000600030069
:104A20000300030003000300030006000600060065
:104A30000C000C0000000000000000000300030058
:104A400003001B601FE0078007800FC00CC0000040
:104A50000000000000000000000000000000000056
:104A6000000000000000000003000300030003003A
:104A70003FF03FF0030003000300030000000000CC
:104A80000000000000000000000000000000000026
:104A90000000000000000000000000000000000016
:104AA000038003000300060006000400000000006D
:104AB00000000000000000000000000000000000F6
:104AC0003FE03FE0000000000000000000000000A8
:104AD00000000000000000000000000000000000D6
:104AE00000000000000000000000000000000000C6
:104AF000038003800380000000000000000000002D
:104B000000000060006000C000C000C001800180A3
:104B100003000300060006000C000C000C00180047
:104B20001800000000000000000000000F801FC0FF
:104B300018C03060306030603060306030603060AD
:104B400018C01FC00F80000000000000000000001F
:104B50000000000003001F001F000300030003000B
:104B6000030003000300030003001FE01FE0000038
:104B70000000000000000000000000000F801FC0C7
:104B800038E03060006000C00180030006000C00C7
:104B900018003FE03FE000000000000000000000BF
:104BA000000000000F803FC030E0006000E007C060
:104BB00007C000E00060006060E07FC03F80000050
:104BC00000000000000000000000000001C003C061
:104BD00003C006C00CC00CC018C030C03FE03FE0AE
:104BE00000C003E003E0000000000000000000003F
:104BF000000000001FC01FC0180018001F801FC049
:104C000018E000600060006030E03FC01F800000DE
:104C100000000000000000000000000003E00FE0C2
:104C20001E001800380037803FC038E03060306028
:104C300018E01FC007800000000000000000000016
:104C4000000000003FE03FE03060006000C000C0B6
:104C500000C0018001800180030003000300000008
:104C60000000000000000000000000000F801FC0D6
:104C700038E0306038E01FC01FC038E0306030607E
:104C800038E01FC00F80000000000000000000009E
:104C9000000000000F001FC038C03060306038E0F6
:104CA0001FE00F6000E000C003C03F803E00000036
:104CB00000000000000000000000000000000000F4
:104CC000000000000380038003800000000000005B
:104CD000038003800380000000000000000000004B
:104CE00000000000000000000000000001C001C042
:104CF00001C0000000000000038003000600060061
:104D0000040000000000000000000000000000009F
:104D1000003000F003C007001C0078001C000700F2
:104D200003C000F0003000000000000000000000A0
:104D30000000000000000000000000007FF07FF095
:104D4000000000007FF07FF0000000000000000085
:104D50000000000000000000000000000000000053
:104D600030003C000F00038000E0007800E003808A
:104D70000F003C00300000000000000000000000B8
:104D80000000000000000F801FC018601860006065
:104D900001C00380030000000000070007000000BE
:104DA00000000000000000000000000003800C80F4
:104DB00008401040104011C012401240124011C073
:104DC00010000800084007800000000000000000FC
:104DD0000000000000001F801F80038006C006C086
:104DE0000CC00C601FE01FE030307878787800004D
:104DF00000000000000000000000000000003F80F4
:104E00003FC01860186018E01FC01FE0187018300D
:104E100018303FF03FE000000000000000000000FC
:104E200000000000000007B00FF01C7038303000A8
:104E300030003000300038301C700FE007C0000038
:104E400000000000000000000000000000007F8063
:104E50007FC030E030703030303030303030307043
:104E600030E07FC07F8000000000000000000000F4
:104E70000000000000003FF03FF0183018301980AB
:104E80001F801F801980183018303FF03FF000005D
:104E900000000000000000000000000000003FF0E3
:104EA0003FF01830183019801F801F8019801800BB
:104EB00018003F003F00000000000000000000005C
:104EC00000000000000007B01FF018703030300004
:104ED000300031F831F8303018301FF007C00000D2
:104EE00000000000000000000000000000003CF096
:104EF0003CF01860186018601FE01FE01860186030
:104F000018603CF03CF000000000000000000000D1
:104F10000000000000001FE01FE00300030003008A
:104F2000030003000300030003001FE01FE0000074
:104F3000000000000000000000000000000003F876
:104F400003F8006000600060006030603060306036
:104F500030E03FC00F8000000000000000000000B3
:104F60000000000000003EF83EF818E019801B0029
:104F70001F001D8018C018C018603E783E38000021
:104F800000000000000000000000000000003F00E2
:104F90003F000C000C000C000C000C000C300C301E
:104FA0000C303FF03FF00000000000000000000067
:104FB0000000000000007878787838703CF034B059
:104FC00037B037B03330333030307CF87CF8000005
:104FD000000000000000000000000000000039F0A8
:104FE0003DF01C601E601E601B601B6019E019E034
:104FF00018E03EE03E6000000000000000000000FD
:1050000000000000000007800FC01CE03870303046
:1050100030303030303038701CE00FC00780000076
:1050200000000000000000000000000000003FC081
:105030003FE018701830183018701FE01FC01800BB
:1050400018003F003F0000000000000000000000CA
:1050500000000000000007800FC01CE038703030F6
:1050600030303030303038701CE00FC0078007B06F
:105070000FF00CE0000000000000000000003FC046
:105080003FE01870183018701FE01FC018E018605B
:1050900018703E383E1800000000000000000000BC
:1050A0000000000000000FB01FF0387030303800F2
:1050B0001F8007E00070303038703FE037C00000DC
:1050C00000000000000000000000000000003FF0B1
:1050D0003FF033303330333003000300030003006C
:1050E00003000FC00FC0000000000000000000001F
:1050F0000000000000003CF03CF0186018601860F0
:1051000018601860186018601CE00FC0078000006D
:10511000000000000000000000000000000078F027
:1051200078F03060306018C018C00D800D800D80A0
:10513000070007000700000000000000000000005A
:105140000000000000007C7C7C7C30183398339891
:10515000339836D816D01C701C701C7018300000A4
:10516000000000000000000000000000000078F0D7
:1051700078F0306018C00D80070007000D8018C05F
:10518000306078F078F000000000000000000000BF
:105190000000000000003CF03CF018600CC00780EC
:1051A000078003000300030003000FC00FC00000CE
:1051B00000000000000000000000000000001FE0F0
:1051C0001FE0186018C001800300030006000C6097
:1051D00018601FE01FE00000000000000000000059
:1051E0000000000003C003C003000300030003002D
:1051F0000300030003000300030003000300030097
:1052000003C003C0000000000000180018000C00DC
:105210000C000C0006000600030003000180018062
:1052200000C000C000C0006000600000000000007E
:10523000000000000F000F00030003000300030044
:105240000300030003000300030003000300030046
:105250000F000F0000000000000000000200070027
:105260000D8018C030602020000000000000000009
:10527000000000000000000000000000000000002E
:10528000000000000000000000000000000000001E
:10529000000000000000000000000000000000000E
:1052A000000000000000FFFCFFFC00000400030001
:1052B000008000000000000000000000000000006E
:1052C00000000000000000000000000000000000DE
:1052D0000000000000000000000000000FC01FE000
:1052E00000600FE01FE0386030E03FF01F7000000A
:1052F00000000000000000000000000070007000CE
:105300003000300037803FE03860303030303030AF
:1053100038607FE07780000000000000000000009F
:1053200000000000000000000000000007B01FF0B7
:10533000183030303000300038301FF00FC000001F
:10534000000000000000000000000000007000707D
:105350000030003007B01FF018703030303030307F
:1053600038701FF807B800000000000000000000BF
:1053700000000000000000000000000007801FE0A7
:1053800018603FF03FF0300018301FF007C00000F9
:1053900000000000000000000000000003F007F023
:1053A000060006001FE01FE00600060006000600DB
:1053B00006001FE01FE000000000000000000000E9
:1053C00000000000000000000000000007B81FF807
:1053D000187030303030303018701FF007B00030A7
:1053E00000700FE00FC0000000000000380038001F
:1053F000180018001BC01FE01C60186018601860BF
:1054000018603CF03CF000000000000000000000CC
:105410000000000003000300000000001F001F0048
:10542000030003000300030003001FE01FE000006F
:105430000000000000000000000000000300030066
:10544000000000001FC01FC000C000C000C000C09E
:1054500000C000C000C000C001C03F803F0000008D
:105460000000000038003800180018001BE01BE0A6
:105470001B001E001E001B00198039F039F00000CF
:105480000000000000000000000000001F001F00DE
:1054900003000300030003000300030003000300F4
:1054A00003001FE01FE000000000000000000000FB
:1054B0000000000000000000000000007EE07FF01F
:1054C000333033303330333033307BB87BB8000087
:1054D00000000000000000000000000000000000CC
:1054E000000000003BC03FE01C60186018601860BE
:1054F00018603CF03CF000000000000000000000DC
:1055000000000000000000000000000007801FE015
:10551000186030303030303018601FE007800000F5
:10552000000000000000000000000000000000007B
:105530000000000077807FE038603030303030305D
:1055400038603FE03780300030007C007C00000095
:1055500000000000000000000000000007B81FF875
:10556000187030303030303018701FF007B0003015
:10557000003000F800F8000000000000000000000B
:10558000000000003CE03DF00F300E000C000C006D
:105590000C003FC03FC00000000000000000000001
:1055A00000000000000000000000000007E01FE015
:1055B00018601E000FC001E018601FE01F8000008F
:1055C00000000000000000000000000000000C00CF
:1055D0000C000C003FE03FE00C000C000C000C0045
:1055E0000C300FF007C000000000000000000000B9
:1055F00000000000000000000000000038E038E07B
:10560000186018601860186018E01FF00F70000034
:10561000000000000000000000000000000000008A
:105620000000000078F078F0306018C018C00D80DD
:105630000D800700070000000000000000000000CF
:1056400000000000000000000000000078F078F08A
:105650003260326037E01DC01DC018C018C00000A5
:10566000000000000000000000000000000000003A
:10567000000000003CF03CF00CC0078003000780F5
:105680000CC03CF03CF000000000000000000000F6
:1056900000000000000000000000000078F078F03A
:1056A000306018C018C00D800F800700060006008B
:1056B0000C007F007F0000000000000000000000E0
:1056C000000000001FE01FE018C00180030006007A
:1056D0000C601FE01FE00000000000000000000060
:1056E0000000000001C003C003000300030003002A
:1056F000030007000E00070003000300030003007F
:1057000003C001C00000000000000000030003000F
:105710000300030003000300030003000300030071
:105720000300030003000300030003000000000067
:10573000000000001C001E00060006000600060017
:1057400006000700038007000600060006000600AA
:105750001E001C000000000000000000000000000F
:105760000000000000000E003F3033F001E00000B8
:105770000000000000000000000000000000000029
:105780000000C4E300000000000000000000000072
:105790000000000000000000000000000000000009
:1057A00001C1C00001E3E00003E3C00003C78000C3
:1057B00003C7FFFF078FFFFF078F000F0F1E001E9D
:1057C0000F3C1E1E1F3C1E3E1F181E3C3F001E1C91
:1057D0007F001E007F079E70FF079EF0EF0F9E78F0
:1057E0006F0F1E780F0F1E3C0F1E1E3C0F1E1E1E3D
:1057F0000F3C1E1E0F3C1E1F0F7C1E0F0F781E0E2F
:105800000F001E000F001E000F003C000F07FC00E1
:105810000F07F8000000000000000000000000007A
:105820000000000000000000BAC3000000000000FB
:105830000000000000000000000000000000000068
:1058400000000F0000000F0000000F07FFFE0F0711
:10585000FFFE0F00003E1E0000FCFFF801F0FFF805
:1058600003E01E7807C01E780F803C780F003C785C
:105870000F003C780F003C780F003C7FFFFF78FF63
:10588000FFFF78F00F0078F00F003DE00F001FE001
:105890000F000FE00F0007C00F0007E00F0007F038
:1058A0000F000FF80F001E7C0F003C380F0078002F
:1058B0000F00F003FF006001FE0000000000000088
:1058C0000000000000000000000000000000CEA268
:1058D00000000000000000000000000000000000C8
:1058E0000000000000000000030701E0078701E05E
:1058F000070701C00FF779C01EF77BC01EF77B803A
:105900003CF77BFF78F77BFFF8F77F9EF7FFFF9E62
:1059100067FFFF9E07007F9C0F000F9C1E001F9CCF
:105920001E7FFFBC3E7FF3FC3E0003FC7E0001F8BF
:10593000FE0001F8FE7FE1F8DE7FE1F81E78E0F07E
:105940001E78EEF01E78FFF01E78FDF81E79FBFC45
:105950001EF1F7BC1EF0EF9E1FE00F0F1EC01E0FC2
:105960001E000C0700000000000000000000000006
:1059700000000000C8ED0000000000000000000072
:105980000000000000000000000003C07800078055
:105990007800078078000780F0000F00F000FFFF1C
:1059A000FFFFFFFFFFFF1E03C01F1E03C01E1FE7F8
:1059B0008F3E3DE78F3C3DEF0F7C3DE70F7879E070
:1059C0000F0079E00E007FFE0E007FFE1F0001E059
:1059D0001F0001E01F0001E01F8001E01F8001E0C7
:1059E0003F8001FF3FC00FFF7BC0FFF079E0F9E08F
:1059F000F1F001E1F0F001E3E0F801E7C07C01FF24
:105A0000803F01FF001F01EC000E000000000000BD
:105A100000000000000000000000D1C500000000F0
:105A20000000000000000000000000000000000076
:105A300000000000000077000000FF007FFCF780FE
:105A40007FFDE3C001C1E3C001C3C1803DC7FFFFCB
:105A500039C7FFFF39CF838079DF838079FF838067
:105A600079DF838071C383807FFFFFFE7FFFFFFEAE
:105A700003C3838007C3838007C383800FC38380EE
:105A80000FC383801FC3FFFE1DC3FFFE3DC3838082
:105A900079C38380F1C38380F1C3838061C3838032
:105AA00001C3FFFF03C3FFFF1FC380001F838000EC
:105AB00000000000000000000000000000000000E6
:105AC000BADA000000000000000000000000000042
:105AD00000000000000000000000000000000000C6
