:020000040800F2
:1000000000000520D903010801F400080FF40008DE
:1000100015F400081BF4000821F40008000000009B
:1000200000000000000000000000000051CE0008A9
:1000300027F400080000000051D00008B9D00008E3
:1000400029040108290401082904010829040108D8
:1000500029040108290401082904010829040108C8
:1000600029040108290401082904010829040108B8
:1000700035F400082904010849F40008290401089E
:100080002904010829040108290401082904010898
:100090002904010829040108290401082904010888
:1000A0002904010829040108290401082904010878
:1000B0002904010829040108290401082904010868
:1000C0002904010829040108290401082904010858
:1000D000290401085DF40008290401082904010825
:1000E0002904010829040108290401082904010838
:1000F0002904010829040108290401082904010828
:100100002904010829040108290401082904010817
:10011000290401082904010871F4000829040108D0
:100120002904010885F4000899F40008290401084D
:1001300029040108290401082904010829040108E7
:10014000290401082904010829040108ADF4000864
:1001500029040108C1F40008D5F40008E9F40008F6
:1001600029040108290401082904010829040108B7
:1001700029040108FDF4000829040108000000001A
:10018000290401082904010811F5000829040108BF
:100190002904010829040108290401082904010887
:1001A0002904010829040108290401082904010877
:1001B0002904010829040108290401082904010867
:0801C0002904010829040108CB
:1001D00010B5054C237833B9044B13B10448AFF381
:1001E00000800123237010BD0402002000000000E5
:1001F0002014010808B5034B1BB103490348AFF3B2
:10020000008008BD00000000080200202014010842
:1002100053B94AB9002908BF00281CBF4FF0FF316D
:100220004FF0FF3000F072B9ADF1080C6DE904CE6B
:1002300000F006F8DDF804E0DDE9022304B07047C1
:100240002DE9F047089E04468846002B4BD18A4290
:10025000154667D9B2FA82F24AB1C2F1200701FA13
:1002600002F320FA07F7954047EA030894404FEA63
:10027000154E230CB8FBFEF71FFA85FC0EFB178802
:1002800043EA084307FB0CF1994209D9EB1807F13F
:10029000FF3080F01B81994240F21881023F2B44CD
:1002A0005B1AA4B2B3FBFEF00EFB103344EA034426
:1002B00000FB0CFCA44509D92C1900F1FF3380F098
:1002C0000781A44540F2048102382C4440EA0740EB
:1002D000A4EB0C0400271EB1D4400023C6E9004360
:1002E0003946BDE8F0878B4209D9002E00F0EB803B
:1002F0000027C6E9000138463946BDE8F087B3FA61
:1003000083F7002F47D18B4202D3824200F2FA805A
:10031000841A61EB030301209846002EE0D0C6E961
:100320000048DDE702B9FFDEB2FA82F2002A40F0AF
:100330008F80491B4FEA154E1FFA85F80127B1FB44
:10034000FEFC230C0EFB1C1143EA014308FB0CF1DD
:10035000994207D9EB180CF1FF3002D2994200F212
:10036000CD808446591AA3B2B1FBFEF00EFB1014E7
:1003700043EA044408FB00F8A04507D92C1900F112
:10038000FF3302D2A04500F2B6801846A4EB080461
:1003900040EA0C409FE7C7F1200CBB4022FA0CFE5C
:1003A0004EEA030E01FA07F420FA0CF521FA0CF3D9
:1003B0004FEA1E482543B3FBF8F92C0C08FB193310
:1003C0001FFA8EFA44EA034309FB0AF49C4202FA3C
:1003D00007F200FA07F10BD91EEB030309F1FF3016
:1003E00080F087809C4240F28480A9F10209734426
:1003F0001B1BADB2B3FBF8F008FB103345EA034416
:1004000000FB0AFAA24508D91EEB040400F1FF33F1
:100410006BD2A24569D90238744440EA0940A0FB76
:100420000289A4EB0A044C45C2464B4654D351D032
:10043000002E69D0B1EB0A0564EB030404FA0CFC4E
:10044000FD40FC404CEA0505C6E90054002747E79B
:10045000C2F1200320FA03F7954001FA02F021FAD5
:1004600003F34FEA154E3843010CB3FBFEF71FFAB6
:1004700085F80EFB173341EA034107FB08F38B4273
:1004800004FA02F407D9691807F1FF3C2FD28B4216
:100490002DD9023F2944CB1A81B2B3FBFEF00EFBEB
:1004A000103341EA034100FB08F38B4207D9691876
:1004B00000F1FF3C17D28B4215D902382944C91AE2
:1004C00040EA07473BE73746304609E70746E7E695
:1004D0001846FBE64145ABD2B8EB020A69EB0E02C7
:1004E00001381346A4E76046E9E7184695E76746F2
:1004F000D1E781467CE702382C4447E7ACF1020C97
:100500002B442FE7384608E73746E9E6704700BF37
:10051000034613F8012B002AFBD1181A0138704743
:1005200001F0FF01102A2BDB10F0070F08D010F8A4
:10053000013B013A8B422DD010F0070F42B3F6D1A8
:10054000F0B441EA012141EA014122F007047FF0C1
:1005500000070023F0E80256083C85EA010586EA18
:10056000010685FA47F5A3FA87F586FA47F6A5FA54
:1005700087F68EB9EED1F0BC01F0FF0102F0070260
:1005800032B110F8013B013A83EA010313B1F8D10B
:100590000020704701387047002D06BF35460338EC
:1005A000073815F0010F07D1013015F4807F02BF25
:1005B000013015F4C03F0130F0BC0138704700BF76
:1005C00080B500AF032000F0F8F800200EF0C0FE68
:1005D0000EF016FA0023184680BD000080B400AF6C
:1005E000064B1B781A46064B1B681344044A1360DB
:1005F00000BFBD465DF8047B704700BF04000020CB
:100600005C8F002080B400AF034B1B681846BD46CA
:100610005DF8047B704700BF5C8F002080B584B01C
:1006200000AF7860FFF7EEFFB8607B68FB60FB68A7
:10063000B3F1FF3F05D0094B1B781A46FB68134402
:10064000FB6000BFFFF7DEFF0246BB68D31AFA6803
:100650009A42F7D800BF1037BD4680BD0400002085
:1006600080B485B000AF78607B6803F00703FB605F
:100670000B4BDB68BB60BA684FF6FF031340BB60EF
:10068000FB681A02BB681A43064B1343BB60044A5B
:10069000BB68D36000BF1437BD465DF8047B70476C
:1006A00000ED00E00000FA0580B400AF044BDB6809
:1006B0001B0A03F007031846BD465DF8047B70472C
:1006C00000ED00E080B483B000AF0346FB7197F902
:1006D0000730002B0BDBFB7903F01F02074997F96A
:1006E00007305B09012000FA02F241F8232000BF25
:1006F0000C37BD465DF8047B704700BF00E100E0A9
:1007000080B483B000AF03463960FB7197F90730BE
:10071000002B0ADB3B68DAB20C4997F9073012016B
:10072000D2B20B4483F800230AE03B68DAB20849EE
:10073000FB7903F00F03043B1201D2B20B441A768B
:1007400000BF0C37BD465DF8047B704700E100E058
:1007500000ED00E080B489B000AFF860B9607A6065
:10076000FB6803F00703FB61FB69C3F10703042B7C
:1007700028BF0423BB61FB690433062B02D9FB6944
:10078000033B00E000237B614FF0FF32BB6902FABC
:1007900003F3DA43BB681A407B699A404FF0FF319C
:1007A0007B6901FA03F3D9437B680B401343184676
:1007B0002437BD465DF8047B704780B582B000AF3A
:1007C00078607868FFF74CFF00BF0837BD4680BDF2
:1007D00080B586B000AF0346B9607A60FB73002332
:1007E0007B61FFF761FF78617A68B9687869FFF724
:1007F000B1FF024697F90F3011461846FFF780FF08
:1008000000BF1837BD4680BD80B582B000AF03463B
:10081000FB7197F907301846FFF754FF00BF083700
:10082000BD4680BD80B582B000AF78607B68002B8C
:1008300001D1012354E07B685B7FDBB2002B05D143
:100840007B6800221A7778680EF002F97B68022232
:100850005A777B681B79002B0CD17B681B68224A76
:100860005A617B681B689A687B681B6822F01802D3
:100870009A600CE07B6899687B68DB681A46786848
:1008800000F034F80346002B01D0012328E07B68F8
:100890005B79002B05D17B681B684FF0FF321A6132
:1008A00004E07B681B687A6812691A617B681B68C0
:1008B0009B6823F060017B685A697B681B680A4368
:1008C0009A607B681B689B6823F080017B689A694B
:1008D0007B681B680A439A607B6801225A77002371
:1008E00018460837BD4680BDB71DC10480B487B027
:1008F00000AFF860B9607A600023FB751F233B618D
:1009000000BF3B695A1E3A61002B09D03B6903F0D6
:100910001F03BA6822FA03F303F00103002BF0D09F
:100920007B68182B46D801A252F823F0BB090008B7
:10093000B5090008B5090008B5090008B50900089F
:10094000B5090008B5090008B5090008A90900089B
:10095000B5090008B5090008B5090008B50900087F
:10096000B5090008B5090008B50900089D09000887
:10097000B5090008B5090008B5090008B50900085F
:10098000B5090008B5090008B50900089109000873
:100990003B69062B13D90123FB7510E03B69072B3C
:1009A0000FD90123FB750CE03B690F2B0BD90123F9
:1009B000FB7508E00123FB7506E000BF04E000BF03
:1009C00002E000BF00E000BFFB7D002B0DD1FB6803
:1009D0001B68BA685A61FB681B689B6823F01801A2
:1009E000FB681B687A680A439A60FB7D18461C37CF
:1009F000BD465DF8047B704780B586B000AF786077
:100A000000237B61FFF7FEFD38617B68002B01D17D
:100A1000012399E07B68002283F834207B6802225E
:100A200083F835207B681B681A687B681B6822F096
:100A300001021A600FE0FFF7E5FD02463B69D31A99
:100A4000052B08D97B6820225A657B68032283F82E
:100A50003520032378E07B681B681B6803F00103E3
:100A6000002BE8D17B681B681B687B617A69384B77
:100A700013407B617B685A687B689B681A437B687C
:100A8000DB681A437B681B691A437B685B691A43FE
:100A90007B689B691A437B68DB691A437B681B6A26
:100AA00013437A6913437B617B685B6A042B07D12C
:100AB0007B68DA6A7B681B6B13437A6913437B613B
:100AC0007B681B687A691A607B681B685B697B615D
:100AD0007B6923F007037B617B685B6A7A69134358
:100AE0007B617B685B6A042B17D17B689B6A7A69A0
:100AF00013437B617B68DB6A002B0ED0786800F0C3
:100B000099FA0346002B08D07B6840225A657B681F
:100B1000012283F83520012316E07B681B687A697F
:100B20005A61786800F050FA0346FB607B68DB6D21
:100B30003F229A40FB689A607B6800225A657B6876
:100B4000012283F83520002318461837BD4680BDA2
:100B50003F8010F080B586B000AFF860B9607A6071
:100B60003B600023FB75FB689B6D3B61FB6893F862
:100B70003430012B01D1022348E0FB68012283F8C5
:100B80003420FB6893F83530DBB2012B37D1FB689A
:100B9000022283F83520FB6800225A653B687A6898
:100BA000B968F86800F0E2F9FB68DB6D3F229A4013
:100BB0003B699A60FB681B681A68FB681B6842F017
:100BC00016021A60FB681B685A69FB681B6842F0D2
:100BD00080025A61FB681B6C002B07D0FB681B6806
:100BE0001A68FB681B6842F008021A60FB681B6801
:100BF0001A68FB681B6842F001021A6005E0FB6896
:100C0000002283F834200223FB75FB7D1846183739
:100C1000BD4680BD80B483B000AF78607B6893F838
:100C20003530DBB2022B04D07B6880225A65012369
:100C30000CE07B68052283F835207B681B681A6806
:100C40007B681B6822F001021A60002318460C37EB
:100C5000BD465DF8047B704780B586B000AF786014
:100C60000023BB60924B1B68924AA2FB03239B0AA2
:100C70007B617B689B6D3B613B691B68FB607B68AC
:100C8000DB6D08229A40FB681340002B1AD07B686A
:100C90001B681B6803F00403002B13D07B681B68E0
:100CA0001A687B681B6822F004021A607B68DB6D9F
:100CB00008229A403B699A607B685B6D43F00102B1
:100CC0007B685A657B68DB6D01229A40FB681340A4
:100CD000002B12D07B681B685B6903F08003002B3C
:100CE0000BD07B68DB6D01229A403B699A607B6880
:100CF0005B6D43F002027B685A657B68DB6D042202
:100D00009A40FB681340002B12D07B681B681B685D
:100D100003F00203002B0BD07B68DB6D04229A40AA
:100D20003B699A607B685B6D43F004027B685A659F
:100D30007B68DB6D10229A40FB681340002B43D088
:100D40007B681B681B6803F00803002B3CD07B68A2
:100D5000DB6D10229A403B699A607B681B681B68B8
:100D600003F48023002B18D07B681B681B6803F4F6
:100D70000023002B08D17B681B6C002B24D07B68E0
:100D80001B6C786898471FE07B689B6C002B1BD01E
:100D90007B689B6C7868984716E07B681B681B68CB
:100DA00003F48073002B07D17B681B681A687B688B
:100DB0001B6822F008021A607B681B6C002B03D0B2
:100DC0007B681B6C786898477B68DB6D20229A40B3
:100DD000FB681340002B00F08E807B681B681B684B
:100DE00003F01003002B00F086807B68DB6D20226F
:100DF0009A403B699A607B6893F83530DBB2052BEB
:100E000036D17B681B681A687B681B6822F0160263
:100E10001A607B681B685A697B681B6822F0800235
:100E20005A617B681B6C002B03D17B689B6C002B89
:100E300007D07B681B681A687B681B6822F0080271
:100E40001A607B68DB6D3F229A403B699A607B6841
:100E5000002283F834207B68012283F835207B68E8
:100E60001B6D002B7DD07B681B6D7868984778E000
:100E70007B681B681B6803F48023002B1CD07B68F5
:100E80001B681B6803F40023002B08D17B685B6C94
:100E9000002B30D07B685B6C786898472BE07B68D0
:100EA000DB6B002B27D07B68DB6B7868984722E0F0
:100EB00028010020B5814E1B7B681B681B6803F46A
:100EC0008073002B0FD17B681B681A687B681B68D6
:100ED00022F010021A607B68002283F834207B68BD
:100EE000012283F835207B68DB6B002B03D07B6805
:100EF000DB6B786898477B685B6D002B32D07B6832
:100F00005B6D03F00103002B22D07B68052283F880
:100F100035207B681B681A687B681B6822F0010219
:100F20001A60BB680133BB607A699A4207D37B6859
:100F30001B681B6803F00103002BF2D100E000BF27
:100F40007B68002283F834207B68012283F83520F7
:100F50007B68DB6C002B05D07B68DB6C786898477E
:100F600000E000BF1837BD4680BD00BF80B485B02B
:100F700000AFF860B9607A603B60FB681B681A6874
:100F8000FB681B6822F480221A60FB681B683A68C1
:100F90005A60FB689B68402B08D1FB681B687A6825
:100FA0009A60FB681B68BA68DA6007E0FB681B6838
:100FB000BA689A60FB681B687A68DA6000BF143709
:100FC000BD465DF8047B704780B485B000AF7860A3
:100FD0007B681B68DBB2103B134AA2FB03231B098F
:100FE000FB60124AFB6813441B781A467B68DA657B
:100FF000FB68032B08D97B681B681A460C4B13400F
:101000001A1D7B689A6506E07B681B681A46084BC8
:1010100013407A6893657B689B6D18461437BD460C
:101020005DF8047B704700BFABAAAAAA3814010878
:1010300000FCFFFF80B485B000AF78600023FB7335
:101040007B689B6ABB607B689B69002B1FD1BB6878
:10105000032B55D801A252F823F000BF6D100008F1
:101060007F1000086D100008011100087B68DB6A22
:1010700003F08073002B45D00123FB7342E07B68B3
:10108000DB6AB3F1C07F3FD10123FB733CE07B6897
:101090009B69B3F5005F21D1BB68032B36D801A251
:1010A00052F823F0B5100008BB100008B510000876
:1010B000CD1000080123FB732FE07B68DB6A03F08F
:1010C0008073002B24D00123FB7321E07B68DB6A53
:1010D000B3F1C07F1ED10123FB731BE0BB68022B61
:1010E00002D9032B03D018E00123FB7315E07B68C2
:1010F000DB6A03F08073002B0ED00123FB730BE03F
:1011000000BF0AE000BF08E000BF06E000BF04E047
:1011100000BF02E000BF00E000BFFB7B18461437B1
:10112000BD465DF8047B704780B588B000AF78603D
:101130000023FB610023FB60A94BBB6100237B61A3
:1011400000233B617B68002B01D1012383E17B6895
:1011500093F84430DBB2002B06D17B68002283F881
:10116000452078680DF094FC9E4B5B6C9D4A43F4DF
:10117000804353649B4B5B6C03F48043BB60BB6850
:10118000994B5B68984A23F400035360964B5A6866
:101190007B681B6A944913434B607B681B6803F5AB
:1011A00080531A687B681B6842F0010203F5805384
:1011B0001A60FFF727FA786111E0FFF723FA024679
:1011C0007B69D31AB3F5FA7F09D97B68032283F8C8
:1011D00044207B68002283F8452003233BE17B68A1
:1011E0001B6803F580531B6803F00103002BE4D157
:1011F0007B681B681B69FB61FB6923F01C03FB61B7
:1012000002F0E4FCB861BB69784A934208D9BB6933
:10121000774A934204D8FB6943F00803FB6127E057
:10122000BB69734A934208D9BB69724A934204D896
:10123000FB6943F00C03FB611AE0BB696D4A934202
:1012400003D9BB696C4A934211D9BB696A4A93427C
:1012500008D9BB69694A934204D8FB6943F0040387
:10126000FB6105E0FB6943F01003FB6100E000BF98
:101270007B681B68FA691A614FF4004200217868A4
:1012800000F056F90346002B0BD001233B6139696E
:10129000786800F0B3F97B68012283F844200123C9
:1012A000D9E040F6FF70FFF7B9F97B685B68002B67
:1012B00000F0A680FFF7A6F9786107F10C031A4643
:1012C0000121786800F0CCF8FFF79CF902467B69B1
:1012D000D31A41F2883293420FD901233B61396915
:1012E000786800F08BF97B68012283F844207B68E2
:1012F000002283F845200323ADE0FB6803F00403DC
:10130000002BDAD04FF480520021786800F010F9F9
:101310000346002B0BD001233B613969786800F04C
:101320006DF97B68012283F84420012393E0FFF7E5
:1013300069F9786107F10C031A460121786800F019
:101340008FF8FFF75FF902467B69D31A41F28832C2
:1013500093420FD901233B613969786800F04EF957
:101360007B68012283F844207B68002283F84520B3
:10137000032370E0FB6803F02003002BDAD007F1B1
:101380000C031A461F21786800F06AF80346002B08
:101390000BD001233B613969786800F02FF97B6835
:1013A000012283F84420012355E0FB6803F0100379
:1013B000002B04D07B684FF40062DA6002E07B68A7
:1013C0000022DA60FB6803F00403002B03D07B6883
:1013D00000229A6036E07B684FF480429A6031E0E8
:1013E000008793030038024000380140FF2C310190
:1013F000BF0E1602FF869303FFE0F5057FD1F008CC
:101400007B68DB68DB089AB27B689B685B089BB2F1
:1014100013439BB21A460021786800F089F803460E
:10142000002B0BD001233B613969786800F0E6F8A6
:101430007B68012283F8442001230CE040F6FF7012
:10144000FFF7ECF83969786800F0D8F87B6801227A
:1014500083F84420002318462037BD4680BD00BFD6
:1014600080B586B000AFF8600B467A607B810023C0
:101470007B6100233B61FB6893F84430DBB2822B35
:1014800001D1022350E0FB68822283F84420FB68EC
:101490001B681B697B617B6903F01C037B61FB6834
:1014A0001B8ADB029BB27A6913437B617B899B01B8
:1014B00003F4F8637A6913437B617B6923F00203C9
:1014C0007B617B6943F001037B61FB681B687A6980
:1014D0001A61FFF797F8386115E0FFF793F80246B5
:1014E0003B69D31AB3F5803F09D3FB68012283F827
:1014F0004420FB68002283F84520032314E0FB68A6
:101500001B681B697B617B6903F00103002BE4D13D
:10151000FB681B685B699BB21A467B681A60FB68B4
:10152000012283F84420002318461837BD4680BDA9
:1015300080B586B000AFF8600B467A607B810023EF
:101540007B6100233B61FB6893F84430DBB2422BA4
:1015500001D102234EE0FB68422283F84420FB685D
:101560001B681B697B617B6903F01C037B61FB6863
:101570001B8ADB029BB27A6913437B617B899B01E7
:1015800003F4F8637A6913437B617B6943F00203D8
:101590007B617B6943F001037B617B689AB2FB68E6
:1015A0001B685A61FB681B687A691A61FFF72AF8A1
:1015B000386115E0FFF726F802463B69D31AB3F508
:1015C000803F09D3FB68012283F84420FB68002296
:1015D00083F8452003230DE0FB681B681B697B61D2
:1015E0007B6903F00103002BE4D1FB68012283F83F
:1015F0004420002318461837BD4680BD80B5B0B0E2
:1016000000AF786039600023C7F8BC303B68002B1E
:1016100007D07B684FF40062DA607B684FF4804249
:101620009A600023BB640023FB6400233B65002316
:101630007B650023BB650023FB657B68DB69002BB2
:1016400003D14FF480633B6601E000233B664FF417
:1016500000737B660023BB660023FB6600233B67A9
:1016600000237B670023BB674023FB670023C7F889
:1016700080300023C7F884300023C7F88830002367
:10168000C7F88C300023C7F890300023C7F8943097
:101690000023C7F898300023C7F89C308023C7F890
:1016A000A0300023C7F8A4300023C7F8A8300023D7
:1016B000C7F8AC300023C7F8B0300023C7F8B43007
:1016C0000023C7F8B8307B681B681B68C7F8BC30BC
:1016D000D7F8BC20AB4B1340C7F8BC30BA6CFB6CDE
:1016E0001A433B6D1A437B6D1A437B689B681A4310
:1016F000BB6D1A43FB6D1A437B68DB681A433B6E74
:101700001A437B6E1A43BB6E1A43FB6E1A433B6F40
:101710001343D7F8BC201343C7F8BC307B681B6861
:10172000D7F8BC201A607B681B681B68C7F8BC3000
:101730000120FEF773FF7B681B68D7F8BC201A6096
:101740007A6FBB6F1A43FB6F1A43D7F880301A4386
:10175000D7F884301A43D7F888301A43D7F88C303A
:1017600042EA0301D7F890207B681B680A435A605D
:101770007B681B685B68C7F8BC300120FEF74EFF32
:101780007B681B68D7F8BC205A607B681B68D7F859
:1017900094209A607B681B68D7F89820DA607B6891
:1017A0001B689B69C7F8BC30D7F8BC204FF6417363
:1017B0001340C7F8BC30D7F89C301A04D7F8A030D3
:1017C0001A43D7F8A4301A43D7F8A8301A43D7F8E9
:1017D000AC301A43D7F8B0301343D7F8BC201343CA
:1017E000C7F8BC307B681B68D7F8BC209A617B685F
:1017F0001B689B69C7F8BC300120FEF70FFF7B68B0
:101800001B68D7F8BC209A61D7F8B410D7F8B82075
:101810007B681B680A43DA617B681B68DB69C7F871
:10182000BC300120FEF7FAFE7B681B68D7F8BC20AD
:10183000DA610023BB604FF00073FB6000233B6163
:101840004FF400137B610023BB610023FB61002385
:101850003B6200237B620423BB624FF00073FB6298
:101860004FF480333B634FF480037B634FF40053AA
:10187000BB638023FB6300233B6400237B647B68A2
:101880001A6841F2180313441B68C7F8BC30D7F834
:10189000BC203D4B1340C7F8BC30BA68FB681A4304
:1018A0003B691A437B691A43BB691A43FB691A43B4
:1018B0003B6A1A437B6A1A43BB6A1343D7F8BC20BE
:1018C0001343C7F8BC307B681A6841F2180313440D
:1018D000D7F8BC201A607B681A6841F218031344D9
:1018E0001B68C7F8BC300120FEF798FE7B681A68B9
:1018F00041F218031344D7F8BC201A60FA6A3B6B14
:101900001A437B6B1A43BB6B1A43FB6B1A433B6C4A
:101910009B001A437B6C1A437B681B6842F40002ED
:1019200003F580531A607B681B6803F580531B68BE
:10193000C7F8BC300120FEF771FE7B681B6803F519
:101940008053D7F8BC201A607B689B69012B0DD1AE
:101950007B681A6841F21C0313441B687A6811689B
:101960000A4A1A4341F21C030B441A607B685B6904
:101970001A460021786800F00BF800BFC037BD465A
:1019800080BD00BF0F8120FF233FDEF84000010033
:1019900080B487B000AFF860B9607A607B680533C7
:1019A0001B781B027A680432127813437B61BA6891
:1019B000114B13441A467B6913607B6803331B7811
:1019C0001A067B6802331B781B041A437B680133B9
:1019D0001B781B0213437A68127813437B61BA6841
:1019E000064B13441A467B69136000BF1C37BD4683
:1019F0005DF8047B704700BF408002404480024095
:101A000080B489B000AF786039600023FB610023A7
:101A10007B6100233B610023BB610023FB6175E117
:101A20000122FB6902FA03F37B613B681B687A6958
:101A300013403B613A697B699A4240F064813B689C
:101A40005B68012B0BD03B685B68022B07D03B68BF
:101A50005B68112B03D03B685B68122B30D17B682D
:101A60009B68BB61FB695B00032202FA03F3DB4363
:101A7000BA691340BB613B68DA68FB695B0002FA34
:101A800003F3BA691343BB617B68BA699A607B68E8
:101A90005B68BB610122FB6902FA03F3DB43BA69AD
:101AA0001340BB613B685B681B0903F00102FB69E3
:101AB00002FA03F3BA691343BB617B68BA695A60DF
:101AC0007B68DB68BB61FB695B00032202FA03F3FE
:101AD000DB43BA691340BB613B689A68FB695B00F2
:101AE00002FA03F3BA691343BB617B68BA69DA602F
:101AF0003B685B68022B03D03B685B68122B23D1E9
:101B0000FB69DA087B68083253F82230BB61FB6955
:101B100003F007039B000F2202FA03F3DB43BA69C9
:101B20001340BB613B681A69FB6903F007039B0024
:101B300002FA03F3BA691343BB61FB69DA087B68F5
:101B40000832B96943F822107B681B68BB61FB69E6
:101B50005B00032202FA03F3DB43BA691340BB6163
:101B60003B685B6803F00302FB695B0002FA03F366
:101B7000BA691343BB617B68BA691A603B685B68EA
:101B800003F08053002B00F0BE80654B5B6C644A11
:101B900043F480435364624B5B6C03F48043FB600B
:101BA000FB68604AFB699B08023352F82330BB6133
:101BB000FB6903F003039B000F2202FA03F3DB43EC
:101BC000BA691340BB617B68574A934237D07B6840
:101BD000564A934231D07B68554A93422BD07B685A
:101BE000544A934225D07B68534A93421FD07B6866
:101BF000524A934219D07B68514A934213D07B6872
:101C0000504A93420DD07B684F4A934207D07B687D
:101C10004E4A934201D1092312E00A2310E008231F
:101C20000EE007230CE006230AE0052308E0042366
:101C300006E0032304E0022302E0012300E0002386
:101C4000FA6902F0030292009340BA691343BB6140
:101C50003449FB699B080233BA6941F823203C4BA5
:101C60001B68BB613B69DB43BA691340BB613B68DE
:101C70005B6803F48033002B03D0BA693B691343DC
:101C8000BB61334ABB691360314B5B68BB613B6925
:101C9000DB43BA691340BB613B685B6803F4003304
:101CA000002B03D0BA693B691343BB61284ABB6967
:101CB0005360274B9B68BB613B69DB43BA691340A8
:101CC000BB613B685B6803F48013002B03D0BA69E7
:101CD0003B691343BB611E4ABB6993601C4BDB68C5
:101CE000BB613B69DB43BA691340BB613B685B681E
:101CF00003F40013002B03D0BA693B691343BB61A3
:101D0000134ABB69D360FB690133FB61FB690F2B8D
:101D10007FF686AE00BF2437BD465DF8047B704772
:101D20000038024000380140000002400004024038
:101D300000080240000C0240001002400014024063
:101D400000180240001C0240002002400024024013
:101D5000003C014080B483B000AF78600B467B80CC
:101D600013467B707B78002B03D07A887B689A615E
:101D700003E07B881A047B689A6100BF0C37BD467C
:101D80005DF8047B7047F0B58FB00AAF78607B6870
:101D9000002B01D1012316E17B681B68BB607B68C7
:101DA00093F8BD33DBB2002B06D17B68002283F8A9
:101DB000BC2378680DF0EEFD7B68032283F8BD2319
:101DC000BB68DB6B03F48073002B02D17B680022BD
:101DD0001A617B681B68184605F04DF87B681B6824
:101DE0003B607E686D4606F110040FCC0FC50FCC2A
:101DF0000FC594E8030085E80300331D0ECB386857
:101E000004F02EFF0346002B05D07B68022283F8E6
:101E1000BD230123D7E07B681B680021184605F02D
:101E20003BF80023FB734AE0FA7B79681346DB003A
:101E30009B1A9B000B443D3301221A70FA7B796890
:101E40001346DB009B1A9B000B443C33FA7B1A7051
:101E5000FA7BFB7B98B279681346DB009B1A9B00E8
:101E60000B44423302461A80FA7B79681346DB0042
:101E70009B1A9B000B443F3300221A70FA7B79684F
:101E80001346DB009B1A9B000B44443300221A606C
:101E9000FA7B79681346DB009B1A9B000B4448339E
:101EA00000221A60FA7B79681346DB009B1A9B00BC
:101EB0000B44503300221A60FB7B0133FB73FA7B27
:101EC0007B685B689A42AFD30023FB7344E0FA7BE4
:101ED00079681346DB009B1A9B000B4403F2FD1349
:101EE00000221A70FA7B79681346DB009B1A9B006C
:101EF0000B4403F5FE73FA7B1A70FA7B796813467C
:101F0000DB009B1A9B000B4403F2FF1300221A70A4
:101F1000FA7B79681346DB009B1A9B000B4403F5A0
:101F2000017300221A60FA7B79681346DB009B1A62
:101F30009B000B4403F5027300221A60FA7B796858
:101F40001346DB009B1A9B000B4403F5047300222D
:101F50001A60FB7B0133FB73FA7B7B685B689A42F8
:101F6000B5D37B681B683B607E686D4606F1100444
:101F70000FCC0FC50FCC0FC594E8030085E8030014
:101F8000331D0ECB386804F0B1FF0346002B05D09B
:101F90007B68022283F8BD23012314E07B680022C2
:101FA00083F838207B68012283F8BD237B685B6A55
:101FB000012B02D1786801F081F87B681B68184614
:101FC00006F000F8002318461437BD46F0BD80B572
:101FD00082B000AF78607B6893F8BC33012B01D1ED
:101FE000022312E07B68012283F8BC237B681B6814
:101FF000184605F0CFFF7B681B68184604F02AFFDF
:102000007B68002283F8BC23002318460837BD46AE
:1020100080BD90B58DB000AF78607B681B683B6277
:102020003B6AFB617B681B68184606F076F803463E
:10203000002B40F0CA837B681B68184605F0DAFF66
:102040000346002B00F0C0837B681B68184605F030
:10205000D1FF034603F00203022B07D17B681B6804
:102060005A697B681B6802F002025A617B681B6830
:10207000184605F0BFFF034603F01003102B61D193
:102080007B681B689A697B681B6822F010029A6162
:102090003B6A1B6ABB61BB6903F00F021346DB009E
:1020A0009B1A9B0003F5FC737A68134404337B612D
:1020B000BB695B0C03F00F03022B24D1BA6947F60E
:1020C000F0731340002B35D07B69D968BB691B09BD
:1020D0009BB2C3F30A039BB21A46386A05F037FE77
:1020E0007B69DA68BB691B09C3F30A031A447B697D
:1020F000DA607B699A69BB691B09C3F30A031A4456
:102100007B699A6116E0BB695B0C03F00F03062B39
:1021100010D17B6803F5717308221946386A05F0FF
:1021200016FE7B699A69BB691B09C3F30A031A444B
:102130007B699A617B681B689A697B681B6842F0BF
:1021400010029A617B681B68184605F053FF03462E
:1021500003F40023B3F5002F6ED100237B627B686C
:102160001B68184605F059FFB86262E0BB6A03F0CD
:102170000103002B57D07B681B687A6AD2B21146E4
:10218000184605F07EFF38613B6903F00103002B20
:102190000CD07B6A5A01FB69134403F530631A467D
:1021A00001239360796A786800F0DEFD3B6903F0F3
:1021B0000803002B0CD07B6A5A01FB69134403F51A
:1021C00030631A4608239360796A786800F0D8FE75
:1021D0003B6903F01003002B08D07B6A5A01FB69AE
:1021E000134403F530631A46102393603B6903F0F0
:1021F0002003002B08D07B6A5A01FB69134403F5C6
:1022000030631A46202393603B6903F40053002B8C
:1022100009D07B6A5A01FB69134403F530631A46FF
:102220004FF4005393607B6A01337B62BB6A5B08A7
:10223000BB62BB6A002B99D17B681B68184605F00E
:10224000D9FE034603F48023B3F5802F40F0C0800D
:102250007B681B68184605F0FAFEB86200237B62B3
:10226000B2E0BB6A03F00103002B00F0A7807B689B
:102270001B687A6AD2B21146184605F020FF386111
:102280003B6903F00103002B57D07B6A03F00F0377
:10229000012202FA03F3FB60FB6903F500635A6B4A
:1022A000FB68DB43F96901F5006113404B637B6A0E
:1022B0005A01FB69134403F510631A460123936026
:1022C0007B681B69012B32D179687A6A1346DB007F
:1022D0009B1A9B000B444833196878687A6A134646
:1022E000DB009B1A9B00034444331B681944786845
:1022F0007A6A1346DB009B1A9B000344483319603B
:102300007B6A002B13D179687A6A1346DB009B1A2B
:102310009B000B4450331B68002B08D17B68186866
:102320007B6803F571731A46012105F029FF7B6A6A
:10233000DBB2194678680DF056FC3B6903F00803E0
:10234000002B08D07B6A5A01FB69134403F5106324
:102350001A46082393603B6903F01003002B08D052
:102360007B6A5A01FB69134403F510631A46102374
:1023700093603B6903F04003002B08D07B6A5A014D
:10238000FB69134403F510631A46402393603B69CD
:1023900003F00203002B08D07B6A5A01FB69134447
:1023A00003F510631A46022393603B6903F0800330
:1023B000002B03D0796A786800F048FC7B6A01330F
:1023C0007B62BB6A5B08BB62BB6A002B7FF449AFD0
:1023D0007B681B68184605F00DFE034603F00043BA
:1023E000B3F1004F22D1FB6903F500635B68FA6922
:1023F00002F5006223F0010353607B6893F8F43325
:10240000012B08D17B68002283F8F423002178682F
:102410000DF042FE02E078680DF05CFC7B681B6802
:102420005A697B681B6802F000425A617B681B682E
:10243000184605F0DFFD034603F40063B3F5006FB3
:1024400012D1FB6903F500639B6803F00103012BC4
:1024500002D178680DF018FC7B681B685A697B68AC
:102460001B6802F400625A617B681B68184605F01D
:10247000C1FD034603F00063B3F1006F21D17B6817
:102480001B685A697B681B6802F000625A617B68AE
:1024900093F8F433002B11D17B68012283F8F423E5
:1024A0007B681B685B6D9B0803F00F027B68C3F8B9
:1024B000F823012178680DF0EFFD02E078680DF057
:1024C000E3FB7B681B68184605F094FD034603F4A4
:1024D0008053B3F5805F40F0C780FB6903F500636C
:1024E0005B68FA6902F5006223F0010353607B68C0
:1024F0001B681021184604F067FE0023FB6256E0BB
:10250000FB6A5A01FB69134403F510631A464FF640
:102510007F339360FB6A5A01FB69134403F5106330
:102520001B68FA6A5101FA690A4402F5106223F441
:1025300000131360FB6A5A01FB69134403F510632F
:102540001B68FA6A5101FA690A4402F5106243F005
:1025500000631360FB6A5A01FB69134403F530639F
:102560001A464FF67F339360FB6A5A01FB691344A6
:1025700003F530631B68FA6A5101FA690A4402F5EF
:10258000306223F400131360FB6A5A01FB691344A1
:1025900003F530631B68FA6A5101FA690A4402F5CF
:1025A000306243F000631360FB6A0133FB627B68B7
:1025B0005B68FA6A9A42A3D3FB6903F50063DB699F
:1025C000FA6902F5006243F00113D3617B681B6B6B
:1025D000002B16D0FB6903F50063D3F88430FA6949
:1025E00002F5006243F00B03C2F88430FB6903F587
:1025F00000635B6CFA6902F5006243F00B035364FD
:1026000015E0FB6903F500635A69FB6903F5006394
:10261000194642F22B0313434B61FB6903F5006338
:102620001B69FA6902F5006243F00B031361FB6951
:1026300003F500631B68FA6902F5006223F4FE6388
:1026400013607B6818687B681B69D9B27B6803F5E7
:1026500071731A4605F094FD7B681B685A697B68A4
:102660001B6802F480525A617B681B68184605F0AB
:10267000C1FC034603F40053B3F5005F24D17B682B
:102680001B68184605F058FD7B681B68184604F067
:10269000FCFD03461A467B68DA607B681C6801F023
:1026A00095FA01467B68DB68DBB21A46204604F0E7
:1026B0002FFB78680DF0BFFA7B681B685A697B684E
:1026C0001B6802F400525A617B681B68184605F0CB
:1026D00091FC034603F00803082B0AD178680DF03B
:1026E0009CFA7B681B685A697B681B6802F00802C9
:1026F0005A617B681B68184605F07CFC034603F4AE
:102700008013B3F5801F0FD100237B627B6ADBB29D
:10271000194678680DF0FEFA7B681B685A697B6879
:102720001B6802F480125A617B681B68184605F02A
:1027300061FC034603F40013B3F5001F0FD100231F
:102740007B627B6ADBB2194678680DF0D1FA7B6850
:102750001B685A697B681B6802F400125A617B6827
:102760001B68184605F046FC034603F08043B3F1AE
:10277000804F0AD178680DF0DFFA7B681B685A69D0
:102780007B681B6802F080425A617B681B681846B0
:1027900005F030FC034603F00403042B15D17B68DD
:1027A0001B685B68BB61BB6903F00403002B02D0AC
:1027B00078680DF0CFFA7B681B6859687B681B68E6
:1027C000BA690A435A6000E000BF3437BD4690BD85
:1027D00080B582B000AF78600B46FB707B6893F8E1
:1027E000BC33012B01D1022313E07B68012283F863
:1027F000BC237B68FA7883F838207B681B68FA78FA
:102800001146184605F0A0FB7B68002283F8BC2324
:10281000002318460837BD4680BD80B584B000AFA0
:102820007860084611461A460346FB700B463B800B
:102830001346BB700023FB7297F90330002B0FDAAD
:10284000FB7803F00F021346DB009B1A9B00383322
:102850007A6813440433FB60FB6801225A700FE06E
:10286000FB7803F00F021346DB009B1A9B0003F575
:10287000FC737A6813440433FB60FB6800225A70CF
:10288000FB7803F00F03DAB2FB681A703A88FB6832
:102890009A60FB68BA78DA70FB685B78002B04D02A
:1028A000FB681B789AB2FB68DA80BB78022B02D1F6
:1028B000FB6800221A717B6893F8BC33012B01D1AD
:1028C00002230EE07B68012283F8BC237B681B682F
:1028D000F968184604F0FEFC7B68002283F8BC23EC
:1028E000FB7A18461037BD4680BD80B584B000AF76
:1028F00078600B46FB7097F90330002B0FDAFB78FA
:1029000003F00F021346DB009B1A9B0038337A68F2
:1029100013440433FB60FB6801225A700FE0FB781C
:1029200003F00F021346DB009B1A9B0003F5FC73B8
:102930007A6813440433FB60FB6800225A70FB780A
:1029400003F00F03DAB2FB681A707B6893F8BC33AC
:10295000012B01D102230EE07B68012283F8BC2306
:102960007B681B68F968184604F03CFD7B68002210
:1029700083F8BC23002318461037BD4680BD80B5C0
:1029800086B000AFF8607A603B600B46FB72FB7A62
:1029900003F00F021346DB009B1A9B0003F5FC7348
:1029A000FA68134404337B617B697A68DA607B6977
:1029B0003A685A617B6900229A617B6900225A70E9
:1029C000FB7A03F00F03DAB27B691A70FB681B69AC
:1029D000012B02D17A687B691A61FB7A03F00F033D
:1029E000002B09D1FB681868FB681B69DBB21A462B
:1029F000796905F01FF808E0FB681868FB681B6937
:102A0000DBB21A46796904F0C9FD0023184618376D
:102A1000BD4680BD80B483B000AF78600B46FB70CC
:102A2000FB7803F00F0279681346DB009B1A9B00CA
:102A30000B4403F505731B6818460C37BD465DF85B
:102A4000047B704780B586B000AFF8607A603B6069
:102A50000B46FB72FB7A03F00F021346DB009B1A56
:102A60009B003833FA68134404337B617B697A68CE
:102A7000DA607B693A685A617B6900229A617B69F6
:102A800001225A70FB7A03F00F03DAB27B691A70E5
:102A9000FB681B69012B02D17A687B691A61FB7A9A
:102AA00003F00F03002B09D1FB681868FB681B6952
:102AB000DBB21A46796904F0BDFF08E0FB681868CC
:102AC000FB681B69DBB21A46796904F067FD0023D5
:102AD00018461837BD4680BD80B584B000AF786019
:102AE0000B46FB70FB7803F00F027B685B689A4231
:102AF00001D9012350E097F90330002B0FDAFB785E
:102B000003F00F021346DB009B1A9B0038337A68F0
:102B100013440433FB60FB6801225A700DE0FA781D
:102B20001346DB009B1A9B0003F5FC737A68134481
:102B30000433FB60FB6800225A70FB6801229A7024
:102B4000FB7803F00F03DAB2FB681A707B6893F826
:102B5000BC33012B01D102231EE07B68012283F8E4
:102B6000BC237B681B68F968184605F019F9FB78E7
:102B700003F00F03002B0AD17B6818687B681B6980
:102B8000D9B27B6803F571731A4605F0F9FA7B68D0
:102B9000002283F8BC23002318461037BD4680BDB1
:102BA00080B584B000AF78600B46FB70FB7803F013
:102BB0000F027B685B689A4201D9012342E097F9D2
:102BC0000330002B0FDAFB7803F00F021346DB0013
:102BD0009B1A9B0038337A6813440433FB60FB680C
:102BE00001225A700FE0FB7803F00F021346DB005E
:102BF0009B1A9B0003F5FC737A6813440433FB6053
:102C0000FB6800225A70FB6800229A70FB7803F080
:102C10000F03DAB2FB681A707B6893F8BC33012BA0
:102C200001D102230EE07B68012283F8BC237B687C
:102C30001B68F968184605F021F97B68002283F8C3
:102C4000BC23002318461037BD4680BD80B58AB02E
:102C500002AF786039607B681B687B617B693B6190
:102C60003A681346DB009B1A9B0038337A6813449A
:102C70000433FB60FB689A69FB685B699A4201D97F
:102C800001236CE0FB685A69FB689B69D31AFB61FE
:102C9000FB689B68FA699A4202D9FB689B68FB61F2
:102CA000FB6903339B08BB612BE0FB685A69FB6837
:102CB0009B69D31AFB61FB689B68FA699A4202D947
:102CC000FB689B68FB61FB6903339B08BB61FB6886
:102CD000D9683B68DAB2FB6998B27B681B69DBB2E2
:102CE00000930346786904F0FDFFFB68DA68FB692E
:102CF0001A44FB68DA60FB689A69FB691A44FB684E
:102D00009A613B685A013B69134403F510639B6960
:102D10009BB2BA699A4209D8FB689A69FB685B69F9
:102D20009A4203D2FB685B69002BBED1FB685A69EB
:102D3000FB689B699A4211D83B6803F00F0301229C
:102D400002FA03F3BB603B6903F500635A6BBB688F
:102D5000DB43396901F5006113404B6300231846DA
:102D60002037BD4680BD000080B586B000AF7860DA
:102D700039607B681B687B617B693B617B693C33A5
:102D800004331B68FB603B685A013B69134403F53D
:102D900030639B68BB607B681B69012B40F0A0809F
:102DA000BB6803F00803002B15D0FB68724A9342FE
:102DB00040F2DD80BB6803F40043002B00F0D780B5
:102DC0003B685A013B69134403F530631A464FF4DC
:102DD00000439360CBE0BB6803F02003002B09D0D5
:102DE0003B685A013B69134403F530631A462023BC
:102DF0009360BCE0BB6803F02803002B40F0B78071
:102E0000FB685D4A93420FD9BB6803F40043002B73
:102E10000AD03B685A013B69134403F530631A46F4
:102E20004FF400439360A2E079683A681346DB00F0
:102E30009B1A9B000B4403F501731A683B68590108
:102E40003B690B4403F530631B69C3F31203D11ACA
:102E500078683A681346DB009B1A9B00034403F52D
:102E60000573196079683A681346DB009B1A9B006A
:102E70000B4403F50273196878683A681346DB005F
:102E80009B1A9B00034403F501731B68194478687F
:102E90003A681346DB009B1A9B00034403F5027358
:102EA00019603B68002B14D179683A681346DB003F
:102EB0009B1A9B000B4403F504731B68002B08D17D
:102EC0007B6818687B6803F571731A46012105F069
:102ED00057F93B68DBB2194678680CF069FE46E0AA
:102EE000FB68264A934224D1BB6803F40043002BBD
:102EF0000AD03B685A013B69134403F530631A4614
:102F00004FF40043936032E0BB6803F02003002BD2
:102F100008D03B685A013B69134403F530631A46F5
:102F2000202393603B68DBB2194678680CF040FEC2
:102F30001DE03B68002B14D179683A681346DB002A
:102F40009B1A9B000B4403F504731B68002B08D1EC
:102F50007B6818687B6803F571731A46002105F0D9
:102F60000FF93B68DBB2194678680CF021FE0023AC
:102F700018461837BD4680BD0A30544F0A31544FA9
:102F800080B586B000AF786039607B681B687B6174
:102F90007B693B617B693C3304331B68FB603B68A6
:102FA0005A013B69134403F530639B68BB60FB68BF
:102FB000154A93420ED9BB6803F40043002B09D095
:102FC0003B685A013B69134403F530631A464FF4DA
:102FD0000043936078680CF0D9FDFB680A4A93427D
:102FE0000CD97B681B69012B08D17B6818687B684A
:102FF00003F571731A46012105F0C2F80023184643
:103000001837BD4680BD00BF0A30544F80B485B02C
:1030100000AF78600B46FB7013463B807B681B68F3
:103020005B6ABB60FB78002B07D13B8819047B6887
:103030001B68BA680A439A6228E07B681B689B6A2F
:103040001B0CBA681344BB600023FB730DE07B6864
:103050001A68FB7B40339B0013445B681B0CBA6807
:103060001344BB60FB7B0133FB73FA7BFB78013BB2
:103070009A42ECD33B8818047B681968FB78013BC3
:10308000BA68024340339B000B445A600023184641
:103090001437BD465DF8047B704780B483B000AF41
:1030A00078600B467B807B681B687A885A620023B5
:1030B00018460C37BD465DF8047B704780B485B078
:1030C00000AF78607B681B68FB607B680122C3F8F7
:1030D000FC237B68002283F8F423FB689B6943F0A0
:1030E0000062FB689A61FB685A6D054B1343FA68EE
:1030F0005365002318461437BD465DF8047B7047BE
:103100000300001080B400AF054B1B68044A43F471
:103110008073136000BFBD465DF8047B704700BF3D
:103120000070004080B582B000AF00237B60234B6D
:103130001B6C224A43F080531364204B1B6C03F03A
:1031400080533B603B681E4B1B681D4A43F4803331
:103150001360FDF757FA786009E0FDF753FA02466D
:103160007B68D31AB3F57A7F01D9032322E0144B8D
:103170005B6803F48033B3F5803FEED1104B1B68DE
:103180000F4A43F400331360FDF73CFA786009E01E
:10319000FDF738FA02467B68D31AB3F57A7F01D976
:1031A000032307E0064B5B6803F40033B3F5003FED
:1031B000EED1002318460837BD4680BD00380240D6
:1031C0000070004080B586B002AF7860FDF71AFA53
:1031D000F8607B68002B01D1012367E07B6893F8DE
:1031E0004130DBB2002B0BD17B68002283F84020FA
:1031F00078680BF0E5FC41F28831786800F05EF801
:103200007B681B681B6823F4F8517B689B68013B53
:103210001A027B681B680A431A607B689B6C0093E8
:10322000FB6800222021786800F056F80346FB7204
:10323000FB7A002B35D17B681B681A681D4B134045
:103240007A68526811067A68D26811437A68D2693E
:1032500011437A68126A11437A6812680B4313604B
:103260007B681B685A68144B13407A681269110412
:103270007A68526911437A68926911437A681268D0
:103280000B4353607B681B681A687B681B6842F0BD
:1032900001021A607B6800225A647B68012283F86D
:1032A00041207B68002283F84020FB7A18461037C3
:1032B000BD4680BD2FFFFF00FEF8E0FF80B483B065
:1032C00000AF786039607B683A689A6400BF0C3759
:1032D000BD465DF8047B704780B584B000AFF860F0
:1032E000B9603B601346FB711AE0BB69B3F1FF3F65
:1032F00016D0FDF787F902463B68D31ABA699A429D
:1033000002D3BB69002B0BD1FB68042283F8412058
:10331000FB685B6C43F00102FB685A6401230EE01A
:10332000FB681B689A68BB681340002B14BF01231D
:103330000023DBB21A46FB799A42D6D10023184605
:103340001037BD4680BD000080B586B000AF786004
:103350000023FB757B68002B01D1012391E27B6880
:103360001B6803F00103002B00F08780964B9B68DD
:1033700003F00C03042B0CD0934B9B6803F00C035D
:10338000082B12D1904B5B6803F48003B3F5800FD8
:103390000BD18D4B1B6803F40033002B6CD07B6882
:1033A0005B68002B68D101236BE27B685B68B3F537
:1033B000803F06D1844B1B68834A43F480331360FB
:1033C0002EE07B685B68002B0CD17F4B1B687E4A2C
:1033D00023F4803313607C4B1B687B4A23F48023E7
:1033E00013601DE07B685B68B3F5A02F0CD1764BB2
:1033F0001B68754A43F480231360734B1B68724A41
:1034000043F4803313600BE06F4B1B686E4A23F468
:10341000803313606C4B1B686B4A23F4802313606A
:103420007B685B68002B13D0FDF7ECF8386108E08F
:10343000FDF7E8F802463B69D31A642B01D9032350
:103440001FE2614B1B6803F40033002BF0D014E043
:10345000FDF7D8F8386108E0FDF7D4F802463B697B
:10346000D31A642B01D903230BE2574B1B6803F4D7
:103470000033002BF0D100E000BF7B681B6803F035
:103480000203002B69D0504B9B6803F00C03002B08
:103490000BD04D4B9B6803F00C03082B1CD14A4BFF
:1034A0005B6803F48003002B16D1474B1B6803F0C5
:1034B0000203002B05D07B68DB68012B01D00123C0
:1034C000DFE1414B1B6823F0F8027B681B69DB00DE
:1034D0003D4913430B6040E07B68DB68002B23D041
:1034E000394B1B68384A43F001031360FDF78AF833
:1034F000386108E0FDF786F802463B69D31A022BD3
:1035000001D90323BDE1304B1B6803F00203002BFC
:10351000F0D02D4B1B6823F0F8027B681B69DB00A1
:10352000294913430B6018E0274B1B68264A23F0F8
:1035300001031360FDF766F8386108E0FDF762F8F3
:1035400002463B69D31A022B01D9032399E11E4B92
:103550001B6803F00203002BF0D17B681B6803F0AB
:103560000803002B38D07B685B69002B19D0164B01
:103570005B6F154A43F001035367FDF743F8386169
:1035800008E0FDF73FF802463B69D31A022B01D948
:10359000032376E10C4B5B6F03F00203002BF0D0AA
:1035A0001AE0094B5B6F084A23F001035367FDF7EC
:1035B00029F838610AE0FDF725F802463B69D31A7D
:1035C000022B03D903235CE100380240914B5B6F6F
:1035D00003F00203002BEED17B681B6803F00403A9
:1035E000002B00F0A4808B4B1B6C03F08053002B4E
:1035F0000DD1884B1B6C874A43F080531364854B75
:103600001B6C03F08053BB60BB680123FB75824BCE
:103610001B6803F48073002B18D17F4B1B687E4A14
:1036200043F480731360FCF7EDFF386108E0FCF7AA
:10363000E9FF02463B69D31A642B01D9032320E139
:10364000754B1B6803F48073002BF0D07B689B687C
:10365000012B06D16F4B1B6F6E4A43F001031367BA
:103660002DE07B689B68002B0CD16A4B1B6F694A6D
:1036700023F001031367674B1B6F664A23F00403B3
:1036800013671CE07B689B68052B0CD1614B1B6F9B
:10369000604A43F0040313675E4B1B6F5D4A43F0BF
:1036A000010313670BE05B4B1B6F5A4A23F00103C6
:1036B0001367584B1B6F574A23F0040313677B684B
:1036C0009B68002B15D0FCF79DFF38610AE0FCF7E2
:1036D00099FF02463B69D31A41F28832934201D9DD
:1036E0000323CEE04B4B1B6F03F00203002BEED005
:1036F00014E0FCF787FF38610AE0FCF783FF02461D
:103700003B69D31A41F28832934201D90323B8E0CE
:10371000404B1B6F03F00203002BEED1FB7D012B0E
:1037200005D13C4B1B6C3B4A23F0805313647B68F0
:103730009B69002B00F0A480364B9B6803F00C03C0
:10374000082B6BD07B689B69022B49D1314B1B68DE
:10375000304A23F080731360FCF754FF386108E0AF
:10376000FCF750FF02463B69D31A022B01D9032311
:1037700087E0284B1B6803F00073002BF0D17B68B7
:10378000DA697B681B6A1A437B685B6A9B011A4390
:103790007B689B6A5B08013B1B041A437B68DB6AFE
:1037A0001B0613431B4A43F000535360194B1B681D
:1037B000184A43F080731360FCF724FF386108E077
:1037C000FCF720FF02463B69D31A022B01D90323E1
:1037D00057E0104B1B6803F00073002BF0D04FE054
:1037E0000C4B1B680B4A23F080731360FCF70AFF35
:1037F000386108E0FCF706FF02463B69D31A022B4A
:1038000001D903233DE0034B1B6803F00073002B39
:10381000F0D135E000380240007000401B4B5B687F
:10382000FB607B689B69012B28D0FB6803F4800256
:103830007B68DB699A4221D1FB6803F03F027B6819
:103840001B6A9A421AD1FA6847F6C07313407A6825
:10385000526A9201934211D1FB6803F440327B68B3
:103860009B6A5B08013B1B049A4207D1FB6803F08B
:1038700070627B68DB6A1B069A4201D0012300E07C
:10388000002318461837BD4680BD00BF00380240EF
:1038900080B584B000AF786039600023FB607B683E
:1038A000002B01D10123D0E06A4B1B6803F00F030A
:1038B0003A689A4210D9674B1B6823F00F0265499A
:1038C0003B6813430B60634B1B6803F00F033A68BC
:1038D0009A4201D00123B8E07B681B6803F0020321
:1038E000002B20D07B681B6803F00403002B05D05D
:1038F000594B9B68584A43F4E05393607B681B68BC
:1039000003F00803002B05D0534B9B68524A43F445
:1039100060439360504B9B6823F0F0027B689B6888
:103920004D4913438B607B681B6803F00103002B38
:1039300040D07B685B68012B07D1474B1B6803F4C1
:103940000033002B15D101237FE07B685B68022BDD
:1039500007D1414B1B6803F00073002B09D10123F1
:1039600073E03D4B1B6803F00203002B01D10123E0
:103970006BE0394B9B6823F003027B685B68364938
:1039800013438B60FCF73EFEF8600AE0FCF73AFE5A
:103990000246FB68D31A41F28832934201D90323CD
:1039A00053E02D4B9B6803F00C027B685B689B0027
:1039B0009A42EBD1274B1B6803F00F033A689A42F7
:1039C00010D2244B1B6823F00F0222493B6813439B
:1039D0000B60204B1B6803F00F033A689A4201D03A
:1039E000012332E07B681B6803F00403002B08D03E
:1039F000194B9B6823F4E0527B68DB68164913433C
:103A00008B607B681B6803F00803002B09D0124B06
:103A10009B6823F460427B681B69DB000E491343FB
:103A20008B6000F021F801460B4B9B681B0903F0EB
:103A30000F030A4AD35C21FA03F3094A1360094BC6
:103A40001B6818460BF084FC002318461037BD464F
:103A500080BD00BF003C0240003802405018010801
:103A60002801002000000020F0B585B000AF002341
:103A70007B600023FB6000233B600023BB60504B56
:103A80009B6803F00C03042B07D0082B08D0002BF5
:103A900040F08D804B4BBB608CE04B4BBB6089E0B2
:103AA000474B5B6803F03F037B60454B5B6803F467
:103AB0008003002B23D0424B5B689B094FF000042E
:103AC00040F2FF114FF0000203EA010504EA02068A
:103AD0003D4A02FB06F1002202FB05F20A443A4984
:103AE000A5FB0101531819467B684FF000041A46E4
:103AF0002346FCF78DFB03460C46FB6049E0304B48
:103B00005B689B094FF0000440F2FF114FF0000288
:103B100003EA010504EA0206294632464FF0000393
:103B20004FF00004540144EAD1644B011946224687
:103B3000491B62EB06024FF000034FF000049401B2
:103B400044EA91648B015B1A64EB02044FF00001BC
:103B50004FF00002E20042EA5372D9000B461446CD
:103B60005B1944EB06044FF000014FF00002A20283
:103B700042EA935299020B461446184621467B6846
:103B80004FF000041A462346FCF742FB03460C465E
:103B9000FB600B4B5B681B0C03F0030301335B0002
:103BA0003B60FA683B68B2FBF3F3BB6002E0054B95
:103BB000BB6000BFBB6818461437BD46F0BD00BFF0
:103BC000003802400024F40040787D0180B400AF4A
:103BD000034B1B681846BD465DF8047B704700BF69
:103BE0002801002080B500AFFFF7F0FF0146054B2C
:103BF0009B689B0A03F00703034AD35C21FA03F393
:103C0000184680BD003802406018010880B500AF3A
:103C1000FFF7DCFF0146054B9B685B0B03F00703D6
:103C2000034AD35C21FA03F3184680BD00380240F2
:103C30006018010880B483B000AF786039607B6899
:103C40000F221A60124B9B6803F003027B685A60D4
:103C50000F4B9B6803F0F0027B689A600C4B9B68EB
:103C600003F4E0527B68DA60094B9B68DB0803F4DD
:103C7000E0527B681A61074B1B6803F00F023B6838
:103C80001A6000BF0C37BD465DF8047B704700BF6B
:103C900000380240003C024080B588B000AF786038
:103CA00000237B6100233B610023FB600023FB6159
:103CB0000023BB617B681B6803F00103002B12D05B
:103CC000694B9B68684A23F400039360664B9A68CB
:103CD0007B685B6B644913438B607B685B6B002B79
:103CE00001D10123FB617B681B6803F40023002BD7
:103CF00017D05D4BD3F88C3023F440127B68DB6B1C
:103D000059491343C1F88C307B68DB6BB3F5801FD6
:103D100001D10123FB617B68DB6B002B01D1012307
:103D2000BB617B681B6803F48013002B17D04E4BDC
:103D3000D3F88C3023F440027B681B6C4A49134350
:103D4000C1F88C307B681B6CB3F5800F01D1012367
:103D5000FB617B681B6C002B01D10123BB617B687D
:103D60001B6803F08073002B01D00123FB617B688B
:103D70001B6803F02003002B00F08B803A4B1B6C78
:103D8000394A43F080531364374B1B6C03F0805364
:103D9000BB60BB68354B1B68344A43F480731360C7
:103DA000FCF730FC786108E0FCF72CFC02467B69EC
:103DB000D31A642B01D9032355E32C4B1B6803F45E
:103DC0008073002BF0D0284B1B6F03F440733B61D2
:103DD0003B69002B35D07B681B6B03F440733A6959
:103DE0009A422ED0204B1B6F23F440733B611E4B35
:103DF0001B6F1D4A43F4803313671B4B1B6F1A4A1A
:103E000023F480331367184A3B691367164B1B6F03
:103E100003F00103012B14D1FCF7F4FB78610AE0F5
:103E2000FCF7F0FB02467B69D31A41F288329342D9
:103E300001D9032317E30C4B1B6F03F00203002B84
:103E4000EED07B681B6B03F44073B3F5407F11D158
:103E5000054B9B6823F4F8127B68196B044B0B40ED
:103E6000014913438B600BE00038024000700040B2
:103E7000FFFCFF0FB04B9B68AF4A23F4F81393602D
:103E8000AD4B1A6F7B681B6BC3F30B03AA4913433B
:103E90000B677B681B6803F01003002B10D0A64B48
:103EA000D3F88C30A44A23F08073C2F88C30A24B34
:103EB000D3F88C207B689B6B9F491343C1F88C30EF
:103EC0007B681B6803F48043002B0AD09A4BD3F81D
:103ED000903023F440327B685B6E97491343C1F8FE
:103EE00090307B681B6803F40043002B0AD0924B90
:103EF000D3F8903023F440227B689B6E8E491343A5
:103F0000C1F890307B681B6803F48033002B0AD023
:103F1000894BD3F8903023F440127B68DB6E8649DE
:103F20001343C1F890307B681B6803F40033002B07
:103F30000AD0814BD3F8903023F440027B681B6F8A
:103F40007D491343C1F890307B681B6803F0400340
:103F5000002B0AD0784BD3F8903023F003027B6813
:103F60005B6C75491343C1F890307B681B6803F0A4
:103F70008003002B0AD0704BD3F8903023F00C0252
:103F80007B689B6C6C491343C1F890307B681B685D
:103F900003F48073002B0AD0674BD3F8903023F0E2
:103FA00030027B68DB6C64491343C1F890307B6856
:103FB0001B6803F40073002B0AD05F4BD3F89030DA
:103FC00023F0C0027B681B6D5B491343C1F890303E
:103FD0007B681B6803F48063002B0AD0564BD3F830
:103FE000903023F440727B685B6D53491343C1F8F2
:103FF00090307B681B6803F40063002B0AD04E4BA3
:10400000D3F8903023F440627B689B6D4A49134398
:10401000C1F890307B681B6803F48053002B0AD0F2
:10402000454BD3F8903023F440527B68DB6D424916
:104030001343C1F890307B681B6803F40053002BD6
:104040000AD03D4BD3F8903023F440427B681B6E7E
:1040500039491343C1F890307B681B6803F480032F
:10406000002B0AD0344BD3F8903023F080627B6869
:104070009B6F31491343C1F890307B681B6803F490
:104080000013002B11D02C4BD3F8903023F000629A
:104090007B68DB6F28491343C1F890307B68DB6F86
:1040A000B3F1006F01D10123BB617B681B6803F092
:1040B0000803002B01D00123BB617B681B6803F45C
:1040C0008023002B0AD01C4BD3F8903023F0407291
:1040D0007B685B6F18491343C1F890307B681B689D
:1040E00003F40003002B0BD0134BD3F8903023F0D4
:1040F00080527B68D3F880300F491343C1F8903069
:10410000FB69012B05D07B681B68B3F1007F40F091
:10411000D880094B1B68084A23F080631360FCF7C2
:1041200071FA78610AE0FCF76DFA02467B69D31AEE
:10413000642B03D9032396E1003802406C4B1B68C3
:1041400003F00063002BEED17B681B6803F00103D2
:10415000002B21D07B685B6B002B1DD1644BD3F807
:1041600084301B0C03F003033B61614BD3F88430B4
:104170001B0E03F00F03FB607B685B689A013B69D1
:104180001B041A43FB681B061A437B689B681B07CA
:1041900057491343C1F884307B681B6803F400233C
:1041A000002B04D07B68DB6BB3F5801F0AD07B68E3
:1041B0001B6803F48013002B2ED07B681B6CB3F5B7
:1041C000800F29D14A4BD3F884301B0C03F0030332
:1041D0003B61474BD3F884301B0F03F00703FB60B0
:1041E0007B685B689A013B691B041A437B68DB6848
:1041F0001B061A43FB681B073D491343C1F8843073
:104200003B4BD3F88C3023F01F027B685B6A013B89
:1042100037491343C1F88C307B681B6803F0807307
:10422000002B1DD0324BD3F884301B0E03F00F034C
:104230003B612F4BD3F884301B0F03F00703FB6067
:104240007B685B689A017B681B691B041A433B69A6
:104250001B061A43FB681B0725491343C1F884302A
:104260007B681B6803F00073002B11D07B685B68D0
:104270009A017B681B691B041A437B68DB681B0679
:104280001A437B689B681B0719491343C1F88430A4
:10429000174B1B68164A43F080631360FCF7B2F9B2
:1042A000786108E0FCF7AEF902467B69D31A642B0B
:1042B00001D90323D7E00E4B1B6803F00063002BEA
:1042C000F0D0BB69012B40F0CD80094B1B68084A38
:1042D00023F080531360FCF795F978610AE0FCF74E
:1042E00091F902467B69D31A642B03D90323BAE000
:1042F000003802405E4B1B6803F00053B3F1005FCF
:10430000EDD07B681B6803F40023002B03D07B688F
:10431000DB6B002B09D07B681B6803F48013002B38
:104320002ED07B681B6C002B2AD1514BD3F88830E0
:104330001B0C03F003033B614D4BD3F888301B0F7C
:1043400003F00703FB607B685B699A013B691B0410
:104350001A437B689B691B061A43FB681B07444989
:104360001343C1F88830424BD3F88C3023F4F85211
:104370007B689B6A013B1B023D491343C1F88C30AB
:104380007B681B6803F40013002B22D07B68DB6F73
:10439000B3F1006F1DD1364BD3F888301B0E03F0FC
:1043A0000F033B61324BD3F888301B0F03F0070338
:1043B000FB607B685B699A017B681B6A1B041A437C
:1043C0003B691B061A43FB681B0729491343C1F8C5
:1043D00088307B681B6803F00803002B28D0244B2F
:1043E000D3F888301B0E03F00F033B61204BD3F84A
:1043F00088301B0C03F00303FB607B685B699A0148
:10440000FB681B041A433B691B061A437B68DB6984
:104410001B0717491343C1F88830154BD3F88C306C
:1044200023F440327B68DB6A11491343C1F88C30B6
:104430000F4B1B680E4A43F080531360FCF7E2F801
:10444000786108E0FCF7DEF802467B69D31A642B3A
:1044500001D9032307E0064B1B6803F00053B3F1B7
:10446000005FEFD1002318462037BD4680BD00BF56
:104470000038024080B582B000AF78607B68002BC6
:1044800001D101236BE07B685B7FDBB2002B05D1A0
:104490007B6800221A7778680AF022FC7B68022287
:1044A0005A777B681B68CA225A627B681B68532252
:1044B0005A62786800F000FB0346002B08D07B6846
:1044C0001B68FF225A627B6804225A77012346E068
:1044D0007B681B6899687B681A68234B0B40936064
:1044E0007B681B6899687B685A687B681B691A43FC
:1044F0007B685B691A437B681B680A439A607B6828
:104500001B687A68D2681A617B681B6819697B68C6
:104510009B681A047B681B680A431A617B681B68E6
:10452000DA687B681B6822F08002DA607B681B68AF
:10453000DA6C7B681B6822F00802DA647B681B680F
:10454000D96C7B689A697B681B680A43DA647B686C
:104550001B68FF225A627B6801225A7700231846A3
:104560000837BD4680BD00BFBFFF8FFF90B587B045
:1045700000AFF860B9607A6000237B61FB681B7F45
:10458000012B01D10223A8E0FB6801221A77FB6806
:1045900002225A777B68002B26D1FB681B689B6838
:1045A00003F04003002B02D1BB6800221A73BB68E2
:1045B0001B78184600F0ACFA03461C04BB685B7815
:1045C000184600F0A5FA03461B021C43BB689B7803
:1045D000184600F09DFA034644EA0302BB681B7BC1
:1045E0001B0413437B6118E0FB681B689B6803F0A6
:1045F0004003002B02D1BB6800221A73BB681B78F2
:104600001A04BB685B781B021343BA6892781A439A
:10461000BB681B7B1B0413437B61FB681B68CA22BE
:104620005A62FB681B6853225A62F86800F044FA29
:104630000346002B0BD0FB681B68FF225A62FB6805
:1046400004225A77FB6800221A77012345E0FB68B1
:104650001A687969234B0B401360FB681B689A68E2
:10466000FB681B6822F480229A60FB681B689968CB
:10467000BB681A69BB685B691A43FB681B680A431D
:104680009A60FB681B68DA68FB681B6822F080028E
:10469000DA60FB681B689B6803F02003002B11D1D4
:1046A000F86800F0E1F90346002B0BD0FB681B68AB
:1046B000FF225A62FB6804225A77FB6800221A77AD
:1046C00001230AE0FB681B68FF225A62FB68012293
:1046D0005A77FB6800221A77002318461C37BD461C
:1046E00090BD00BF7F7F7F0090B587B000AFF860BE
:1046F000B9607A6000237B61FB681B7F012B01D1CD
:10470000022392E0FB6801221A77FB6802225A77A3
:104710007B68002B0ED1BB685B7803F01003002B85
:1047200008D0BB685B7823F01003DBB20A33DAB23F
:10473000BB685A707B68002B1CD1BB68DB781846BD
:1047400000F0E6F903461C04BB685B78184600F0ED
:10475000DFF903461B021C43BB689B78184600F038
:10476000D7F9034644EA0302BB681B785B03134393
:104770007B610EE0BB68DB781A04BB685B781B02C8
:104780001343BA6892781A43BB681B785B031343E0
:104790007B61FB681B68CA225A62FB681B68532254
:1047A0005A62F86800F088F90346002B0BD0FB68CA
:1047B0001B68FF225A62FB6804225A77FB680022BA
:1047C0001A77012331E0FB681A687969194B0B40AD
:1047D0005360FB681B68DA68FB681B6822F0800284
:1047E000DA60FB681B689B6803F02003002B11D183
:1047F000F86800F039F90346002B0BD0FB681B6802
:10480000FF225A62FB6804225A77FB6800221A775B
:1048100001230AE0FB681B68FF225A62FB68012241
:104820005A77FB6800221A77002318461C37BD46CA
:1048300090BD00BF3FFFFF0090B589B000AFF860AA
:10484000B9607A600023BB610023FB6100237B61B8
:10485000FB681B7F012B01D1022301E1FB680122D0
:104860001A77FB6802225A777B68002B37D1FB68E6
:104870001B689B6803F04003002B02D1BB68002239
:104880001A73BB681B78184600F042F903461C04F3
:10489000BB685B78184600F03BF903461B021C43DB
:1048A000BB689B78184600F033F9034644EA0302DC
:1048B000BB681B7B1B0442EA0304BB6893F82430EB
:1048C000184600F025F903461B0644EA0302BB68BC
:1048D0001B6A1A43BB689B691343FB6123E0FB68B7
:1048E0001B689B6803F04003002B02D1BB680022C9
:1048F0001A73BB681B781A04BB685B781B021343EE
:10490000BA6892781A43BB681B7B1B041A43BB68C6
:1049100093F824301B061A43BB681B6A1A43BB6812
:104920009B691343FB61BB685A68BB68DB6913432F
:104930007B61FB681B68CA225A62FB681B685322B2
:104940005A62BB689B6AB3F5807F3FD1FB681B68E6
:104950009A68FB681B6822F480729A60FB681B6887
:104960009A68FB681B6822F480529A60FBF74AFE43
:10497000B86113E0FBF746FE0246BB69D31AB3F5F4
:104980007A7F0BD9FB681B68FF225A62FB680322FF
:104990005A77FB6800221A77032361E0FB681B68E3
:1049A000DB6803F00103002BE4D0FB681B68FA69A5
:1049B000DA61FB681B687A695A64FB681B689A684D
:1049C000FB681B6842F480729A603EE0FB681B68DB
:1049D0009A68FB681B6822F400729A60FB681B6887
:1049E0009A68FB681B6822F400529A60FBF70AFE83
:1049F000B86113E0FBF706FE0246BB69D31AB3F5B4
:104A00007A7F0BD9FB681B68FF225A62FB6803227E
:104A10005A77FB6800221A77032321E0FB681B68A2
:104A2000DB6803F00203002BE4D0FB681B68FA6923
:104A30001A62FB681B687A699A64FB681B689A684B
:104A4000FB681B6842F400729A60FB681B68FF22D7
:104A50005A62FB6801225A77FB6800221A7700230A
:104A600018462437BD4690BD80B584B000AF78604D
:104A70000023FB607B681B68DA687B681B6822F098
:104A8000A002DA60FBF7BEFDF86009E0FBF7BAFDB3
:104A90000246FB68D31AB3F57A7F01D9032307E0F6
:104AA0007B681B68DB6803F02003002BEED000233B
:104AB00018461037BD4680BD80B584B000AF786021
:104AC0000023FB607B681B68DB6803F04003002B5E
:104AD00019D17B681B684FF0FF32DA60FBF792FD5B
:104AE000F86009E0FBF78EFD0246FB68D31AB3F5C8
:104AF0007A7F01D9032307E07B681B68DB6803F03A
:104B00004003002BEED0002318461037BD4680BD71
:104B100080B485B000AF0346FB710023FB6005E065
:104B2000FB680133FB60FB790A3BFB71FB79092BC6
:104B3000F6D8FB68DBB21B01DAB2FB791343DBB2B8
:104B400018461437BD465DF8047B704780B487B0C3
:104B500000AFF860B9607A6000237B61FB681B7F5F
:104B6000012B01D102233EE0FB6801221A77FB688A
:104B700002225A77FB681B689A681E4B13407B61C0
:104B80007A69BB6813437B61FB681B68CA225A625F
:104B9000FB681B6853225A62FB681B68DA6CFB686F
:104BA0001B6822F00602DA64FB681B68D96CFB689C
:104BB0001B687A680A43DA64FB681B687A699A6042
:104BC000FB681B689A68FB681B6842F400629A6085
:104BD000FB681B68FF225A62FB6801225A77FB6858
:104BE00000221A77002318461C37BD465DF8047B67
:104BF000704700BFF7F7FFFF80B582B000AF786065
:104C000039607B68002B01D1012325E07B6893F894
:104C10002C30DBB2002B06D17B68002283F82D20DC
:104C200078680AF08BFB7B68022283F82C207B6873
:104C30001A687B6804331946104601F01FFF7B6831
:104C400018687B685B681A46396801F089FF7B68E1
:104C5000012283F82C20002318460837BD4680BD6A
:104C600080B582B000AF78607B68002B01D1012352
:104C70001DE07B6893F83D30DBB2002B06D17B68EA
:104C8000002283F83C2078680AF044F87B6802220E
:104C900083F83D207B681A687B6804331946104608
:104CA00000F006FB7B68012283F83D2000231846B4
:104CB0000837BD4680BD000080B485B000AF786085
:104CC0007B681B68DA687B681B6842F00102DA6067
:104CD0007B681B689A680C4B1340FB60FB68062BD3
:104CE0000BD0FB68B3F5803F07D07B681B681A6860
:104CF0007B681B6842F001021A60002318461437D3
:104D0000BD465DF8047B70470700010080B582B0A6
:104D100000AF78607B68002B01D101231DE07B6828
:104D200093F83D30DBB2002B06D17B68002283F87C
:104D30003C20786800F015F87B68022283F83D205B
:104D40007B681A687B6804331946104600F0B0FA95
:104D50007B68012283F83D20002318460837BD46B2
:104D600080BD80B483B000AF786000BF0C37BD4613
:104D70005DF8047B704780B582B000AF78607B68D7
:104D80001B681B6903F00203022B22D17B681B689E
:104D9000DB6803F00203022B1BD17B681B686FF0FA
:104DA00002021A617B6801221A777B681B689B6983
:104DB00003F00303002B03D0786800F05BFA05E0F2
:104DC000786800F04DFA786800F05EFA7B6800229F
:104DD0001A777B681B681B6903F00403042B22D13C
:104DE0007B681B68DB6803F00403042B1BD17B6822
:104DF0001B686FF004021A617B6802221A777B68D5
:104E00001B689B6903F44073002B03D0786800F0A3
:104E100031FA05E0786800F023FA786800F034FA97
:104E20007B6800221A777B681B681B6903F0080304
:104E3000082B22D17B681B68DB6803F00803082B72
:104E40001BD17B681B686FF008021A617B68042223
:104E50001A777B681B68DB6903F00303002B03D020
:104E6000786800F007FA05E0786800F0F9F97868EA
:104E700000F00AFA7B6800221A777B681B681B69BE
:104E800003F01003102B22D17B681B68DB6803F052
:104E90001003102B1BD17B681B686FF010021A6186
:104EA0007B6808221A777B681B68DB6903F4407310
:104EB000002B03D0786800F0DDF905E0786800F099
:104EC000CFF9786800F0E0F97B6800221A777B68F8
:104ED0001B681B6903F00103012B0ED17B681B6863
:104EE000DB6803F00103012B07D17B681B686FF0BF
:104EF00001021A61786809F0A9FC7B681B681B69CC
:104F000003F08003802B0ED17B681B68DB6803F005
:104F10008003802B07D17B681B686FF080021A61C9
:104F2000786800F0C1FC7B681B681B6903F4807320
:104F3000B3F5807F0ED17B681B68DB6803F08003CC
:104F4000802B07D17B681B686FF480721A617868C8
:104F500000F0B4FC7B681B681B6903F04003402B26
:104F60000ED17B681B68DB6803F04003402B07D140
:104F70007B681B686FF040021A61786800F08EF958
:104F80007B681B681B6903F02003202B0ED17B6814
:104F90001B68DB6803F02003202B07D17B681B68AC
:104FA0006FF020021A61786800F074FC00BF0837C7
:104FB000BD4680BD80B584B000AFF860B9607A604E
:104FC000FB6893F83C30012B01D102238AE0FB6897
:104FD000012283F83C20FB68022283F83D207B6895
:104FE000002B1BD1FB681868BB681968BB685A683E
:104FF000BB68DB6800F0FCF9FB681B689A69FB681A
:105000001B6822F00C029A61FB681B689969BB68F7
:105010009A68FB681B680A439A615AE07B68042B14
:105020001CD1FB681868BB681968BB685A68BB6804
:10503000DB6800F080FAFB681B689A69FB681B68F4
:1050400022F440629A61FB681B689969BB689B689F
:105050001A02FB681B680A439A613AE07B68082BD6
:105060001BD1FB681868BB681968BB685A68BB68C5
:10507000DB6800F0CDFAFB681B68DA69FB681B6827
:1050800022F00C02DA61FB681B68D969BB689A6878
:10509000FB681B680A43DA611BE0FB681868BB68A1
:1050A0001968BB685A68BB68DB6800F0EDFAFB68FA
:1050B0001B68DA69FB681B6822F44062DA61FB68EE
:1050C0001B68D969BB689B681A02FB681B680A43A6
:1050D000DA61FB68012283F83D20FB68002283F837
:1050E0003C20002318461037BD4680BD80B584B0F3
:1050F00000AF786039607B6893F83C30012B01D1B8
:105100000223A6E07B68012283F83C207B68022210
:1051100083F83D207B681B689B68FB60FA684F4BF7
:105120001340FB60FB6823F47F43FB607B681B68D4
:10513000FA689A603B681B68402B67D0402B0BD8FD
:10514000102B73D0102B02D8002B6FD078E0202BBF
:105150006CD0302B6AD073E0702B0DD0702B04D83C
:10516000502B33D0602B41D06AE0B3F5805F66D01E
:10517000B3F5005F17D063E07B6818683B689968F7
:105180003B685A683B68DB6800F0D6FA7B681B68AE
:105190009B68FB60FB6843F07703FB607B681B68E0
:1051A000FA689A604CE07B6818683B6899683B68CD
:1051B0005A683B68DB6800F0BFFA7B681B689A6836
:1051C0007B681B6842F480429A6039E07B6818680B
:1051D0003B6859683B68DB681A4600F07DF97B68DC
:1051E0001B685021184600F08CFA29E07B6818688B
:1051F0003B6859683B68DB681A4600F0D9F97B6860
:105200001B686021184600F07CFA19E07B6818687A
:105210003B6859683B68DB681A4600F05DF97B68BB
:105220001B684021184600F06CFA09E07B681A6898
:105230003B681B681946104600F063FA00E000BFA7
:105240007B68012283F83D207B68002283F83C20A4
:10525000002318461037BD4680BD00BF88FFFEFF03
:1052600080B483B000AF786000BF0C37BD465DF8F6
:10527000047B704780B483B000AF786000BF0C3708
:10528000BD465DF8047B704780B483B000AF7860A2
:1052900000BF0C37BD465DF8047B704780B483B017
:1052A00000AF786000BF0C37BD465DF8047B7047E7
:1052B00080B485B000AF786039607B681B68FB60A4
:1052C0007B68404A934213D07B68B3F1804F0FD084
:1052D0007B683D4A93420BD07B683C4A934207D09F
:1052E0007B683B4A934203D07B683A4A934208D199
:1052F000FB6823F07003FB603B685B68FA6813434C
:10530000FB607B682F4A93422BD07B68B3F1804FC0
:1053100027D07B682C4A934223D07B682B4A934248
:105320001FD07B682A4A93421BD07B68294A93424C
:1053300017D07B68284A934213D07B68274A934250
:105340000FD07B68264A93420BD07B68254A934254
:1053500007D07B68244A934203D07B68234A934258
:1053600008D1FB6823F44073FB603B68DB68FA6894
:105370001343FB60FB6823F080023B685B691343C7
:10538000FB607B68FA681A603B689A687B68DA623F
:105390003B681A687B689A627B680A4A934203D02A
:1053A0007B680C4A934203D13B681A697B681A6395
:1053B0007B6801225A6100BF1437BD465DF8047B4B
:1053C000704700BF0000014000040040000800409A
:1053D000000C004000040140004001400044014036
:1053E0000048014000180040001C00400020004020
:1053F00080B487B000AFF860B9607A603B60FB684A
:105400001B6A23F00102FB681A62FB689B697B61DF
:10541000FB681B6A3B61FB68284A93421BD0FB6810
:10542000B3F1804F17D0FB68254A934213D0FB6835
:10543000244A93420FD0FB68234A93420BD0FB6867
:10544000224A934207D0FB68214A934203D0FB686B
:10545000204A934201D1012300E00023002B08D011
:105460007B6923F003037B617A697B6813437B616B
:1054700003E07B6943F001037B617B6923F0F00368
:105480007B613B681B01DBB27A6913437B613B693B
:1054900023F00A033B61BB6803F00A033A69134334
:1054A0003B61FB687A699A61FB683A691A6200BFDE
:1054B0001C37BD465DF8047B704700BF000001400B
:1054C0000004004000080040000C004000040140BF
:1054D000004001400018004080B487B000AFF86081
:1054E000B9607A60FB681B6A7B61FB681B6A23F00A
:1054F0000102FB681A62FB689B693B613B6923F010
:10550000F0033B617B681B013A6913433B617B6994
:1055100023F00A037B617A69BB6813437B61FB68F4
:105520003A699A61FB687A691A6200BF1C37BD4606
:105530005DF8047B704780B487B000AFF860B96055
:105540007A603B60FB681B6A23F01002FB681A62FA
:10555000FB689B697B61FB681B6A3B617B6923F489
:1055600040737B617B681B027A6913437B617B69B3
:1055700023F470437B613B681B039BB27A6913433E
:105580007B613B6923F0A0033B61BB681B0103F017
:10559000A0033A6913433B61FB687A699A61FB682F
:1055A0003A691A6200BF1C37BD465DF8047B70473C
:1055B00080B487B000AFF860B9607A60FB681B6A9E
:1055C00023F01002FB681A62FB689B697B61FB6831
:1055D0001B6A3B617B6923F470437B617B681B031F
:1055E0007A6913437B613B6923F0A0033B61BB688D
:1055F0001B013A6913433B61FB687A699A61FB6856
:105600003A691A6200BF1C37BD465DF8047B7047DB
:1056100080B487B000AFF860B9607A603B60FB6827
:105620001B6A23F48072FB681A62FB68DB697B618A
:10563000FB681B6A3B617B6923F003037B617A692A
:105640007B6813437B617B6923F0F0037B613B68DC
:105650001B01DBB27A6913437B613B6923F420634E
:105660003B61BB681B0203F420633A6913433B614F
:10567000FB687A69DA61FB683A691A6200BF1C3715
:10568000BD465DF8047B704780B487B000AFF8601A
:10569000B9607A603B60FB681B6A23F48052FB6848
:1056A0001A62FB68DB697B61FB681B6A3B617B6993
:1056B00023F440737B617B681B027A6913437B612F
:1056C0007B6923F470437B613B681B039BB27A695F
:1056D00013437B613B6923F420433B61BB681B039D
:1056E00003F420433A6913433B61FB687A69DA614A
:1056F000FB683A691A6200BF1C37BD465DF8047B3F
:10570000704780B485B000AF786039607B689B6873
:10571000FB60FB6823F07003FB603A68FB6813438F
:1057200043F00703FB607B68FA689A6000BF143798
:10573000BD465DF8047B704780B487B000AFF86069
:10574000B9607A603B60FB689B687B617B6923F48E
:105750007F437B613B681A027B681A43BB68134333
:105760007A6913437B61FB687A699A6000BF1C37D2
:10577000BD465DF8047B704780B485B000AF7860AB
:1057800039607B6893F83C30012B01D102236DE036
:105790007B68012283F83C207B68022283F83D204D
:1057A0007B681B685B68FB607B681B689B68BB60F1
:1057B0007B681B68304A934204D07B681B682F4A81
:1057C000934208D1FB6823F47003FB603B685B687D
:1057D000FA681343FB60FB6823F07003FB603B68CF
:1057E0001B68FA681343FB607B681B68FA685A60A1
:1057F0007B681B68204A934222D07B681B68B3F108
:10580000804F1DD07B681B681D4A934218D07B686F
:105810001B681C4A934213D07B681B681A4A934248
:105820000ED07B681B68154A934209D07B681B68C1
:10583000164A934204D07B681B68154A93420CD1E8
:10584000BB6823F08003BB603B689B68BA68134366
:10585000BB607B681B68BA689A607B68012283F82A
:105860003D207B68002283F83C2000231846143733
:10587000BD465DF8047B7047000001400004014014
:105880000004004000080040000C004000400140BF
:105890000018004080B483B000AF786000BF0C37C0
:1058A000BD465DF8047B704780B483B000AF78607C
:1058B00000BF0C37BD465DF8047B704780B483B0F1
:1058C00000AF786000BF0C37BD465DF8047B7047C1
:1058D00080B582B000AF78607B68002B01D10123D6
:1058E00040E07B685B6F002B06D17B68002283F869
:1058F0007020786809F064FA7B6824225A677B6814
:105900001B681A687B681B6822F001021A607868BD
:1059100000F086FB0346012B01D1012322E07B68C6
:105920005B6A002B02D0786800F024FE7B681B685D
:105930005A687B681B6822F490425A607B681B6837
:105940009A687B681B6822F02A029A607B681B6851
:105950001A687B681B6842F001021A60786800F0E0
:10596000ABFE034618460837BD4680BD80B58AB0F9
:1059700002AFF860B9603B601346FB80FB685B6F69
:10598000202B7FD1BB68002B02D0FB88002B01D1DC
:10599000012378E0FB6893F87030012B01D10223DA
:1059A00071E0FB68012283F87020FB680022DA674F
:1059B000FB6821225A67FAF725FE7861FB68FA88AE
:1059C000A3F85020FB68FA88A3F85220FB689B6874
:1059D000B3F5805F08D1FB681B69002B04D100235D
:1059E000FB61BB68BB6103E0BB68FB610023BB617B
:1059F000FB68002283F870202CE03B6800937B69F1
:105A000000228021F86800F086FE0346002B01D0BA
:105A1000032338E0FB69002B0BD1BB691B881A46B6
:105A2000FB681B68C2F308029A62BB690233BB6160
:105A300007E0FB691A78FB681B689A62FB6901330F
:105A4000FB61FB68B3F852309BB2013B9AB2FB6832
:105A5000A3F85220FB68B3F852309BB2002BCCD194
:105A60003B6800937B6900224021F86800F053FEF8
:105A70000346002B01D0032305E0FB6820225A6770
:105A8000002300E0022318462037BD4680BD0000F9
:105A900080B584B000AFF860B9601346FB80FB6846
:105AA0005B6F202B64D1BB68002B02D0FB88002BDE
:105AB00001D101235DE0FB6893F87030012B01D127
:105AC000022356E0FB68012283F87020FB68BA6865
:105AD000DA64FB68FA88A3F85020FB68FA88A3F818
