:020000040800F2
:100000000000052051990008C1910008C391000823
:10001000C5910008C7910008C991000800000000C0
:10002000000000000000000000000000217D00082A
:10003000CB91000800000000C17D0008257E00086B
:10004000A1990008A1990008A1990008A1990008A8
:10005000A1990008A1990008A1990008A199000898
:10006000A1990008A1990008A1990008A199000888
:10007000CD910008A1990008DD910008A199000820
:10008000A1990008A1990008A1990008A199000868
:10009000A1990008A1990008A1990008A199000858
:1000A000A1990008A1990008A1990008A199000848
:1000B000A1990008A1990008A1990008A199000838
:1000C000A1990008A1990008A1990008A199000828
:1000D000A1990008ED910008A1990008A1990008D4
:1000E000A1990008A1990008A1990008A199000808
:1000F000A1990008A1990008A1990008A1990008F8
:10010000A1990008A1990008A1990008A1990008E7
:10011000A1990008A1990008FD910008A199000883
:10012000A19900080D9200081D920008A1990008ED
:10013000A1990008A1990008A1990008A1990008B7
:10014000A1990008A1990008A19900082D92000822
:10015000A19900083D9200084D9200085D920008A8
:10016000A1990008A1990008A1990008A199000887
:10017000A19900086D920008A199000800000000F4
:10018000A1990008A19900087D920008A199000892
:10019000A1990008A1990008A1990008A199000857
:1001A000A1990008A1990008A1990008A199000847
:1001B000A1990008A1990008A1990008A199000837
:0801C000A1990008A1990008B3
:1001D00010B5054C237833B9044B13B10448AFF381
:1001E00000800123237010BD0402002000000000E5
:1001F000D0A8000808B5034B1BB103490348AFF36F
:10020000008008BD0000000008020020D0A80008FF
:1002100053B94AB9002908BF00281CBF4FF0FF316D
:100220004FF0FF3000F072B9ADF1080C6DE904CE6B
:1002300000F006F8DDF804E0DDE9022304B07047C1
:100240002DE9F047089E04468846002B4BD18A4290
:10025000154667D9B2FA82F24AB1C2F1200701FA13
:1002600002F320FA07F7954047EA030894404FEA63
:10027000154E230CB8FBFEF71FFA85FC0EFB178802
:1002800043EA084307FB0CF1994209D9EB1807F13F
:10029000FF3080F01B81994240F21881023F2B44CD
:1002A0005B1AA4B2B3FBFEF00EFB103344EA034426
:1002B00000FB0CFCA44509D92C1900F1FF3380F098
:1002C0000781A44540F2048102382C4440EA0740EB
:1002D000A4EB0C0400271EB1D4400023C6E9004360
:1002E0003946BDE8F0878B4209D9002E00F0EB803B
:1002F0000027C6E9000138463946BDE8F087B3FA61
:1003000083F7002F47D18B4202D3824200F2FA805A
:10031000841A61EB030301209846002EE0D0C6E961
:100320000048DDE702B9FFDEB2FA82F2002A40F0AF
:100330008F80491B4FEA154E1FFA85F80127B1FB44
:10034000FEFC230C0EFB1C1143EA014308FB0CF1DD
:10035000994207D9EB180CF1FF3002D2994200F212
:10036000CD808446591AA3B2B1FBFEF00EFB1014E7
:1003700043EA044408FB00F8A04507D92C1900F112
:10038000FF3302D2A04500F2B6801846A4EB080461
:1003900040EA0C409FE7C7F1200CBB4022FA0CFE5C
:1003A0004EEA030E01FA07F420FA0CF521FA0CF3D9
:1003B0004FEA1E482543B3FBF8F92C0C08FB193310
:1003C0001FFA8EFA44EA034309FB0AF49C4202FA3C
:1003D00007F200FA07F10BD91EEB030309F1FF3016
:1003E00080F087809C4240F28480A9F10209734426
:1003F0001B1BADB2B3FBF8F008FB103345EA034416
:1004000000FB0AFAA24508D91EEB040400F1FF33F1
:100410006BD2A24569D90238744440EA0940A0FB76
:100420000289A4EB0A044C45C2464B4654D351D032
:10043000002E69D0B1EB0A0564EB030404FA0CFC4E
:10044000FD40FC404CEA0505C6E90054002747E79B
:10045000C2F1200320FA03F7954001FA02F021FAD5
:1004600003F34FEA154E3843010CB3FBFEF71FFAB6
:1004700085F80EFB173341EA034107FB08F38B4273
:1004800004FA02F407D9691807F1FF3C2FD28B4216
:100490002DD9023F2944CB1A81B2B3FBFEF00EFBEB
:1004A000103341EA034100FB08F38B4207D9691876
:1004B00000F1FF3C17D28B4215D902382944C91AE2
:1004C00040EA07473BE73746304609E70746E7E695
:1004D0001846FBE64145ABD2B8EB020A69EB0E02C7
:1004E00001381346A4E76046E9E7184695E76746F2
:1004F000D1E781467CE702382C4447E7ACF1020C97
:100500002B442FE7384608E73746E9E6704700BF37
:10051000034613F8012B002AFBD1181A0138704743
:1005200001F0FF01102A2BDB10F0070F08D010F8A4
:10053000013B013A8B422DD010F0070F42B3F6D1A8
:10054000F0B441EA012141EA014122F007047FF0C1
:1005500000070023F0E80256083C85EA010586EA18
:10056000010685FA47F5A3FA87F586FA47F6A5FA54
:1005700087F68EB9EED1F0BC01F0FF0102F0070260
:1005800032B110F8013B013A83EA010313B1F8D10B
:100590000020704701387047002D06BF35460338EC
:1005A000073815F0010F07D1013015F4807F02BF25
:1005B000013015F4C03F0130F0BC0138704700BF76
:1005C00008B5032000F02EF8002008F0BBFD08F06D
:1005D000DFFA002008BD0000034A1168034B1B78B6
:1005E0000B441360704700BF548F002000000020B0
:1005F000014B1868704700BF548F002038B504467F
:10060000FFF7F6FF0546B4F1FF3F02D0044B1B781D
:100610001C44FFF7EDFF401BA042FAD338BD00BFDA
:10062000000000200649CB6823F4E0631B041B0C88
:10063000000200F4E0600343024A1A43CA607047B4
:1006400000ED00E00000FA0530B4154BDB68C3F3A1
:100650000223C3F10704042C28BF04241D1D062D0A
:1006600014D9033B4FF0FF3505FA04F421EA0401E5
:10067000994005FA03F322EA03031943002807DB34
:100680000901C9B2074B195430BC70470023E9E790
:1006900000F00F000901C9B2034B1954F4E700BF81
:1006A00000ED00E000E400E014ED00E0002807DBCE
:1006B00000F01F02400901239340024A42F8203013
:1006C000704700BF00E100E0002838D010B50446B4
:1006D000437F1BB30223637723791BBB2368194A2B
:1006E0005A612268936823F018039360637913BBFF
:1006F00023684FF0FF321A612268936823F0600389
:1007000061690B4393602268936823F08003A169B9
:100710000B43936001236377002010BD037708F03B
:1007200057FAD7E7E268A168204600F00DF80028E4
:10073000DCD00120F1E7236822691A61DCE701209F
:10074000704700BFB71DC10430B41F24651E3CB103
:1007500005F01F0321FA03F32C4613F0010FF5D027
:10076000182A23D8DFE802F00F2222222222222296
:100770001E222222222222221A2222222222222265
:100780000D00062D14D80368596101688B6823F0A9
:1007900018031A438A60002030BC7047072DF2D935
:1007A0000120F9E70F2DEED90120F5E70120F3E74D
:1007B0000120F1E730B405682C6824F480242C6013
:1007C000046863608368402B05D003689960036800
:1007D000DA6030BC704703689A600368D960F8E754
:1007E0000268D3B2103B0949A1FB03131B09084956
:1007F000C95CC165032B04D8064B13408365806D2B
:100800007047044B134004338365F8E7ABAAAAAAE8
:10081000E8A8000800FCFFFF836A826992B9012BF7
:100820000AD01BB1022B01D000207047C36A13F01D
:10083000807F2CD100207047C36AB3F1C07F28D0DD
:1008400000207047B2F5005F05D0022B29D9032B99
:1008500015D000207047032B03D8DFE803F01C04F9
:100860001C0A00207047C36A13F0807F15D1002056
:100870007047C36AB3F1C07F11D000207047C36ACC
:1008800013F0807F01D001207047002070470120C5
:1008900070470120704701207047012070470120F8
:1008A000704701207047000070B50446FFF7A0FEB6
:1008B000002C5BD00546002384F83430022384F8F2
:1008C00035302268136823F00103136023681A6827
:1008D00012F0010F0AD0FFF78BFE401B0528F5D957
:1008E00020236365032084F8350070BD1A68204812
:1008F00010406168A2680A43E1680A4321690A431B
:1009000061690A43A1690A43E1690A43216A0A430A
:100910000243616A04291ED01A602668756925F0B1
:100920000705636A1D43042B07D1A36A1D43E36ACD
:100930001BB12046FFF770FF90B975612046FFF7A5
:100940004FFFE26D3F2393408360002060650123E9
:1009500084F83530C9E7E16A206B01430A43DBE7DD
:1009600040236365012084F83500BEE70120BCE721
:100970003F8010F038B5856D90F83440012C31D0AF
:10098000012480F8344090F83540E4B2012C04D0C2
:10099000002380F83430022038BD0446022084F859
:1009A0003500002060652046FFF704FFE26D3F231D
:1009B0009340AB602268136843F01603136022680B
:1009C000536943F080035361236C23B12268136899
:1009D00043F0080313602268136843F001031360B7
:1009E0000020D9E70220D7E790F83530DBB2022BA0
:1009F00003D08023436501207047052380F83530FC
:100A00000268136823F001031360002070470000A0
:100A1000F0B583B0044600230193724B1D68724BFE
:100A2000A3FB0535AD0A876D3E68C26D0823934070
:100A3000334210D003681A6812F0040F0BD01A6802
:100A400022F004021A60C26D08239340BB60436D1C
:100A500043F001034365E26D01239340334209D023
:100A60002268526912F0800F04D0BB60636D43F0BE
:100A700002036365E26D04239340334209D0226888
:100A8000126812F0020F04D0BB60636D43F00403E0
:100A90006365E26D10239340334224D022681268CC
:100AA00012F0080F1FD0BB6023681A6812F4802F61
:100AB0000DD01B6813F4002F04D1236C9BB120468A
:100AC000984710E0A36C73B1204698470BE01A6872
:100AD00012F4807F03D11A6822F008021A60236C96
:100AE0000BB120469847E26D20239340334255D006
:100AF0002268126812F0100F50D0BB6094F83530A5
:100B0000DBB2052B0ED023681A6812F4802F33D085
:100B10001B6813F4002F2AD1636C002B3ED02046B3
:100B200098473BE02268136823F01603136022689D
:100B3000536923F080035361236CA3B122681368C7
:100B400023F008031360E26D3F239340BB60002352
:100B500084F83430012384F83530236D002B3FD0E6
:100B6000204698473CE0A36C002BE7D1EBE7E36B12
:100B7000A3B12046984711E01A6812F4807F09D18A
:100B80001A6822F010021A60002384F8343001231E
:100B900084F83530E36B0BB120469847636DFBB1A9
:100BA000636D13F0010F17D0052384F835302268E8
:100BB000136823F001031360019B01330193AB42DF
:100BC00004D823681B6813F0010FF5D1002384F8C3
:100BD0003430012384F83530E36C0BB1204698475C
:100BE00003B0F0BD28010020B5814E1B5079137968
:100BF00043EA002307480B50D07893781B0443EA5C
:100C00000063507843EA002312781343024A8B5062
:100C1000704700BF408002404480024070B59EB0E3
:100C2000044629B14FF40063C3604FF480438360EE
:100C3000E369002B68D14FF48063079321680B6848
:100C4000374A1A40A368E06803430798034343F414
:100C5000007313430B6023681D680120FFF7CEFC6F
:100C600023681D60236840225A6023685D68012064
:100C7000FFF7C4FC23685D60236800259D6023683E
:100C8000DD602268936923F0BE031B041B0C43F054
:100C90008003936123689E690120FFF7AFFC2368FE
:100CA0009E612368DD612368DD690120FFF7A6FCF2
:100CB0002368DD61216841F218054B59194A1A4031
:100CC000194B13434B5123685E590120FFF796FCE3
:100CD00023685E51236803F58053144A1A60236821
:100CE00003F580531D680120FFF788FC236803F596
:100CF00080531D60A369012B09D062690021204641
:100D0000FFF774FF1EB070BD0023079396E72168BC
:100D100041F21C028858064B03438B50EDE700BF9D
:100D20000F8120FF233FDEF8040020028020C10253
:100D300040000100F8B590F84430DBB2822B33D08C
:100D400016460546822380F844300268136903F092
:100D50001C03048AE402A4B223438C0104F4F86463
:100D60001C4344F001041461FFF742FC074614F0F1
:100D7000010F10D0FFF73CFCC01BB0F5803F02D242
:100D80002B681C69F3E7012385F84430002385F8BC
:100D90004530032007E02B685B699BB23360012379
:100DA00085F844300020F8BD0220FCE790F844307C
:100DB000DBB2422B32D070B50546422380F8443076
:100DC0000068036903F01C032C8AE402A4B22343E5
:100DD0008C0104F4F8641C4344F0030492B24261B1
:100DE0002B681C61FFF704FC064614F0010F10D0BD
:100DF000FFF7FEFB801BB0F5803F02D22B681C6919
:100E0000F3E7012385F84430002385F845300320BB
:100E100003E0012385F84430002070BD02207047B4
:100E200070B582B000230193002800F00D810446C4
:100E300090F84430002B32D0844B5A6C42F48042FC
:100E40005A645B6C03F480430093009B804B5A68A8
:100E500022F400025A605A68216A0A435A602368E1
:100E600003F580531A6842F001021A60FFF7C0FBD5
:100E70000546236803F58052126812F0010F13D063
:100E8000FFF7B6FB401BB0F5FA7FF2D9032584F8D3
:100E90004450002384F84530284602B070BD80F8E5
:100EA000453007F0ABFEC7E71D6925F01C0501F0D2
:100EB00095FB684B0344684A934256D845F00805B1
:100EC00023681D614FF4004200212046FFF76EFFAA
:100ED0000546002861D140F6FF70FFF78FFB63687D
:100EE000002B00F09180FFF783FB064601AA012149
:100EF0002046FFF71FFFFFF77BFB801B41F2883383
:100F0000984252D8019B13F0040FEFD04FF4805257
:100F100000212046FFF74AFF002852D1FFF768FB67
:100F2000064601AA01212046FFF704FFFFF760FBF8
:100F3000801B41F2883398424BD8019B13F0200F5D
:100F4000EFD001AA1F212046FFF7F4FE00284CD164
:100F5000019B13F0100F50D04FF40062E26013F0C9
:100F6000040F4DD00023A3605EE03C4B03443C4A99
:100F7000934202D845F00C05A2E73A4B03443A4AA3
:100F800093429DD9394B0344394A934202D845F0E4
:100F9000040595E745F0100592E701212046FFF78B
:100FA0003DFE012584F8445076E701212046FFF7F5
:100FB00035FE012384F84430002384F845300325AE
:100FC0006AE701212046FFF729FE012584F84450F5
:100FD00062E701212046FFF721FE012384F8443017
:100FE000002384F84530032556E701212046FFF70A
:100FF00015FE012584F844504EE70022E260AEE77A
:101000004FF48043A3600FE0E268C2F3CF02A3680D
:10101000C3F34F031A4300212046FFF7C7FE58B918
:1010200040F6FF70FFF7EAFA00212046FFF7F6FDD1
:10103000012384F844302FE701212046FFF7EEFD1D
:10104000012584F8445027E7012525E700380240B0
:101050000038014000D3CEFEBFE1E40040F1E9FDDD
:101060003F787D0100796CFCFF596202001F0AFA8B
:101070007FF0FA0200230F2B00F2E180F0B583B07D
:1010800039E0092200E00022B2403A4302346C4EBB
:1010900046F824206B4A1468EA4302EA04064F68C3
:1010A00017F4803F01D045EA0406664C2660646868
:1010B00002EA04064F6817F4003F01D045EA04062F
:1010C000604C6660A46802EA04064F6817F4801F4B
:1010D00001D045EA04065B4CA660E46822404E68F5
:1010E00016F4001F01D045EA0402564CE2600133B9
:1010F0000F2B00F2A28001229A400C6804EA02053C
:10110000AA42F4D14C68661E112C18BF012E01D9D9
:10111000122C12D186685F000324BC4026EA040624
:10112000CC68BC4034438460466826EA02064C68BA
:10113000C4F300129A4032434260C2685F00032643
:10114000BE40F64332408C68BC401443C4604A68D9
:10115000122A18BF022A13D1DC08083450F824E000
:1011600003F007024FEA820C0F2202FA0CF22EEA79
:10117000020E0A6902FA0CF242EA0E0240F824203A
:10118000026816404A6802F00302BA403243026025
:101190004A6812F0805FAAD02B4A546C44F4804411
:1011A0005464526C02F480420192019A9C08A61C7D
:1011B000234A52F8267003F0030296000F22B24031
:1011C00027EA0207214A90423FF45DAF02F58062B0
:1011D000904222D002F58062904220D002F58062D7
:1011E00090421ED002F5806290421CD002F58062CF
:1011F00090421AD002F58062904218D002F58062C7
:10120000904216D002F58062904214D002F58062BE
:1012100090423FF436AF0A2236E7012234E7022239
:1012200032E7032230E704222EE705222CE70622CC
:101230002AE7072228E7082226E703B0F0BD704717
:1012400000380140003C01400038024000000240EC
:1012500012B9090481617047816170472DE9F04737
:1012600082B00768CA00521A930003445A6D1B6D7E
:101270009A4257D8B8469B1AC1EBC104A200024457
:10128000526C9A4200D31A460C46064602F1030AF3
:101290004FEA9A0A16E009F1030A4FEA9A0AE300B4
:1012A0001B1B9D003544A96C337C00931FFA89F306
:1012B000E2B2384603F004FCAB6C4B44AB646B6D9C
:1012C0004B446B6508EB441303F510639B699BB2B9
:1012D000534513D3E3001B1B9A003244516D136D29
:1012E00099420BD253B15B1AC4EBC4018A00324459
:1012F000D2F844909945CED39946CCE7E3001B1B26
:1013000098000644326D736D9A420FD804F00F04B2
:101310000121A140D7F8344824EA0104C7F8344831
:10132000002000E0012002B0BDE8F0870020FAE7CD
:10133000F0B58BB0002800F091800446056890F865
:10134000BD3323B3032384F8BD33EB6B13F4807FE9
:1013500001D100232361206803F042F9254655F8A6
:10136000107B6E460FCD0FC60FCD0FC695E803005C
:1013700086E80300231D0ECB384603F077F858B1FA
:10138000022384F8BD33012528460BB0F0BD80F858
:10139000BC3308F033F8D5E70021206803F026F9C4
:1013A000002315E0D900C81A82002244012082F8E7
:1013B0003D0082F83C30A2F84230002082F83F0025
:1013C00050649064CA1A9100214408650133DBB26D
:1013D0006568AB42E6D3002315E0D800C11A8A0045
:1013E0002244002182F8FD1182F8FC3182F8FF11BD
:1013F000C2F80412C2F80812C21A90002044C0F8C1
:1014000010120133DBB29D42E7D8254655F8107B18
:101410006E460FCD0FC60FCD0FC695E8030086E8C8
:101420000300231D0ECB384603F026F9054660B9AC
:10143000002384F83830012384F8BD33636A012B1C
:1014400008D0206803F0E7FC9EE7022384F8BD3350
:10145000012599E7204600F0C3FCF2E7012593E758
:1014600090F8BC33012B0ED010B50446012380F850
:10147000BC33006803F0C3FC206803F0ABF8002025
:1014800084F8BC0310BD02207047000070B504460C
:101490000D460068066C00EB411303F530639A6853
:1014A0002169012911D037498E4254D03DB9C5EB8D
:1014B000C50293002344D3F81032002B5CD0E9B26C
:1014C000204608F06DF8002070BD12F0080F09D01A
:1014D0002D498E42F7D912F4004FF4D04FF4004258
:1014E0009A60F0E712F0200F28D112F0280FEAD10D
:1014F00025498E4202D912F4004F22D1E900491B3E
:101500008A002244D2F804121B69C3F31203C91AD9
:10151000C2F81412D2F80412D2F808320B44C2F8FE
:10152000083235B9C5EBC50293002344D3F8103215
:101530005BB1E9B2204608F033F8C4E720229A6094
:10154000C1E74FF400429A60BDE704F571720121D2
:1015500003F0B2FCEDE712F4004F09D112F0200FB6
:1015600001D020229A60E9B2204608F019F8AAE7D3
:101570004FF400429A60A6E704F57172002103F06F
:101580009BFC9CE70A31544F0A30544F38B504464F
:1015900003681D6C03EB4111D1F8082B0E4B9D42E3
:1015A00007D901F5306112F4004F02D04FF4004327
:1015B0008B60204607F0ECFF074B9D4202D9236960
:1015C000012B01D0002038BD04F571720121206883
:1015D00003F072FCF6E700BF0A30544F2DE9F84FD4
:1015E00004460568284603F053FC08B1BDE8F88FAF
:1015F0002F460646206803F01AFC0028F6D0206823
:1016000003F015FC10F0020F04D02268536903F0B8
:1016100002035361206803F00AFC10F0100F15D08C
:101620002268936923F010039361D5F8208008F0B5
:101630000F09C8F34343022B00F08580062B00F00E
:10164000A5802268936943F010039361206803F03A
:10165000EEFB10F4002F40F0AD80206803F0E7FBB4
:1016600010F4802F40F0F180206803F0E0FB0028A8
:10167000C0F25F81206803F0DAFB10F4006F0AD03B
:10168000D5F8083813F0010F40F06D8122685369D6
:1016900003F400635361206803F0C9FB10F0006F8E
:1016A00015D02268536903F00063536194F8F43352
:1016B000002B40F05C81012184F8F41323685B6DFA
:1016C000C3F38303C4F8F833204608F02BF82068EE
:1016D00003F0ADFB10F4805F40F04D81206803F013
:1016E000A6FB10F4005F40F0AB81206803F09FFB85
:1016F00010F0080F40F0BC81206803F098FB10F454
:10170000801F40F0BE81206803F091FB10F4001FA1
:1017100040F0C181206803F08AFB10F0804F40F058
:10172000C481206803F083FB10F0040F3FF45EAF28
:1017300023685D6815F0040F40F0C081226853688B
:101740002B43536052E747F6F07318EA030F3FF458
:1017500078AF4FEAC90BABEB09034FEA830AA24407
:101760004FEA1818C8F30A02DAF80812284603F0FC
:10177000C7FAC8F30A08DAF808324344CAF808324C
:10178000DAF814324344CAF814325AE7082204F54E
:101790007171284603F0B4FAC8F30A184FEAC90376
:1017A000A3EB09018A002244D2F814324344C2F860
:1017B000143246E7206803F03EFB8046B14617E04E
:1017C00007EB49130122C3F8082B49462046FFF7CF
:1017D0005DFE1DE007EB49130822C3F8082B4946BC
:1017E0002046FFF7D3FE16E009F101094FEA580839
:1017F000B8F1000F3FF431AF18F0010FF4D05FFAE9
:1018000089F1206803F027FB824610F0010FD7D141
:101810001AF0080FDED11AF0100F04D007EB4913AD
:101820001022C3F8082B1AF0200F04D007EB49133D
:101830002022C3F8082B1AF4005FD5D007EB491318
:101840004FF40052C3F8082BCEE7206803F0FBFAF0
:101850008046B1462AE05946204607F0ADFE1AF010
:10186000080F04D007EB49130822C3F808291AF01F
:10187000100F04D007EB49131022C3F808291AF0FF
:10188000400F04D007EB49134022C3F808291AF08F
:10189000020F04D007EB49130222C3F808291AF0FB
:1018A000800F41D109F101094FEA5808B8F1000F42
:1018B0003FF4DAAE18F0010FF4D05FFA89FB594615
:1018C000206803F0D1FA824610F0010FC7D009F06A
:1018D0000F03012101FA03F2D7F8343823EA020397
:1018E000C7F8343807EB4913C3F8081923698B424A
:1018F000B1D14FEAC902A2EB090293002344596C0B
:101900009A6C0A449A64B9F1000FA4D1C9EBC902D8
:10191000930023441B6D002B9DD104F571720121AE
:10192000206803F0C9FA96E749462046FFF796FC7F
:10193000B8E7D5F8043823F00103C5F8043894F863
:10194000F433012B08D0204607F076FE2268536955
:1019500003F0004353618DE6002184F8F413204620
:1019600007F0E0FEF2E7204607F04EFE8EE6204646
:1019700007F04AFEABE605F50068D8F8043023F01E
:101980000103C8F804301021206802F047FE20E06F
:1019900007EB46134FF67F31C3F80819D3F8002937
:1019A00022F40012C3F80029D3F8002942F00062A3
:1019B000C3F80029C3F8081BD3F8002B22F4001247
:1019C000C3F8002BD3F8002B42F00062C3F8002BC1
:1019D00001366368B342DBD8D8F81C3043F00113FA
:1019E000C8F81C30236BEBB1D8F8843043F00B03FC
:1019F000C8F88430D8F8443043F00B03C8F84430BA
:101A0000D5F8003823F4FE63C5F8003804F5717288
:101A1000217C206803F050FA2268536903F4805354
:101A200053615BE6D8F8142042F22B031343C8F845
:101A30001430D8F8103043F00B03C8F81030DFE74B
:101A4000206803F029FA206802F0E8FEE0602568CB
:101A500000F0C4FD227B0146284602F045FD2046E9
:101A600007F0BBFD2268536903F4005353613CE661
:101A7000204607F0ACFD2268536903F00803536168
:101A80003AE60021204607F0E3FD2268536903F49B
:101A90008013536137E60021204607F0D3FD22680A
:101AA000536903F40013536134E6204607F0D6FD72
:101AB0002268536903F08043536132E6204607F001
:101AC000D3FD3BE690F8BC33012B0DD010B5044696
:101AD000012380F8BC3380F83810006803F07FF9E8
:101AE000002084F8BC0310BD02207047F8B511F047
:101AF000800F28D101F00F06F500AF1BBC00274670
:101B000004F5FC74044404343E460644002586F87B
:101B1000FD5101F00F012170A260E370627802B103
:101B2000E180022B1ED090F8BC33012B1DD005465E
:101B3000012380F8BC332146006802F07FFE0020BC
:101B400085F8BC03F8BD01F00F06F500AF1BBC0023
:101B500027463834044404343E460644012586F8BA
:101B60003D50D6E700232371DDE70220EAE738B5D0
:101B700011F0800F21D101F00F05EA00541BA300E2
:101B80001C4603F5FC730344043325460544002238
:101B900085F8FD2101F00F01197090F8BC23012A8E
:101BA0001AD00446012280F8BC231946006802F0CE
:101BB0008DFE002084F8BC0338BD01F00F04E20064
:101BC000151BAB001D463833034404332C46044434
:101BD000012284F83D20DDE70220EDE770B501F039
:101BE0000F05EE00711B8C0004F5FC740444211DEC
:101BF000761BB4000444C4F80822C4F81032002351
:101C0000C4F8143284F8FD3184F8FC510369012BC7
:101C100006D065B1DAB2006802F066FF002070BD40
:101C2000C5EBC506B4000444C4F80C22F1E7DAB2EF
:101C3000006802F0B9FEF1E701F00F01C1EBC1014C
:101C40008B001844D0F81402704770B501F00F05EE
:101C5000EE00711B8C0038340444211D761BB40047
:101C60000444A264236500236365012384F83D30A6
:101C700084F83C500369012B06D05DB1DAB20068EC
:101C800002F032FF002070BDC5EBC506B40004446D
:101C9000E264F2E7DAB2006802F086FEF2E738B5F5
:101CA00001F00F0543689D4236D811F0800F20D116
:101CB000CA00541AA3001C4603F5FC730344043302
:101CC00022460244002182F8FD1101229A701D7003
:101CD00090F8BC23012A21D00446012280F8BC23BD
:101CE0001946006803F020F87DB1002084F8BC0399
:101CF00013E0EA00511B8B001946383303440433C8
:101D00000144012281F83D20DFE704F57172217C56
:101D1000206803F0D1F8E8E7012038BD0220FCE795
:101D200010B501F00F0443689C422CD811F0800FCD
:101D30001DD1E3001A1B91000A4601F5FC71014414
:101D400004310244002382F8FD3100238B700C70B3
:101D500090F8BC33012B18D00446012380F8BC3323
:101D6000006803F00EF8002084F8BC030CE0E300E8
:101D70001A1B91000A463831014404310244012300
:101D800082F83D30E1E7012010BD0220FCE730B4CD
:101D90000468606A29B10D46A36A00EB1340002372
:101DA0000CE040EA0240A06212E003F1400104EBC3
:101DB0008101496800EB11400133DBB2691E8B429F
:101DC000F3D340EA024005F13F0104EB8101486092
:101DD000002030BC70470368596200207047000043
:101DE000024603680121C0F8FC13002082F8F403C6
:101DF0009A6942F000629A61596D024A0A435A6533
:101E0000704700BF03000010024A136843F4807358
:101E1000136070470070004010B582B01B4B1A6C05
:101E200042F080521A641B6C03F080530193019BB3
:101E3000174A136843F480331360FEF7D9FB044656
:101E4000134B5B6813F4803F08D1FEF7D1FB001BF6
:101E5000B0F57A7FF4D9032002B010BD0C4A1368A4
:101E600043F400331360FEF7C3FB0446084B5B6882
:101E700013F4003F07D1FEF7BBFB001BB0F57A7FE0
:101E8000F4D90320E8E70020E6E700BF003802406D
:101E9000007000402DE9F04105460F461646984671
:101EA000069C2B689B683B4214BF01230023B3426E
:101EB00013D0B4F1FF3FF4D0FEF79AFBA0EB08007B
:101EC000A04201D8002CECD1042385F841306B6C82
:101ED00043F001036B64012000E00020BDE8F081C5
:101EE0008164704730B583B00446FEF781FB002C57
:101EF0004CD0054694F84130002B3CD021680B684B
:101F000023F4F853A268013A43EA02230B60A36C5E
:101F100000932B46002220212046FFF7BBFF0146FD
:101F200018BB206803681A4A1A406568E36843EAE8
:101F30000563E5692B43256A2B431343036020683F
:101F40004268144B13402569626942EA0542A5695B
:101F50002A43134343602268136843F0010313606C
:101F600000236364012384F84130002384F8403067
:101F7000084603B030BD84F84030204606F0B0FE7D
:101F800041F288312046FFF7ABFFB7E70121EFE7C9
:101F90002FFFFF00FEF8E0FF002800F0098270B577
:101FA00082B00446036813F0010F29D0A24B9B684E
:101FB00003F00C03042B1AD09F4B9B6803F00C0317
:101FC000082B0FD06368B3F5803F40D0002B54D16D
:101FD000994B1A6822F480321A601A6822F480221F
:101FE0001A6039E0944B5B6813F4800FEAD0924B8F
:101FF0001B6813F4003F03D06368002B00F0DA8104
:10200000236813F0020F75D08B4B9B6813F00C0FF5
:102010005ED0894B9B6803F00C03082B53D0E36818
:10202000002B00F08A80844A136843F00103136098
:10203000FEF7DEFA0546804B1B6813F0020F73D1E2
:10204000FEF7D6FA401B0228F5D90320B5E17A4AFB
:10205000136843F48033136063682BB3FEF7C8FA48
:102060000546754B1B6813F4003FC9D1FEF7C0FA53
:10207000401B6428F5D903209FE1B3F5A02F09D0B8
:102080006D4B1A6822F480321A601A6822F480229A
:102090001A60E1E7684B1A6842F480221A601A68F5
:1020A00042F480321A60D7E7FEF7A2FA0546624B87
:1020B0001B6813F4003FA3D0FEF79AFA401B642874
:1020C000F5D9032079E15C4B5B6813F4800FA6D14E
:1020D000594B1B6813F0020F04D0E368012B01D0A9
:1020E00001206AE1544A136823F0F803216943EAA6
:1020F000C1031360236813F0080F46D0636983B3EC
:102100004D4A536F43F001035367FEF771FA0546DA
:10211000494B5B6F13F0020F37D1FEF769FA401B92
:102120000228F5D9032048E1434A136823F0F80355
:10213000216943EAC1031360DCE73F4A136823F0D7
:1021400001031360FEF754FA05463B4B1B6813F07E
:10215000020FCFD0FEF74CFA401B0228F5D903201E
:102160002BE1354A536F23F001035367FEF740FA22
:102170000546314B5B6F13F0020F06D0FEF738FABD
:10218000401B0228F5D9032017E1236813F0040F40
:102190007ED0294B1B6C13F0805F1ED1264B1A6C2E
:1021A00042F080521A641B6C03F080530193019B30
:1021B0000125224B1B6813F4807F10D0A368012BEC
:1021C00021D0002B3CD11C4B1A6F22F001021A6760
:1021D0001A6F22F004021A671AE00025E9E7174A8D
:1021E000136843F480731360FEF702FA0646134B3C
:1021F0001B6813F4807FE1D1FEF7FAF9801B642895
:10220000F5D90320D9E00C4A136F43F0010313679B
:10221000A3685BB3FEF7ECF90646074B1B6F13F0A0
:10222000020F34D1FEF7E4F9801B41F28833984263
:10223000F3D90320C1E000BF003802400070004025
:10224000052B09D0604B1A6F22F001021A671A6F32
:1022500022F004021A67DBE75B4B1A6F42F00402BC
:102260001A671A6F42F001021A67D1E7FEF7C0F948
:102270000646554B1B6F13F0020F08D0FEF7B8F956
:10228000801B41F288339842F3D9032095E0FDB9D1
:10229000A369002B00F090804B4A926802F00C0278
:1022A000082A58D0022B19D0474A136823F08073AC
:1022B0001360FEF79DF90446434B1B6813F0007F43
:1022C00047D0FEF795F9001B0228F5D9032074E0EA
:1022D0003D4A136C23F080531364D9E73A4A1368DC
:1022E00023F080731360FEF783F90546364B1B68B5
:1022F00013F0007F06D0FEF77BF9401B0228F5D9CA
:1023000003205AE0E369226A1343626A43EA8213B4
:10231000A26A5208013A43EA0243E26A43EA0263CC
:1023200043F00053284A5360136843F080731360EE
:10233000FEF75EF90446244B1B6813F0007F06D1BC
:10234000FEF756F9001B0228F5D9032035E00020DE
:1023500033E0002031E01C4A5268012B2FD002F4F8
:102360008003E1698B4201D0012026E002F03F03A7
:10237000216A8B4201D001201FE0616A47F6C073D9
:102380001340B3EB811F01D0012016E002F440316D
:10239000A36A5B08013BB1EB034F01D001200CE0C5
:1023A00002F07062E36AB2EB036F0AD0012004E02E
:1023B00001207047012000E0002002B070BD012024
:1023C000FBE70020F9E700BF00380240264B9B687E
:1023D00003F00C03042B44D0082B01D02348704792
:1023E0002DE9F04B204B5A6802F03F025B6813F472
:1023F000800F13D01C4B5968C1F3881100231C486F
:10240000A1FB0001FDF704FF174B5B68C3F3014319
:1024100001335B00B0FBF3F0BDE8F08B124B5B685F
:10242000C3F388131E4600275C010025E41A65EB00
:102430000705A90141EA9461A001001B61EB0501B8
:10244000CB0043EA5073C400A01943EB07018B0291
:1024500043EA90538402204619460023FDF7D8FE34
:10246000D2E70348704700BF003802400024F40060
:1024700040787D01002800F0A38070B50446524BDF
:102480001B6803F00F038B420CD24F4A136823F0F2
:102490000F030B431360136803F00F038B4201D04B
:1024A000012070BD236813F0020F17D013F0040F42
:1024B00004D0464A936843F4E0539360236813F0D2
:1024C000080F04D0414A936843F4604393603F4A45
:1024D000936823F0F003A068034393600D462368DC
:1024E00013F0010F31D06368012B20D0022B25D0CF
:1024F000364A126812F0020F64D034498A6822F01A
:10250000030213438B60FEF773F806462F4B9B685C
:1025100003F00C036268B3EB820F16D0FEF768F885
:10252000801B41F288339842F0D90320B9E7274A4B
:10253000126812F4003FE0D10120B2E7234A12688A
:1025400012F0007FD9D10120ABE71F4B1B6803F0CD
:102550000F03AB420CD91C4A136823F00F032B4323
:102560001360136803F00F03AB4201D0012098E71A
:10257000236813F0040F06D0144A936823F4E05341
:10258000E1680B439360236813F0080F07D00F4AEC
:10259000936823F46043216943EAC1039360FFF722
:1025A00015FF0A4B9B68C3F30313094AD35CD84059
:1025B000084B1860084B186806F0C4FD002070E74F
:1025C0000120704701206CE7003C024000380240C7
:1025D00010AA00082801002004000020014B186800
:1025E000704700BF2801002008B5FFF7F7FF044B34
:1025F0009B68C3F38223034AD35CD84008BD00BF65
:102600000038024020AA000808B5FFF7E7FF044B96
:102610009B68C3F34233034AD35CD84008BD00BF74
:102620000038024020AA00080F2303600B4B9A6871
:1026300002F0030242609A6802F0F00282609A6837
:1026400002F4E052C2609B68DB0803F4E0530361CC
:10265000034B1B6803F00F030B6070470038024008
:10266000003C0240F0B583B00446036813F0010F4C
:102670000CD0AF4B9A6822F400029A609A68416BC2
:102680000A439A60436BC3B1002600E0002623682A
:1026900013F4002F15D0A64AD2F88C3023F440133F
:1026A000E16B0B43C2F88C30E36BB3F5801F06D0AF
:1026B000002B00F01B81002504E00126E7E701263E
:1026C000F6E70025236813F4801F0FD0984AD2F84C
:1026D0008C3023F44003216C0B43C2F88C30236C04
:1026E000B3F5800F00F0048103B90125236813F0CE
:1026F000807F00D0012613F0200F40F0FB8023687C
:1027000013F0100F0CD08A4BD3F88C2022F080727B
:10271000C3F88C20D3F88C20A16B0A43C3F88C201B
:10272000236813F4804F08D0814AD2F8903023F404
:102730004033616E0B43C2F89030236813F4004FAE
:1027400008D07B4AD2F8903023F44023A16E0B438B
:10275000C2F89030236813F4803F08D0744AD2F84E
:10276000903023F44013E16E0B43C2F8903023689D
:1027700013F4003F08D06E4AD2F8903023F440039F
:10278000216F0B43C2F89030236813F0400F08D03C
:10279000674AD2F8903023F00303616C0B43C2F810
:1027A0009030236813F0800F08D0614AD2F890303F
:1027B00023F00C03A16C0B43C2F89030236813F490
:1027C000807F08D05A4AD2F8903023F03003E16C71
:1027D0000B43C2F89030236813F4007F08D0544AAA
:1027E000D2F8903023F0C003216D0B43C2F8903033
:1027F000236813F4806F08D04D4AD2F8903023F448
:102800004073616D0B43C2F89030236813F4006F7E
:1028100008D0474AD2F8903023F44063A16D0B43AF
:10282000C2F89030236813F4805F08D0404AD2F891
:10283000903023F44053E16D0B43C2F8903023688D
:1028400013F4005F08D03A4AD2F8903023F44043A2
:10285000216E0B43C2F89030236813F4800F08D028
:10286000334AD2F8903023F08063A16F0B43C2F853
:102870009030236813F4001F0DD02D4AD2F8903009
:1028800023F00063E16F0B43C2F89030E36FB3F1C4
:10289000006F00F09980236813F0080F00D0012525
:1028A00013F4802F08D0224AD2F8903023F04073DE
:1028B000616F0B43C2F89030236813F4000F09D006
:1028C0001B4AD2F8903023F08053D4F880100B4389
:1028D000C2F89030002E79D12368B3F1007F75D013
:1028E000002D40F00681002003B0F0BD0125E9E68F
:1028F0000126F9E60E4B1A6C42F080521A641B6CEA
:1029000003F080530193019B0A4A136843F48073D8
:102910001360FDF76DFE0746064B1B6813F4807FBE
:102920000AD1FDF765FEC01B6428F5D90320DBE75B
:102930000038024000700040B34B1B6F13F440732B
:1029400015D0226B02F440729A4210D0AE4B1A6F2F
:1029500022F44072196F41F480311967196F21F424
:10296000803119671A671B6F13F0010F12D1236BA7
:1029700003F44072B2F5407F1DD0A34A936823F45C
:10298000F8139360A0490B6F226BC2F30B02134341
:102990000B67B4E6FDF72CFE07469B4B1B6F13F04D
:1029A000020FE4D1FDF724FEC01B41F288339842A8
:1029B000F3D9032098E79448826822F4F8129349E7
:1029C00019400A438260DDE7012564E78E4A1368F7
:1029D00023F080631360FDF70BFE06468A4B1B68ED
:1029E00013F0006F06D0FDF703FE801B6428F5D9B5
:1029F000032079E7236813F0010F13D0636B8BB9C1
:102A0000814AD2F88430D2F88410606803F44033ED
:102A100043EA801301F070610B43A16843EA01733C
:102A2000C2F88430236813F4002F03D0E26BB2F5B0
:102A3000801F06D013F4801F1ED0236CB3F5800FC7
:102A40001AD1714AD2F88430D2F88410606803F445
:102A5000403343EA8013E06843EA006301F0E04159
:102A60000B43C2F88430D2F88C3023F01F03616A24
:102A700001390B43C2F88C30236813F0807F11D0EA
:102A8000614AD2F88400D2F88410666823691B0476
:102A900043EA861300F07060034301F0E0410B430A
:102AA000C2F88430236813F0007F0DD06268236978
:102AB0001B0443EA8213E26843EA0263A26843EA22
:102AC0000273514AC2F884304F4A136843F080635E
:102AD0001360FDF78DFD06464B4B1B6813F0006F2E
:102AE0007FF4FEAEFDF784FD801B6428F4D903203B
:102AF000FAE6454A136823F080531360FDF778FD2A
:102B00000546414B1B6813F0005F06D0FDF770FDD2
:102B1000401B6428F5D90320E6E6236813F4002F50
:102B200001D0E26B22B113F4801F1DD0236CDBB9FE
:102B3000354AD2F88830D2F88810606903F44033FF
:102B400043EA8013A06943EA006301F0E0410B43CC
:102B5000C2F88830D2F88C3023F4F853A16A0139D6
:102B600043EA0123C2F88C30236813F4001F03D01A
:102B7000E36FB3F1006F31D0236813F0080F19D061
:102B8000214AD2F88810D2F88830606903F44033C3
:102B900043EA801301F070610B43E16943EA01737A
:102BA000C2F88830D2F88C3023F44033E16A0B430A
:102BB000C2F88C30144A136843F080531360FDF759
:102BC00017FD0446104B1B6813F0005F19D1FDF789
:102BD0000FFD001B6428F5D9032085E60A4AD2F8C8
:102BE0008800D2F888106569236A1B0443EA8513BC
:102BF00000F07060034301F0E0410B43C2F88830FD
:102C0000BAE7002070E600BF00380240FFFCFF0F6B
:102C100038B504460268D36823F0A003D360FDF7FB
:102C2000E7FC05462368DB6813F0200F07D1FDF7AA
:102C3000DFFC401BB0F57A7FF4D9032000E00020D0
:102C400038BD38B50368DA6812F0400F01D00020B3
:102C500038BD04464FF0FF32DA60FDF7C9FC054687
:102C60002368DB6813F0400F07D1FDF7C1FC401B60
:102C7000B0F57A7FF4D90320EAE70020E8E7000006
:102C800000284AD038B50446437F002B3AD00223AF
:102C900063772368CA225A62236853225A62204605
:102CA000FFF7CFFF0246002830D1216888681C4B0F
:102CB00003408B6020688168636825692B436569E0
:102CC0002B430B4383602368E168196121680B691A
:102CD000A06843EA00430B612168CB6823F08003BE
:102CE000CB602168CB6C23F00803CB642168CB6CEC
:102CF000A0690343CB642368FF21596201236377F2
:102D0000104638BD037706F05DF8C0E72368FF2260
:102D10005A62042363770122F2E7012210467047CA
:102D2000BFFF8FFF002302E001330A38C0B2092839
:102D3000FAD81B01DBB2184370470000F8B5037FD7
:102D4000012B76D00D4604460123037702234377F7
:102D5000002A44D103689B6813F0400F01D100237F
:102D60000B732878FFF7DEFF06046878FFF7DAFFB9
:102D700046EA0026A878FFF7D5FF0643287B46EAF7
:102D800000462368CA225A62236853225A622046A8
:102D9000FFF757FF0746002833D12268264B334000
:102DA00013602268936823F48023936021688B6802
:102DB0002A696869024313438B602268D36823F051
:102DC0008003D36023689B6813F0200F23D023680F
:102DD000FF225A62012363770023237719E00368F7
:102DE0009B6813F0400F01D100230B7328786E7895
:102DF000360246EA0046A8780643287B46EA0046A3
:102E0000BFE72368FF225A620423637700232377F6
:102E100001273846F8BD2046FFF7FAFE0028D6D035
:102E20002368FF225A620423637700232377012754
:102E3000EFE70227EDE700BF7F7F7F0070B5037FDC
:102E4000012B64D001230377022343773AB94B78EF
:102E500013F0100F03D003F0EF030A334B700E464C
:102E60000446002A30D1C878FFF75CFF050470786B
:102E7000FFF758FF45EA0025B078FFF753FF0543F9
:102E8000307845EA40352368CA225A6223685322C3
:102E90005A622046FFF7D5FE064600BB22681D4B4E
:102EA0002B4053602268D36823F08003D3602368EB
:102EB0009B6813F0200F1CD02368FF225A62012365
:102EC00063770023237712E0C8784D782D0245EA16
:102ED000004588780543087845EA4035D3E72368FC
:102EE000FF225A62042363770023237701263046AA
:102EF00070BD2046FFF78CFE0028DDD02368FF223E
:102F00005A6204236377002323770126EFE7022622
:102F1000EDE700BF3FFFFF00F8B5037F012B00F096
:102F2000A9800D4604460123037702234377002A34
:102F30004DD103689B6813F0400F01D100230B7340
:102F40002E6A2878FFF7EEFE07046878FFF7EAFE9E
:102F500047EA0027A878FFF7E5FE0743287B47EA02
:102F6000004795F82400FFF7DDFE47EA00600643BE
:102F7000AB691E436F68EB691F432368CA225A621C
:102F8000236853225A62AB6AB3F5807F39D0226836
:102F9000936823F4007393602268936823F40053CA
:102FA0009360FDF725FB05462368DA6812F0020FEF
:102FB00050D1FDF71DFB401BB0F57A7FF4D9236893
:102FC000FF225A62032060770023237751E00368D1
:102FD0009B6813F0400F01D100230B732A6A2978F4
:102FE0006B781B0243EA0143A9780B43297B43EA30
:102FF000014395F8241043EA01631343AE691E436D
:10300000B8E72268936823F480739360226893681A
:1030100023F480539360FDF7EBFA05462368DA68E2
:1030200012F0010F0DD1FDF7E3FA401BB0F57A7FE6
:10303000F4D92368FF225A620320607700232377A4
:1030400017E0DE6123685F642268936843F480734D
:10305000936007E01E6223689F642268936843F4CC
:10306000007393602368FF225A6201236377002074
:103070002077F8BD0220FCE770B4047F012C27D034
:1030800001240477022343770568AE68A3F60B0397
:1030900033401943CA236B62036853255D62056898
:1030A000EB6C23F00603EB640568EB6C1A43EA64EF
:1030B000036899600268936843F40063936003684F
:1030C000FF225A62447700230377184670BC70478A
:1030D0000220FBE7D8B138B504460D4690F82C30F5
:1030E00083B1022384F82C30211D206801F01AF9E5
:1030F00062682946206801F04FF9012384F82C30DA
:10310000002038BD80F82D3006F018F8E9E70120DE
:10311000704710B4036A046A24F0010404628469ED
:1031200024F0F00444EA021223F00A030B43826104
:1031300003625DF8044B704730B4046A24F0100455
:1031400004628469056A24F4407444EA022222F489
:1031500070421B039BB21A4325F0A005090101F040
:10316000A00129438261016230BC704710B4036A38
:1031700023F0100303628469036A24F4704444EA70
:10318000023223F0A00343EA0113826103625DF877
:10319000044B704730B4046A24F480740462C46938
:1031A000056A24F00304224322F0F0021B01DBB283
:1031B0001A4325F42065090201F420612943C26104
:1031C000016230BC704730B4046A24F48054046255
:1031D000C469056A24F4407444EA022222F470426D
:1031E0001B039BB21A4325F42045090301F4204137
:1031F0002943C261016230BC7047836823F07003C9
:10320000194341F007018160704700000268D368EC
:1032100043F00103D36002689168064B0B40062B14
:1032200018BFB3F5803F03D0136843F00103136068
:1032300000207047070001007047704770477047D3
:10324000704710B5044603681A6912F0020F11D0D6
:10325000DA6812F0020F0DD06FF002021A6101233A
:10326000037703689B6913F0030F79D0FFF7E6FF3C
:103270000023237723681A6912F0040F12D0DA684A
:1032800012F0040F0ED06FF004021A6102232377AC
:1032900023689B6913F4407F68D02046FFF7CEFF78
:1032A0000023237723681A6912F0080F12D0DA6816
:1032B00012F0080F0ED06FF008021A610423237772
:1032C0002368DB6913F0030F57D02046FFF7B6FFE2
:1032D0000023237723681A6912F0100F12D0DA68DE
:1032E00012F0100F0ED06FF010021A61082323772E
:1032F0002368DB6913F4407F46D02046FFF79EFF2A
:103300000023237723681A6912F0010F03D0DA68CB
:1033100012F0010F3FD123681A6912F0800F03D019
:10332000DA6812F0800F3DD123681A6912F4807FA9
:1033300003D0DA6812F0800F3BD123681A6912F0CB
:10334000400F03D0DA6812F0400F39D123681A69B0
:1033500012F0200F03D0DA6812F0200F37D110BD21
:10336000FFF76BFF2046FFF76AFF81E72046FFF774
:1033700064FF2046FFF763FF92E72046FFF75DFFFB
:103380002046FFF75CFFA3E72046FFF756FF2046E5
:10339000FFF755FFB4E76FF001021A61204605F010
:1033A0007BFBB8E76FF080021A61204600F041FA1B
:1033B000BAE76FF480721A61204600F03BFABCE76E
:1033C0006FF040021A612046FFF73AFFBEE76FF048
:1033D00020021A61204600F02BFAC0E770B403689F
:1033E0003A4CA04214BF00240124B0F1804F14BF16
:1033F000224644F00102AAB9354DA84214BF002567
:103400000125344EB0420DD065B905F1804505F572
:103410008235A84214BF0025012506F50066B0429A
:1034200000D01DB123F070034D682B43002A33D127
:10343000274A904214BF00220122264DA8422BD0D9
:1034400052BB02F1804202F58232904214BF002248
:10345000012205F50065A8421ED0EAB91E4A904235
:1034600014BF0022012205F59A35A84214D09AB95A
:103470001A4A904214BF0022012205F50065A842B5
:103480000AD04AB9164A904214BF00220122A5F57B
:103490009635A84200D01AB123F44073CA6813438A
:1034A00023F080034A69134303608A68C2620A6892
:1034B00082620C4B984214BF234644F001030BB1C7
:1034C0000B6903630123436170BC70470000014036
:1034D0000008004000040040004401400018004083
:1034E0000020004000040140A8B110B5044690F847
:1034F0003D305BB1022384F83D30211D2068FFF789
:103500006DFF012384F83D30002010BD80F83C3071
:1035100005F068FCEEE701207047A8B110B504463D
:1035200090F83D305BB1022384F83D30211D2068C6
:10353000FFF754FF012384F83D30002010BD80F8D0
:103540003C30FFF779FEEEE701207047F0B4046AE3
:1035500024F0010404628469056A1D4EB0F1804FB5
:1035600018BFB04223D0A6F57846B04214BF00265B
:103570000126184FB8421AD0CEB906F1804606F59A
:103580008236B04214BF0026012607F50067B84214
:103590000DD066B9104EB04214BF0026012607F5C3
:1035A0009A37B84203D016B944F0010202E024F081
:1035B0000304224322F0F0021B01DBB2134325F087
:1035C0000A0201F00A01114383610162F0BC7047F5
:1035D00000000140000400400018004038B590F899
:1035E0003C30012B58D00D460446012380F83C3076
:1035F000022380F83D30DAB1042A2AD0082A3AD0D2
:10360000CB684A6809680068FFF7DDFD2268D36966
:1036100023F44063D3612268D369A96843EA012394
:10362000D361012384F83D30002084F83C0038BD8C
:10363000CB684A6809680068FFF788FF22689369C9
:1036400023F00C03936122689369A9680B4393618B
:10365000E7E7CB684A6809680068FFF76DFD2268F4
:10366000936923F44063936122689369A96843EAEC
:1036700001239361D5E7CB684A6809680068FFF7C2
:1036800089FD2268D36923F00C03D3612268D369D2
:10369000A9680B43D361C4E70220C8E710B484686B
:1036A00024F47F4442EA03230B43234383605DF801
:1036B000044B704790F83C30012B64D010B50446A1
:1036C000012380F83C30022380F83D300268906886
:1036D0002E4B034093600B68402B4AD013D9602BCC
:1036E0003DD01ED9702B28D0B3F5005F30D1CB6808
:1036F0004A6889682068FFF7D1FF2268936843F41D
:103700008043936024E0102B06D004D9202B03D0F3
:10371000302B01D01CE0DBB919462068FFF76DFDA6
:1037200016E0502B14D1CA6849682068FFF7F1FCF5
:1037300050212068FFF761FD0AE0CB684A6889687C
:103740002068FFF7ABFF2268936843F0770393602C
:10375000012384F83D30002084F83C0010BDCA6885
:1037600049682068FFF702FD60212068FFF745FDEA
:10377000EEE7CA6849682068FFF7CBFC4021206863
:10378000FFF73BFDE4E70220704700BF8800FEFF23
:1037900090F83C30012B45D070B4012380F83C30C8
:1037A000022380F83D3003685A689D681E4E1F4C06
:1037B000A34218BFB34203D122F470024C682243E3
:1037C00022F070020C6822435A600368164AB3F173
:1037D000804F18BF934217D0A2F57C42934213D07A
:1037E00002F5806293420FD002F5806293420BD0C3
:1037F00002F57842934207D002F57052934203D00B
:10380000A2F59432934204D125F080058A681543CD
:103810009D60012380F83D30002380F83C3018463D
:1038200070BC704702207047000001400004014056
:103830007047704770470268136823F0C003136035
:103840002023436770470268136823F49073136062
:103850000268936823F001039360202383670023A9
:103860000366704738B5446F202C42D1B2FA82F516
:103870006D09002908BF0125002D3CD190F870305A
:10388000012B3AD013460446012280F87020C1640F
:10389000A0F85030A0F852300022C26721224267BF
:1038A000826E8AB11649D163826E16491164826EA6
:1038B0001549D164826E0021116502682832C16CFD
:1038C000806EFDF757F858B9236840221A6200202D
:1038D00084F870002268936843F08003936009E0E5
:1038E0001023E367002384F87030202363670120EE
:1038F00000E0022038BD0120FCE70220FAE700BF0B
:10390000BF3900080B3A00085F3A000838B5846FE9
:10391000202C47D1B2FA82F56D09002908BF012594
:10392000002D41D190F87030012B3FD01346044652
:10393000012280F870204165A0F858300022C2674B
:1039400022228267C26E8AB11949D163C26E1949B7
:103950001164C26E1849D164C26E002111650168FC
:10396000426D2431C06EFDF705F890B9002084F84F
:1039700070002268136843F48073136022689368B0
:1039800043F0010393602268936843F0400393601F
:1039900009E01023E367002384F870302023636775
:1039A000012000E0022038BD0120FCE70220FAE7F8
:1039B000153A0008533A00085F3A0008704708B506
:1039C000836BC269B2F5807F0DD00022A3F852202C
:1039D00019688A6822F080028A601A68136843F0C6
:1039E0004003136008BD1846FFF7E8FFFAE708B583
:1039F00001680A6822F040020A6020224267002221
:103A00004266FFF7DBFF08BD704708B5806BFFF724
:103A1000FBFF08BD08B5836BC269B2F5807F13D088
:103A20000022A3F85A2019680A6822F480720A60FA
:103A300019688A6822F001028A6019688A6822F08F
:103A400040028A6020229A67184605F01FFC08BDD4
:103A5000704708B5806BFFF7FBFF08BD704738B5AE
:103A6000846B626FA56F23689B6813F0800F01D091
:103A7000212A0ED023689B6813F0400F01D0222D1D
:103A80000ED0E36F43F01003E3672046FFF7E6FF35
:103A900038BD0023A4F852302046FFF7CCFEE9E7FA
:103AA0000023A4F85A302046FFF7CDFEE9E70000D6
:103AB00038B504460168CB690D68886840F60F0286
:103AC0001A400CD113F0200F09D015F0200F06D0AA
:103AD000236E002B00F095802046984791E0002A45
:103AE0007ED010F0010002D115F4907F78D013F051
:103AF000010F08D015F4807F05D001220A62E26F21
:103B000042F00102E26713F0020F07D030B12268E1
:103B100002211162E26F42F00402E26713F0040F27
:103B200007D030B1226804211162E26F42F0020234
:103B3000E26713F0080F09D015F0200F00D128B16B
:103B4000226808211162E26F0A43E26713F4006FF2
:103B50000AD015F0806F07D022684FF4006111621F
:103B6000E26F42F02002E267E26F002A49D013F0D0
:103B7000200F06D015F0200F03D0236E0BB1204686
:103B80009847E26F23689B6813F0400F02D112F050
:103B9000280F1FD02046FFF756FE23689A6812F0C0
:103BA000400F13D09A6822F040029A60E36E4BB146
:103BB000164A1A65E06EFCF717FF10B3E06E036D4E
:103BC00098471EE02046FFF749FF1AE02046FFF71E
:103BD00045FF16E02046FFF741FF0023E36710E0B2
:103BE00013F0800F07D015F0800F04D0636E43B13F
:103BF0002046984705E013F0400F02D015F0400F23
:103C000000D138BD2046FFF7F2FEFAE7113C00086C
:103C100008B5806B0023A0F85A30A0F85230FFF7A7
:103C20001DFF08BD7047000010B504460268136808
:103C300023F4907313600268936823F00103936088
:103C400003689A6812F0400F21D09A6822F040026F
:103C50009A60C36E53B1134A1A65C06EFCF7C4FE76
:103C600010B1E06E036D9847002010BD0023A0F84E
:103C70005A30436503680F221A620268936943F061
:103C80000803936120238367FFF7CCFFECE7002252
:103C9000A0F85A2042650F221A6220238367FFF79B
:103CA000C1FFE1E7A93C000808B5806B0023A0F83C
:103CB0005A3003680F221A620268936943F00803BE
:103CC000936120238367FFF7ADFF08BD10B504465D
:103CD00083680269134342691343C269134301684D
:103CE0000868994A024013430B602268536823F422
:103CF0004053E1680B435360A269236A1A43216869
:103D00008B6823F4306313438B6023688F4A93429C
:103D100018D08F4A934228D08E4A93423DD08E4A83
:103D2000934250D08D4A934262D08D4A934277D0CD
:103D30008C4A934200F08C808B4A934200F0A08022
:103D40001023B6E0894BD3F8903003F00303032B24
:103D500009D8DFE803F00204AD060123A9E004233B
:103D6000A7E00823A5E01023A3E0804BD3F8903010
:103D700003F00C030C2B0ED8DFE803F0070D0D0D3C
:103D8000090D0D0DA90D0D0D0B00002391E004236D
:103D90008FE008238DE010238BE0744BD3F8903034
:103DA00003F03003102B0AD006D9202B00F09180AD
:103DB000302B06D108237CE01BB9002379E00423D3
:103DC00077E0102375E0694BD3F8903003F0C0031F
:103DD000402B09D005D9802B7DD0C02B06D10823DC
:103DE00067E01BB9002364E0042362E0102360E075
:103DF0005E4BD3F8903003F44073B3F5807F0BD063
:103E000007D9B3F5007F68D0B3F5407F06D108230A
:103E10004FE01BB900234CE004234AE0102348E0A4
:103E2000524BD3F8903003F44063B3F5806F0BD05E
:103E300007D9B3F5006F52D0B3F5406F06D1082310
:103E400037E01BB9012334E0042332E0102330E0D3
:103E5000464BD3F8903003F44053B3F5805F0BD05A
:103E600007D9B3F5005F3CD0B3F5405F06D1082316
:103E70001FE01BB900231CE004231AE0102318E004
:103E80003A4BD3F8903003F44043B3F5804F0BD056
:103E900007D9B3F5004F26D0B3F5404F06D108231C
:103EA00007E01BB9002304E0042302E0102300E034
:103EB0000223E269B2F5004F17D0082B00F2B3805D
:103EC000DFE803F0768B95B19EB1B1B1A800022373
:103ED000EFE70223EDE70223EBE70223E9E7022302
:103EE000E7E70223E5E70223E3E7082B5DD8DFE8F5
:103EF00003F0051F3F5C485C5C5C5300FEF774FBFD
:103F00006268530803EB4003B3FBF2F39BB200205B
:103F1000A3F110014FF6EF72914200F287809AB23E
:103F200022F00F02C3F3420313432268D36050E030
:103F3000FEF76AFB6268530803EB4003B3FBF2F33E
:103F40009BB20020E4E700BFF369FFEF00100140DF
:103F50000044004000480040004C00400050004039
:103F60000014014000780040007C0040003802400E
:103F70006268304B03EB5203B3FBF2F39BB20020B9
:103F8000C6E7FEF723FA6268530803EB4003B3FB6E
:103F9000F2F39BB20020BBE76268530803F580335D
:103FA000B3FBF2F39BB20020B2E701200023AFE79E
:103FB000FEF71AFB626800EB5203B3FBF2F39BB20D
:103FC0000020A3F110014FF6EF72914230D8226821
:103FD000D36000232366636610BDFEF715FB62689D
:103FE00000EB5203B3FBF2F39BB20020E9E76268F7
:103FF000114B03EB5203B3FBF2F39BB20020E0E75B
:10400000FEF7E4F9626800EB5203B3FBF2F39BB2F4
:104010000020D6E76268530803F50043B3FBF2F3D0
:104020009BB20020CDE701200023CAE70120D0E7A2
:104030000120CEE70048E8010024F400436A13F0B1
:10404000010F06D00268536823F40033816A0B43E2
:104050005360436A13F0020F06D00268536823F4DA
:104060008033C16A0B435360436A13F0040F06D0D8
:104070000268536823F48023016B0B435360436A47
:1040800013F0080F06D00268536823F40043416B15
:104090000B435360436A13F0100F06D00268936815
:1040A00023F48053816B0B439360436A13F0200F1A
:1040B00006D00268936823F40053C16B0B439360EE
:1040C000436A13F0400F0AD00268536823F4801348
:1040D000016C0B435360036CB3F5801F0BD0436A34
:1040E00013F0800F06D00268536823F40023816C1C
:1040F0000B43536070470268536823F4C003416C5C
:104100000B435360EBE72DE9F04104460F4616469A
:104110009846069D2368DB6937EA03030CBF012339
:104120000023B3423AD1B5F1FF3FF3D0FCF760FA78
:10413000A0EB0800A8421FD8F5B123681A6812F056
:10414000040FE7D0DA6912F4006FE3D04FF4006295
:104150001A622268136823F4D0731360226893688C
:1041600023F00103936020236367A367E3670023C1
:1041700084F87030032012E02268136823F4D073AF
:1041800013602268936823F0010393602023636720
:10419000A367002384F87030032000E00020BDE80E
:1041A000F0812DE9F04182B01E46436F202B59D19A
:1041B00004460D469046B2FA82F35B09002908BF17
:1041C0000123002B53D190F87030012B51D00123E3
:1041D00080F870300023C36721234367FCF708FA97
:1041E0000746A4F85080A4F85280A368B3F5805F16
:1041F00005D04FF00008002384F8703013E02369E5
:1042000013B14FF00008F6E7A8460025F3E738F8A9
:10421000023B2268C3F308039362B4F85230013BB7
:104220009BB2A4F85230B4F852309BB273B10096EE
:104230003B46002280212046FFF765FFD8B9002DBC
:10424000E5D015F8012B23689A62E6E700963B4615
:10425000002240212046FFF756FF034668B920227E
:10426000626700E00223184602B0BDE8F081012336
:10427000F9E70223F7E70323F5E70323F3E710B594
:1042800082B004460023C367FCF7B2F922681268C3
:1042900012F0080F07D120236367A367002084F87A
:1042A000700002B010BD6FF07E4300930346002201
:1042B0004FF400112046FFF726FF0028EBD0032023
:1042C000EFE768B310B50446436F03B32423636775
:1042D0002268136823F0010313602046FFF7F6FC01
:1042E000012813D0636ABBB92268536823F4904352
:1042F00053602268936823F02A039360226813684E
:1043000043F0010313602046FFF7B9FF10BD80F8AA
:10431000703004F0ABFDD9E72046FFF78FFEE3E7EE
:104320000120704730B40B68012B18D00368194A7C
:104330001A404B688C682343CC6823430C692343A1
:104340004C6923438C692343CC6923430C6A234380
:10435000496A0B4313430360002030BC7047046874
:1043600024F4F844CB690A6A1A434B6A1A4322437D
:104370004368084C1C404B688D682B43CD682B4329
:104380000D692B434D692B4389690B43234302601D
:104390004360E1E70080FFFF30B4012A21D082684A
:1043A00002F070420B68013B4C68013C43EA041385
:1043B0008C68013C43EA0423CC68013C43EA0433A3
:1043C0000C69013C43EA04434C69013C43EA045351
:1043D0008969013943EA016313438360002030BCDB
:1043E00070478368114C1C40CA68551E4B695A1EA1
:1043F000120542EA05322243C46804F070440B6897
:10440000013B4D68013D43EA05138D68013D43EAD8
:1044100005230D69013D43EA05438969013943EAF2
:10442000016323438260C360D8E700BFFF0F0FFF23
:10443000002301330C4A934211D80269002AF8DAAA
:10444000036943F00103036100230133064A9342E9
:1044500007D8026912F0010FF7D10020704703203E
:1044600070470320704700BF400D030084B010B5B3
:10447000044603A880E80E00089B012B1DD1A36B06
:1044800023F48033A363E268164B1340E360E368D0
:1044900023F44013E3600F9B012B09D02046FFF764
:1044A000C7FF069B012B14D0BDE8104004B0704735
:1044B000E36843F48013E360F0E7E36843F040030C
:1044C000E3602046FFF7B4FFA36B43F48033A3639C
:1044D000E7E7A36843F00603A360A36843F0200363
:1044E000A360E1E7BFFFBDFF022A0AD00921C2682D
:1044F00022F47052C260C36843EA8123C360002083
:104500007047274B0B44274A934239D9264B0B441B
:10451000264A934236D9264B0B44264A934233D936
:10452000254B0B4402F5C332A03293422ED9234BC4
:104530000B44234A93422BD9224B0B4402F592227F
:1045400002F57872934225D91F4B0B4402F5C32222
:1045500002F5207293421FD91C4B0B4402F5B7128F
:1045600002F55872934219D9194B0B4402F51222E5
:1045700002F5F862934201D90621B8E70721B6E7B0
:104580000F21B4E70E21B2E70D21B0E70C21AEE711
:104590000B21ACE70A21AAE70921A8E70821A6E731
:1045A000405327FFFF340C00401E1BFF3F420F000B
:1045B00000DC0BFF7F4F1200808CF9FE60B6E5FE39
:1045C0005FE3160000D3CEFEC05BB3FE00CA91FECF
:1045D000E05459FE836843F0010383600020704774
:1045E000836823F0010383600020704708B5C36827
:1045F00023F0C043C360012909D069B9C36843F0FF
:104600008043C3603220FBF7F9FF002008BDC36878
:1046100043F00053C360F5E70120F7E7890141F05B
:104620002001016100230133054A934205D8026944
:1046300012F0200FF7D1002070470320704700BF11
:10464000400D03001023036100230133054A934208
:1046500005D8026912F0100FF7D10020704703202F
:10466000704700BF400D0300D0F800381943C0F870
:10467000001800207047000084B02DE9F041044686
:1046800007A880E80E002546002306E003F140025B
:1046900004EB82020021516001330E2BF6D9119BED
:1046A00033BBD4F8043843F00203C4F80438A36BD6
:1046B00023F40013A363236843F0400323602368BB
:1046C00043F0800323600023C4F8003E04F5006635
:1046D000D4F80038C4F800380C9B012B0DD0032B04
:1046E0001CD1099BABB900212046FFF7BDFF19E0A3
:1046F000A36B43F40013A363E5E7099B23B90021EF
:104700002046FFF7B1FF0DE001212046FFF7ACFF87
:1047100008E001212046FFF7A7FF03E00321204620
:10472000FFF7A2FF10212046FFF778FF804608B16F
:104730004FF001082046FFF785FF08B14FF0010850
:10474000002333617361F3610AE0C3B94FF0006085
:10475000C2F8000900220A614FF67F328A600133F5
:104760000799994210D905EB431202F51061D2F86E
:1047700000090028E9DB0020C2F80009EAE74FF051
:104780009040C2F80009E5E700230AE0BBB14FF012
:104790009047C2F8007B002202614FF67F328260B0
:1047A0000133994210D905EB431202F53060D2F87B
:1047B000007B002FEADB0027C2F8007BEBE74FF01D
:1047C0000067C2F8007BE6E7336923F48073336146
:1047D0000023A3616FF0804363610A9B1BB9A36947
:1047E00043F01003A361A2690A4B1343A3610D9B1D
:1047F0001BB1A36943F00803A361119B012B04D0F3
:104800004046BDE8F04104B07047A269024B134333
:10481000A361F5E700383C8004000040D0F8083878
:1048200013F0060305D0062B18BF022B03D102207C
:104830007047002070470F207047000070B40B785D
:104840004A78012A20D0D0F81C2803F00F06012452
:10485000B44042EA0442C0F81C2800EB4310D0F8F0
:10486000003B13F4004F0CD1D0F8002B8B68C3F33E
:104870000A03C97843EA81431343134A1A43C0F831
:10488000002B002070BC7047D0F81C4803F00F06C6
:10489000B24092B22243C0F81C2800EB4310D0F87B
:1048A000002912F4004FECD1D0F800498A68C2F315
:1048B0000A02C97842EA814242EA83532343024A08
:1048C0001A43C0F80029DCE70080001030B40B78F0
:1048D0004A78012A24D000EB4313D3F8002B002A96
:1048E00050DBD0F83C580A7802F00F02012404FA99
:1048F00002F225EA0242C0F83C28D0F81C280978C8
:1049000001F00F018C4022EA0444C0F81C48D3F89F
:10491000001B234A0A40C3F8002B002030BC70471C
:1049200000EB4313D3F80029002A1EDBD0F83C58D3
:104930000A7802F00F02012404FA02F292B225EA88
:104940000202C0F83C28D0F81C28097801F00F01B9
:104950008C40A4B222EA0404C0F81C48D3F8001921
:10496000104A0A40C3F80029D7E7D3F8002942F0DB
:104970000062C3F80029D3F8002942F08042C3F84E
:104980000029D3E7D3F8002B42F00062C3F8002BD4
:10499000D3F8002B42F08042C3F8002BA1E700BF00
:1049A0000078F3EF007833EC70B40B784C78012C7E
:1049B00024D000EB431000F530631D693E4C2C40C1
:1049C0001C611D693D4C2C401C614C690CB18C680C
:1049D0004C611C6944F400241C611C698D68C5F39A
:1049E00012052C431C61012A61D0D0F8003B43F032
:1049F0000443C0F8003B002070BC70474C695CBBAE
:104A000000EB4314D4F810692C4D3540C4F810590C
:104A1000D4F8105945F40025C4F81059D4F8106999
:104A2000254D3540C4F81059012A31D000EB43130D
:104A3000D3F8002942F00442C3F800294B69002B47
:104A4000D9D0D0F83428097801F00F040121A14011
:104A50000A43C0F83428CEE700EB431404F5106491
:104A60002669154D354025612669144D354025616F
:104A70004E698D68AE4200D94D61256945F4002527
:104A8000256125694E69C6F3120635432561CBE7DA
:104A90000A691AB100EB4311C1F8142900EB431065
:104AA000D0F8002942F00442C0F80029A3E7CA6800
:104AB000002A9AD05A6198E70000F8FFFFFF07E04C
:104AC00070B49DF80C4064B903339D0807E000EB17
:104AD000023303F5805351F8046B1E600134AC427D
:104AE000F5D3002070BC7047F0B583B00B784C78DC
:104AF000012C29D000EB431303F5306426697D4D6A
:104B00003540256126697C4D354025614D69002D74
:104B100040F0C18025698E68C6F3120635432561D1
:104B2000256945F400252561012A00F0C980CA786D
:104B3000012A00F0CB80D3F8002B42F00442C3F8E6
:104B4000002B002003B0F0BD4C6974BB00EB431494
:104B5000D4F81069684D3540C4F81059D4F810598C
:104B600045F40025C4F81059D4F81069614D35405A
:104B7000C4F81059012A4AD000EB4313D3F8004976
:104B800044F00444C3F80049CC78012C68D04B6948
:104B9000002BD6D0D0F83428097801F00F04012179
:104BA000A1400A43C0F83428CBE700EB4314D4F803
:104BB0001069504D3540C4F81059D4F810694E4D65
:104BC0003540C4F81059D4F810694D698F683D44D8
:104BD000013DB5FBF7F5494F07EAC5453543C4F834
:104BE0001059D4F810594E69C6F312063543C4F86B
:104BF000105904F51064CD78012DBBD1256925F03D
:104C0000C0452561256945F000552561B2E70A696F
:104C10001AB100EB4314C4F81429CA78012A08D049
:104C200000EB4313D3F8002942F00442C3F80029F3
:104C300087E7D0F8082812F4807F08D100EB4311F1
:104C4000D1F8002942F00052C1F80029E8E700EB52
:104C50004311D1F8002942F08052C1F80029DFE762
:104C6000D0F8084814F4807F0ED1D3F8004944F0FE
:104C70000054C3F8004914460B46C9681A789B8A49
:104C80000094FFF71DFF5CE7D3F8004944F080541F
:104C9000C3F80049EFE78E683544013DB5FBF6F5F2
:104CA0002669164F07EAC5473E43266127698E6885
:104CB000ADB206FB05F5C5F312053D43256133E7AB
:104CC000CA68002A3FF433AF626130E7D0F80828A1
:104CD00012F4807F06D1D3F8002B42F00052C3F8C3
:104CE000002B28E7D3F8002B42F08052C3F8002BAA
:104CF00021E700BF0000F8FFFFFF07E00000F81FFA
:104D000003329208002393420CD210B400F5805471
:104D1000246841F8044B01339342F7D308465DF809
:104D2000044B7047084670470B784A78012A14D024
:104D300000EB4310D0F8002B002A06DB2BB1D0F893
:104D4000003B23F08043C0F8003BD0F8003B43F425
:104D50000013C0F8003B0020704700EB4310D0F870
:104D60000029002A06DB2BB1D0F8003923F080435C
:104D7000C0F80039D0F8003943F40013C0F8003906
:104D8000E9E70B784A78012A0ED000EB4310D0F8FF
:104D9000003B23F40013C0F8003BCB78023BDBB2AE
:104DA000012B15D90020704700EB4310D0F80039D3
:104DB00023F40013C0F80039CB78023BDBB2012B9F
:104DC000F0D8D0F8003943F08053C0F80039E9E753
:104DD000D0F8003B43F08053C0F8003BE2E7D0F846
:104DE000003823F4FE63C0F80038D0F80038090119
:104DF00001F4FE610B43C0F800380020704708B58D
:104E0000D0F8043823F00203C0F804380320FBF77D
:104E1000F5FB002008BD08B5D0F8043843F00203C4
:104E2000C0F804380320FBF7E9FB002008BD426905
:104E3000806910407047D0F8183800F50060C069EC
:104E40001840000C7047D0F8183800F50060C069B1
:104E5000184080B2704700EB4111D1F8082B00F5E3
:104E6000006040691040704710B4D0F81048D0F886
:104E7000343801F00F02D340DB01DBB2234300EBF7
:104E8000411000F51060806818405DF8044B7047D1
:104E9000406900F001007047D0F80029054B13402D
:104EA000C0F80039D0F8043843F48073C0F80438EF
:104EB0000020704700F8FFFF10B4046C154B9C42B3
:104EC00003D9D0F8003B002B16DB0024C0F8104BB0
:104ED000D0F8104B44F40024C0F8104BD0F8104B1D
:104EE00044F01804C0F8104BD0F8104B44F0C04404
:104EF000C0F8104B012903D000205DF8044B704727
:104F0000C0F8142BD0F8003B43F08023C0F8003BDE
:104F1000F2E700BF0A30544F10B5D0F8BC42D0F8C9
:104F2000C0325BB194F80002FF2807D09B6894F868
:104F3000012221469847FF2384F80032002010BD4B
:104F40004323038000487047080000204323038068
:104F5000004870474C0000204323038000487047FE
:104F6000900000200A23038000487047D4000020EE
:104F700038B5D0F8BC5275B1044604F0CCFBC5F886
:104F80000C02D4F8C032DB6805F50371D5F80402D1
:104F90009847002038BD0320FCE770B5D0F8C44224
:104FA000D0F8BC5255B301EB8102930003449B69D6
:104FB0006BB90024C5F81442D0F8C0321B690A4608
:104FC00005F50471D5F808029847204670BDC1EB7D
:104FD000C106B2001444646CB3FBF4F204FB123358
:104FE000002BE6D101EB81029300034400249C6175
:104FF0002346224604F004FC2046E7E70320E5E7C9
:1050000070B582B005460C46D0F8BC6200238DF81E
:105010000730ADF804300B7813F0600227D0202A57
:105020005BD1CA883AB9D0F8C0329B680022487870
:105030009847002054E013F0800F0CD0D0F8C03215
:105040009B68314660789847E2883146284600F0F0
:10505000E7FD002044E04B7886F800328B7986F833
:105060000132CA88314600F0F0FD002038E04B786C
:105070000B2B2ED8DFE803F006362D2D2D2D2D2DF0
:105080002D2D142390F89C32032B05D1022201A967
:1050900000F0C6FD002023E000F066FA03201FE0C8
:1050A00090F89C32032B06D101220DF1070100F08C
:1050B000B7FD002014E000F057FA032010E090F84C
:1050C0009C32032B01D100200AE000F04DFA0320AE
:1050D00006E000F049FA032002E000F045FA032060
:1050E00002B070BD0020FBE738B50446812104F012
:1050F00067FB002525870121204604F061FBA4F809
:1051000078518221204604F05BFBA4F84C50A4F8AF
:105110004E50D4F8BC324BB1D4F8C0325B689847DB
:10512000D4F8BC0204F070FCC4F8BC52002038BDB6
:1051300070B504464FF4077004F05EFCB0B305464A
:10514000C4F8BC02237CB3BB4FF40073022281215C
:10515000204604F02AFB012626874FF40073022222
:105160003146204604F021FBA4F878611023A4F80E
:105170004E30082303228221204604F016FB01232F
:10518000A4F84C30D4F8C0321B6898470023C5F807
:105190001432C5F81832237C0BB34023D5F804220F
:1051A0000121204604F034FB002070BD0023C4F828
:1051B000BC320220F9E7402302228121204604F07C
:1051C000F4FA01262687402302223146204604F0C5
:1051D000ECFAA4F878611023A4F84E30C9E74FF434
:1051E0000073D5F804220121204604F011FB0020B1
:1051F000DBE719B1C0F8C0120020704703207047E8
:10520000D0F8BC32C3F80812C3F81022002070474F
:10521000D0F8BC32C3F8041200207047D0F8BC228A
:105220009AB108B5037C3BB14023D2F80422012196
:1052300004F0EEFA002008BD4FF40073D2F8042207
:10524000012104F0E5FA0020F5E703207047C0B122
:1052500008B50346D0F8B80210B10020C3F8B80270
:10526000D3F8CC0210B10020C3F8CC0209B1C3F8C6
:10527000B4121846012380F89C32027004F0FAF947
:1052800008BD0320704710B582B00023ADF806308A
:1052900059B10446C4F8B8128B6A0DF1060098475C
:1052A000C4F8CC02002002B010BD0320FBE708B513
:1052B00004F073FA08BD08B5D0F8B83213B11B6812
:1052C000984708BD0320FCE708B5D0F8B8320BB109
:1052D0005B689847002008BD38B5044600F2AA254F
:1052E000284600F02DF90123C4F89432B4F8B03206
:1052F000C4F8983294F8AA1201F01F03012B0DD0C4
:105300003BB1022B0FD001F08001204604F060FA7F
:1053100003E02946204600F0E0FA38BD2946204641
:1053200000F016FBF9E72946204600F045FBF4E7BC
:1053300010B5044629BB1346D0F89422032A01D0A5
:10534000002029E0D0F85C11D0F8602191420DD8FE
:10535000D0F8B8321B6923B190F89C22032A00D1FF
:105360009847204600F088FC002015E0891AC0F814
:105370005C118A4228BF0A46194600F075FC0020DD
:105380000AE00A46D0F8B8329B6933B190F89C1213
:10539000032904D11146984710BD0320FCE70320E0
:1053A000FAE710B50446002946D11346D0F89422F6
:1053B000022A05D094F8A032012B39D0002046E013
:1053C000C269016A8A4213D88A421DD0D4F8B83221
:1053D000DB682BB194F89C22032A01D12046984720
:1053E0008021204604F0F4F9204600F050FCE1E76B
:1053F000521AC261194600F020FC00231A461946D1
:10540000204604F005FAD5E783699942DED8D0F842
:1054100098229342DAD20022114600F00EFC0021BD
:10542000C4F898120B460A46204604F0F1F9C1E789
:10543000002084F8A0020AE00A46D0F8B8325B697E
:1054400033B190F89C12032904D11146984710BD3E
:105450000320FCE70320FAE770B50446012380F837
:105460009C320023C0F894324360C0F8A432D0F8D4
:10547000BC3223B1D0F8B8325B6800219847402392
:1054800000221146204604F090F90126A4F8646138
:105490004025C4F860512B4600228021204604F0AC
:1054A00084F9A6842562002070BD01740020704735
:1054B00090F89C3280F89D32042380F89C320020C2
:1054C000704790F89C32042B01D00020704790F870
:1054D0009D3280F89C32F8E708B590F89C32032B97
:1054E00001D0002008BDD0F8B832DB69002BF8D01D
:1054F0009847F6E70020704700207047002070476B
:1055000008B5012380F89C32D0F8B83213B15B683B
:1055100001799847002008BD002302E00133DBB287
:1055200001300278002AF9D11846704708B54B8837
:10553000012B00D008BDC0F8A43200F09DFBF9E7B4
:105540000B7803704B7843708B78CA7843EA022358
:1055500043800B794A7943EA022383808B79CA79A5
:1055600043EA0223C380704710B50446802104F04B
:105570002FF90021204604F02BF910BD30B583B07F
:1055800004460D460023ADF806304A88130A013B55
:105590000E2B00F2BC80DFE803F0153044BABA9E4F
:1055A000ABBABABABABABABA0800D0F8B432DB6940
:1055B00023B10DF10601007C98470AE02946FFF768
:1055C000D3FF18E0D0F8B4321B680DF10601007C5F
:1055D0009847EA88002A00F0A380BDF80630002B27
:1055E00000F099809A4228BF1A46ADF8062001467D
:1055F000204600F015FB03B030BD037C43B9D0F862
:10560000B8329B6A0DF10600984702234370E0E729
:10561000D0F8B832DB6A0DF10600984702234370D8
:10562000D7E7D2B2052A52D8DFE802F003101D2ACC
:105630003744D0F8B4325B6823B10DF10601007C29
:105640009847C6E72946FFF78FFFD4E7D0F8B43272
:105650009B6823B10DF10601007C9847B9E7294604
:10566000FFF782FFC7E7D0F8B432DB6823B10DF152
:105670000601007C9847ACE72946FFF775FFBAE7BB
:10568000D0F8B4321B6923B10DF10601007C9847B4
:105690009FE72946FFF768FFADE7D0F8B4325B69B2
:1056A00023B10DF10601007C984792E72946FFF7E8
:1056B0005BFFA0E7D0F8B4329B6923B10DF106017E
:1056C000007C984785E72946FFF74EFF93E7294678
:1056D000FFF74AFF8FE7037C33B9D0F8B8325B6B32
:1056E0000DF10600984774E72946FFF73DFF82E772
:1056F000037C43B9D0F8B8321B6B0DF10600984714
:105700000723437065E72946FFF72EFF73E7294615
:10571000FFF72AFF6FE729462046FFF725FF6AE7D4
:10572000204600F0A9FA66E738B504468B88F3B93D
:10573000CB88E3B94B887F2B19D803F07F0590F80D
:105740009C32032B0CD080F89E52294604F050F86E
:10575000204600F091FA35B1022384F89C3209E02A
:10576000FFF702FF06E0012384F89C3202E02046A6
:10577000FFF7FAFE38BD000070B504460D46897883
:105780002E4B197001290FD890F89C32022B11D0A2
:10579000032B25D02946FFF7E7FE284B1978204632
:1057A000FFF792FD032603E02946FFF7DDFE0326FF
:1057B000304670BD81B14160FFF77DFD064620B1E6
:1057C00029462046FFF7D0FEF2E7204600F054FAC3
:1057D000032384F89C32EBE700F04EFA0026E7E75B
:1057E000C9B14368994225D0D9B2FFF76DFD134B7B
:1057F000197861602046FFF75EFD0646B0B1294684
:105800002046FFF7B1FE21792046FFF75DFD022318
:1058100084F89C32CCE7022380F89C324160FFF789
:1058200053FD204600F028FA0026C1E7204600F08C
:1058300023FABDE700F020FA0026B9E72002002095
:1058400008B5CB88012B0BD190F89C329BB1022B71
:1058500009D9032B0FD10122011D00F0E1F901E06C
:10586000FFF782FE08BD0146002341F8083F0122F0
:1058700000F0D6F9F6E7FFF777FEF3E708B590F802
:105880009C32013B022B12D8CB88022B0CD1012376
:10589000C360D0F8A4320BB10323C360022200F12D
:1058A0000C0100F0BDF908BDFFF75EFEFBE7FFF756
:1058B0005BFEF8E708B590F89C32013B022B09D853
:1058C0004B88012B00D008BD0023C0F8A43200F0A3
:1058D000D3F9F8E7FFF748FEF5E708B50B7803F0D2
:1058E0006003202B06D0402B04D043B1FFF73CFED1
:1058F000002003E0D0F8B8329B68984708BD4B7889
:10590000092B21D8DFE803F0141C201820090520FA
:10591000100DFFF733FE0020F0E7FFF705FF002032
:10592000ECE7FFF729FFE9E7FFF78AFF0020E5E74B
:10593000FFF7A4FF0020E1E7FFF7F8FD0020DDE717
:10594000FFF7B8FF0020D9E7FFF70EFE0020D5E7EC
:1059500070B505460C460B7803F06003202B07D08A
:10596000402B05D023B1FFF7FFFD0026304670BD68
:1059700095F89C32013B022B18D82379012B0FD8C4
:10598000D5F8B8329B682146284698470646E388F2
:10599000002BEBD10028E9D1284600F06DF9E5E7AE
:1059A00021462846FFF7E0FD0026DFE7214628468E
:1059B000FFF7DAFD0026D9E738B505460C468A8898
:1059C0000B7803F06003202B08D0D1B2402B05D018
:1059D0005BB12146FFF7C8FD002005E0D5F8B832DD
:1059E0009B6821462846984738BD6378012B38D0FC
:1059F000002B6BD0032B40F0F08090F89C32022BF0
:105A000006D0032B19D02146FFF7AEFD0020EBE7AF
:105A1000B1F1800318BF0123002908BF00233BB167
:105A200003F0D6FE8021284603F0D2FE0020DBE7FB
:105A30002146FFF799FD0020D6E763884BB9B1F105
:105A4000800318BF0123002908BF00230BB1E3889E
:105A500023B1284600F010F90020C5E703F0B8FE96
:105A6000F7E790F89C32022B06D0032B19D0214681
:105A7000FFF77AFD0020B7E7B1F1800318BF0123DB
:105A8000002908BF00233BB103F0A2FE8021284675
:105A900003F09EFE0020A7E72146FFF765FD0020EA
:105AA000A2E76388002B40F09D8011F07F0F0AD1A0
:105AB000284600F0E1F8D5F8B8329B682146284620
:105AC0009847002090E703F08BFEF1E790F89C32B6
:105AD000022B06D0032B2FD02146FFF745FD0020D7
